11011700020240229000111788000000000241056650000000276                                                                                                                                                                                                                                   
1101170002024022900012178800000000000351723000106717001000000302388764STEG                          0107501075106111021425723BEN SAID TAWFIK                       2024LP522571000LP REMBOURSEMENT DES FRAIS MEDICAUX          2024022900000000010                                      
1101170002024022900022178800000000000192144000106717001000000302388764STEG                          1490614906906100700288666HARRABI MONCEF                        2024LP522572000LP REMBOURSEMENT DES FRAIS MEDICAUX          2024022900000000010                                      
1101170002024022900032178800000000000077032000106717001000000302388764STEG                          0830608306000074003199619LAFFANDI LOTFI                        2024LP522573000LP REMBOURSEMENT DES FRAIS MEDICAUX          2024022900000000010                                      
1101170002024022900042178800000000000036577000106717001000000302388764STEG                          1700117001000000191113662NASRAOUI AHMED                        2024LP522591000LP REMBOURSEMENT DES FRAIS MEDICAUX          2024022900000000010                                      
1101170002024022900052178800000000000210000000106717001000000302388764STEG                          0807808078023042003229993BEN SALAH EP MABROUK RYM              2024LP522595000LP REMBOURSEMENT DES FRAIS MEDICAUX          2024022900000000010                                      
1101170002024022900062178800000000000240453000106717001000000302388764STEG                          1747417474201402404921164ABDENNABI MOHAMED                     2024LP522607000LP REMBOURSEMENT DES FRAIS MEDICAUX          2024022900000000010                                      
1101170002024022900072178800000000000099129000106717001000000302388764STEG                          1747417474201402404741326SBOUI NOUREDDINE                      2024LP522612000LP REMBOURSEMENT DES FRAIS MEDICAUX          2024022900000000010                                      
1101170002024022900082178800000000000135000000106717001000000302388764STEG                          0870508705000412014249124ABDELMALEK AYMEN                      2024LP522617000LP REMBOURSEMENT DES FRAIS MEDICAUX          2024022900000000010                                      
1101170002024022900092178800000000000035000000106717001000000302388764STEG                          1012810128119102232878895MEJRI AMOR                            2024LP522623000LP REMBOURSEMENT DES FRAIS MEDICAUX          2024022900000000010                                      
1101170002024022900102178800000000000041940000106717001000000302388764STEG                          0811508115028042000799295BEN KHALIFA EL MAHJOUB                2024LP522722000LP REMBOURSEMENT DES FRAIS MEDICAUX          2024022900000000010                                      
1101170002024022900112178800000000000037683000106717001000000302388764STEG                          2503625036000000016072547YAAGOUB EZZEDINE                      2024LP522724000LP REMBOURSEMENT DES FRAIS MEDICAUX          2024022900000000010                                      
1101170002024022900122178800000000000222232000106717001000000302388764STEG                          1747417474201404191710149HAMIDI MOURAD                         2024LP522731000LP REMBOURSEMENT DES FRAIS MEDICAUX          2024022900000000010                                      
1101170002024022900132178800000000000055556000106717001000000302388764STEG                          0720607206004110556832224BELGAID  MEHREZ                       2024LP522870000LP REMBOURSEMENT DES FRAIS MEDICAUX          2024022900000000010                                      
1101170002024022900142178800000000000035000000106717001000000302388764STEG                          0805108051020082001936891MEZZI ABDERRAHMEN                     2024LP522907000LP REMBOURSEMENT DES FRAIS MEDICAUX          2024022900000000010                                      
1101170002024022900152178800000000000018000000106717001000000302388764STEG                          0820008200000502008142463JELMEN  NACEUR                        2024LP522908000LP REMBOURSEMENT DES FRAIS MEDICAUX          2024022900000000010                                      
1101170002024022900162178800000000000064272000106717001000000302388764STEG                          1401114011011100700349150ABDESATAR JOUINI                      2024LP522921000LP REMBOURSEMENT DES FRAIS MEDICAUX          2024022900000000010                                      
1101170002024022900172178800000000000086909000106717001000000302388764STEG                          1040410404100101293878810NAJAR  SALAH                          2024LP522929000LP REMBOURSEMENT DES FRAIS MEDICAUX          2024022900000000010                                      
1101170002024022900182178800000000000035000000106717001000000302388764STEG                          0330003300027010100384490HAOUET ABDERAOUF                      2024LP522951000LP REMBOURSEMENT DES FRAIS MEDICAUX          2024022900000000010                                      
1101170002024022900192178800000000000087635000106717001000000302388764STEG                          1100011000004019501378856HAMIDA ABDESSLEM                      2024LP522968000LP REMBOURSEMENT DES FRAIS MEDICAUX          2024022900000000010                                      
1101170002024022900202178800000000000084000000106717001000000302388764STEG                          1747417474201402409174226RAJICHI HAMDI                         2024LP523000000LP REMBOURSEMENT DES FRAIS MEDICAUX          2024022900000000010                                      
1101170002024022900212178800000000000094856000106717001000000302388764STEG                          0311903119176010100041611NECIBI NOUREDDINE                     2024LP523013000LP REMBOURSEMENT DES FRAIS MEDICAUX          2024022900000000010                                      
1101170002024022900222178800000000000105000000106717001000000302388764STEG                          1747417474201402405535853BOUHLEL HASSEN                        2024LP523020000LP REMBOURSEMENT DES FRAIS MEDICAUX          2024022900000000010                                      
1101170002024022900232178800000000000075906000106717001000000302388764STEG                          1490814908908100701693036MEHRI CHOKRI                          2024LP523040000LP REMBOURSEMENT DES FRAIS MEDICAUX          2024022900000000010                                      
1101170002024022900242178800000000000052950000106717001000000302388764STEG                          0550105501000014507587428SNENE MED MONDHER                     2024LP523084000LP REMBOURSEMENT DES FRAIS MEDICAUX          2024022900000000010                                      
1101170002024022900252178800000000000047647000106717001000000302388764STEG                          0470604706041404001197762BEN RHOUMA HAFEDH                     2024LP523150000LP REMBOURSEMENT DES FRAIS MEDICAUX          2024022900000000010                                      
1101170002024022900262178800000000000218194000106717001000000302388764STEG                          1090810908014100838078867KTARI RAOUF                           2024LP523158000LP REMBOURSEMENT DES FRAIS MEDICAUX          2024022900000000010                                      
1101170002024022900272178800000000000107117000106717001000000302388764STEG                          0730707307005110556250770EGNEB DAGHARI MASSEOUD                2024LP523180000LP REMBOURSEMENT DES FRAIS MEDICAUX          2024022900000000010                                      
1101170002024022900282178800000000000156369000106717001000000302388764STEG                          1747417474201402404708249SFAR ADEL                             2024LP523256000LP REMBOURSEMENT DES FRAIS MEDICAUX          2024022900000000010                                      
1101170002024022900292178800000000000145898000106717001000000302388764STEG                          2508525085000000116777197KILANI MOHAMED                        2024LP523280000LP REMBOURSEMENT DES FRAIS MEDICAUX          2024022900000000010                                      
1101170002024022900302178800000000000088774000106717001000000302388764STEG                          1747417474201402407904496ABBES FERID                           2024LP523281000LP REMBOURSEMENT DES FRAIS MEDICAUX          2024022900000000010                                      
1101170002024022900312178800000000000050070000106717001000000302388764STEG                          1747417474201402406553092BEN SALAH FAOUZI                      2024LP523282000LP REMBOURSEMENT DES FRAIS MEDICAUX          2024022900000000010                                      
1101170002024022900322178800000000000060632000106717001000000302388764STEG                          2504225042000000001076465MESSAOUDI MOEZ                        2024LP523283000LP REMBOURSEMENT DES FRAIS MEDICAUX          2024022900000000010                                      
1101170002024022900332178800000000000035000000106717001000000302388764STEG                          2504225042000000001076465MESSAOUDI MOEZ                        2024LP523284000LP REMBOURSEMENT DES FRAIS MEDICAUX          2024022900000000010                                      
1101170002024022900342178800000000000155186000106717001000000302388764STEG                          1747417474201402414069719BEL HADJ SALEM FETHI                  2024LP523285000LP REMBOURSEMENT DES FRAIS MEDICAUX          2024022900000000010                                      
1101170002024022900352178800000000000067436000106717001000000302388764STEG                          1103411034002269500878882ABBASSI ANIS                          2024LP523286000LP REMBOURSEMENT DES FRAIS MEDICAUX          2024022900000000010                                      
1101170002024022900362178800000000000036647000106717001000000302388764STEG                          1747417474201402409369875HADJ AMMAR HAMZA                      2024LP523287000LP REMBOURSEMENT DES FRAIS MEDICAUX          2024022900000000010                                      
1101170002024022900372178800000000000075717000106717001000000302388764STEG                          0560805608000043504352691MZOUGHI YOUSSEF                       2024LP523288000LP REMBOURSEMENT DES FRAIS MEDICAUX          2024022900000000010                                      
1101170002024022900382178800000000000153841000106717001000000302388764STEG                          1700117001000000065404281NOURI TAREK                           2024LP523289000LP REMBOURSEMENT DES FRAIS MEDICAUX          2024022900000000010                                      
1101170002024022900392178800000000000051069000106717001000000302388764STEG                          1230612306000830100930644ZAOUI LOTFI                           2024LP523290000LP REMBOURSEMENT DES FRAIS MEDICAUX          2024022900000000010                                      
1101170002024022900402178800000000000036592000106717001000000302388764STEG                          1747417474201402406553092BEN SALAH FAOUZI                      2024LP523292000LP REMBOURSEMENT DES FRAIS MEDICAUX          2024022900000000010                                      
1101170002024022900412178800000000000082422000106717001000000302388764STEG                          0550305503000034500858641CHOUCHENE BILEL                       2024LP523293000LP REMBOURSEMENT DES FRAIS MEDICAUX          2024022900000000010                                      
1101170002024022900422178800000000000121593000106717001000000302388764STEG                          0809808098027094001644182BEN HFAIDH KHALED                     2024LP523294000LP REMBOURSEMENT DES FRAIS MEDICAUX          2024022900000000010                                      
1101170002024022900432178800000000000091892000106717001000000302388764STEG                          0302703027157010100116250KARFOUH BORHENNE                      2024LP523295000LP REMBOURSEMENT DES FRAIS MEDICAUX          2024022900000000010                                      
1101170002024022900442178800000000000057497000106717001000000302388764STEG                          1747417474201402071876902HAJJAJI FETHI                         2024LP523296000LP REMBOURSEMENT DES FRAIS MEDICAUX          2024022900000000010                                      
1101170002024022900452178800000000000030000000106717001000000302388764STEG                          1210212102000300108059796CHELLY ABDELMAJID                     2024LP523297000LP REMBOURSEMENT DES FRAIS MEDICAUX          2024022900000000010                                      
1101170002024022900462178800000000000046053000106717001000000302388764STEG                          1000010000000067642778875NOURI ABDALLAH                        2024LP523299000LP REMBOURSEMENT DES FRAIS MEDICAUX          2024022900000000010                                      
1101170002024022900472178800000000000026357000106717001000000302388764STEG                          0810708107000772009158005LABIDI  YOUNES                        2024LP523300000LP REMBOURSEMENT DES FRAIS MEDICAUX          2024022900000000010                                      
1101170002024022900482178800000000000076575000106717001000000302388764STEG                          0800308003000712004380879ZAMEL RIDHA                           2024LP523301000LP REMBOURSEMENT DES FRAIS MEDICAUX          2024022900000000010                                      
1101170002024022900492178800000000000095752000106717001000000302388764STEG                          1401514015015100702742342DRIRA ABDELLAZIZ                      2024LP523302000LP REMBOURSEMENT DES FRAIS MEDICAUX          2024022900000000010                                      
1101170002024022900502178800000000000117424000106717001000000302388764STEG                          1401514015015100702742342DRIRA ABDELLAZIZ                      2024LP523303000LP REMBOURSEMENT DES FRAIS MEDICAUX          2024022900000000010                                      
1101170002024022900512178800000000000110877000106717001000000302388764STEG                          0705707057011510551008374THAMEUR MAHMOUD                       2024LP523304000LP REMBOURSEMENT DES FRAIS MEDICAUX          2024022900000000010                                      
1101170002024022900522178800000000000063905000106717001000000302388764STEG                          1401514015015100702742342DRIRA ABDELLAZIZ                      2024LP523305000LP REMBOURSEMENT DES FRAIS MEDICAUX          2024022900000000010                                      
1101170002024022900532178800000000000063524000106717001000000302388764STEG                          1040410404100109625678872BSILA  MOHAMED TAHAR                  2024LP523307000LP REMBOURSEMENT DES FRAIS MEDICAUX          2024022900000000010                                      
1101170002024022900542178800000000000031758000106717001000000302388764STEG                          0500905009000028500555834MEKNI SADOK                           2024LP523308000LP REMBOURSEMENT DES FRAIS MEDICAUX          2024022900000000010                                      
1101170002024022900552178800000000000004500000106717001000000302388764STEG                          0500905009000028500555834MEKNI SADOK                           2024LP523309000LP REMBOURSEMENT DES FRAIS MEDICAUX          2024022900000000010                                      
1101170002024022900562178800000000000037936000106717001000000302388764STEG                          0330103301030010100094750BEN SLIMANE  ABDERAOUF                2024LP523310000LP REMBOURSEMENT DES FRAIS MEDICAUX          2024022900000000010                                      
1101170002024022900572178800000000000075450000106717001000000302388764STEG                          1210712107000510101875180FARFAR HELA                           2024LP523312000LP REMBOURSEMENT DES FRAIS MEDICAUX          2024022900000000010                                      
1101170002024022900582178800000000000219034000106717001000000302388764STEG                          2507125071000000035150193MARS WALID                            2024LP523313000LP REMBOURSEMENT DES FRAIS MEDICAUX          2024022900000000010                                      
1101170002024022900592178800000000000035000000106717001000000302388764STEG                          1490614906906100700288666HARRABI MONCEF                        2024LP523314000LP REMBOURSEMENT DES FRAIS MEDICAUX          2024022900000000010                                      
1101170002024022900602178800000000000038583000106717001000000302388764STEG                          1747417474201404089221404DALLAGI  HABIB                        2024LP523315000LP REMBOURSEMENT DES FRAIS MEDICAUX          2024022900000000010                                      
1101170002024022900612178800000000000062810000106717001000000302388764STEG                          1747417474201404089221404DALLAGI  HABIB                        2024LP523316000LP REMBOURSEMENT DES FRAIS MEDICAUX          2024022900000000010                                      
1101170002024022900622178800000000000075985000106717001000000302388764STEG                          2507125071000000035150193MARS WALID                            2024LP523317000LP REMBOURSEMENT DES FRAIS MEDICAUX          2024022900000000010                                      
1101170002024022900632178800000000000027600000106717001000000302388764STEG                          2503125031000000059138347NAFTI ADEL                            2024LP523318000LP REMBOURSEMENT DES FRAIS MEDICAUX          2024022900000000010                                      
1101170002024022900642178800000000000900000000106717001000000302388764STEG                          1747417474201402415435964GADHOUM JABER                         2024LP523319000LP REMBOURSEMENT DES FRAIS MEDICAUX          2024022900000000010                                      
1101170002024022900652178800000000000037908000106717001000000302388764STEG                          2500125001000000004108687SAADOUNI JILANI                       2024LP523320000LP REMBOURSEMENT DES FRAIS MEDICAUX          2024022900000000010                                      
1101170002024022900662178800000000000035000000106717001000000302388764STEG                          2500125001000000004108687SAADOUNI JILANI                       2024LP523321000LP REMBOURSEMENT DES FRAIS MEDICAUX          2024022900000000010                                      
1101170002024022900672178800000000000035000000106717001000000302388764STEG                          1770117701000000234410607CHAABENE AHMED                        2024LP523322000LP REMBOURSEMENT DES FRAIS MEDICAUX          2024022900000000010                                      
1101170002024022900682178800000000000055200000106717001000000302388764STEG                          1747417474201402415435964GADHOUM JABER                         2024LP523323000LP REMBOURSEMENT DES FRAIS MEDICAUX          2024022900000000010                                      
1101170002024022900692178800000000000048114000106717001000000302388764STEG                          1010510105057102539178863HADIDI  SKANDER                       2024LP523324000LP REMBOURSEMENT DES FRAIS MEDICAUX          2024022900000000010                                      
1101170002024022900702178800000000000107887000106717001000000302388764STEG                          2503125031000000059138347NAFTI ADEL                            2024LP523325000LP REMBOURSEMENT DES FRAIS MEDICAUX          2024022900000000010                                      
1101170002024022900712178800000000000164325000106717001000000302388764STEG                          1750317503000000209059934BELKHIRIA LASSAAD                     2024LP523326000LP REMBOURSEMENT DES FRAIS MEDICAUX          2024022900000000010                                      
1101170002024022900722178800000000000112049000106717001000000302388764STEG                          0740207402005510556048304HAMMAMI BECHIR                        2024LP523328000LP REMBOURSEMENT DES FRAIS MEDICAUX          2024022900000000010                                      
1101170002024022900732178800000000000114182000106717001000000302388764STEG                          1404314043043100700045313MEDDEB  MAHMOUD                       2024LP523329000LP REMBOURSEMENT DES FRAIS MEDICAUX          2024022900000000010                                      
1101170002024022900742178800000000000065000000106717001000000302388764STEG                          1747417474201402414014332HSSINI AYDA                           2024LP523331000LP REMBOURSEMENT DES FRAIS MEDICAUX          2024022900000000010                                      
1101170002024022900752178800000000000900000000106717001000000302388764STEG                          0310603106072010100248671BETTAIEB  ABDELMAJID                  2024LP523332000LP REMBOURSEMENT DES FRAIS MEDICAUX          2024022900000000010                                      
1101170002024022900762178800000000000079646000106717001000000302388764STEG                          0590005900000023515932507DHOUIB ALI                            2024LP523333000LP REMBOURSEMENT DES FRAIS MEDICAUX          2024022900000000010                                      
1101170002024022900772178800000000000131075000106717001000000302388764STEG                          0880208802000322011129560BEN AMOR FATMA                        2024LP523334000LP REMBOURSEMENT DES FRAIS MEDICAUX          2024022900000000010                                      
1101170002024022900782178800000000000057122000106717001000000302388764STEG                          0401204012086404001861801BEN ATTAYA SLAHEDDINE                 2024LP523336000LP REMBOURSEMENT DES FRAIS MEDICAUX          2024022900000000010                                      
1101170002024022900792178800000000000018000000106717001000000302388764STEG                          1480314803803100700914110MSALLEM Abdelmoula                    2024LP523337000LP REMBOURSEMENT DES FRAIS MEDICAUX          2024022900000000010                                      
1101170002024022900802178800000000000054000000106717001000000302388764STEG                          0450404504011404005458989FKIH SAMIR                            2024LP523338000LP REMBOURSEMENT DES FRAIS MEDICAUX          2024022900000000010                                      
1101170002024022900812178800000000000060445000106717001000000302388764STEG                          2503125031000000020793277TOUNSI HAMIDA                         2024LP523339000LP REMBOURSEMENT DES FRAIS MEDICAUX          2024022900000000010                                      
1101170002024022900822178800000000000035000000106717001000000302388764STEG                          1780117801000000009088784HAMMADI WAHID                         2024LP523340000LP REMBOURSEMENT DES FRAIS MEDICAUX          2024022900000000010                                      
1101170002024022900832178800000000000039342000106717001000000302388764STEG                          1201912019000000204542947HAMMAR CHOKRI                         2024LP523341000LP REMBOURSEMENT DES FRAIS MEDICAUX          2024022900000000010                                      
1101170002024022900842178800000000000055818000106717001000000302388764STEG                          0470504705012006104126588DHAOU SAMAR                           2024LP523342000LP REMBOURSEMENT DES FRAIS MEDICAUX          2024022900000000010                                      
1101170002024022900852178800000000000120017000106717001000000302388764STEG                          3200632006788101021605127MOUSSA LASSAAD                        2024LP523345000LP REMBOURSEMENT DES FRAIS MEDICAUX          2024022900000000010                                      
1101170002024022900862178800000000000022575000106717001000000302388764STEG                          0550805508000066501040658HALOUANI  SALEM                       2024LP523346000LP REMBOURSEMENT DES FRAIS MEDICAUX          2024022900000000010                                      
1101170002024022900872178800000000000018000000106717001000000302388764STEG                          0890108901000382000006380DRISS  ABDELLATIF                     2024LP523347000LP REMBOURSEMENT DES FRAIS MEDICAUX          2024022900000000010                                      
1101170002024022900882178800000000000016533000106717001000000302388764STEG                          1750317503000000209059934BELKHIRIA LASSAAD                     2024LP523349000LP REMBOURSEMENT DES FRAIS MEDICAUX          2024022900000000010                                      
1101170002024022900892178800000000000063200000106717001000000302388764STEG                          1700217002000000049644646HADJ MOHAMED HATEM                    2024LP523351000LP REMBOURSEMENT DES FRAIS MEDICAUX          2024022900000000010                                      
1101170002024022900902178800000000000035000000106717001000000302388764STEG                          0409904099184002076200179BEN LAKHDHAR HASSEN                   2024LP523352000LP REMBOURSEMENT DES FRAIS MEDICAUX          2024022900000000010                                      
1101170002024022900912178800000000000036000000106717001000000302388764STEG                          0310703107099010100061909OUEDDANI FARES                        2024LP523353000LP REMBOURSEMENT DES FRAIS MEDICAUX          2024022900000000010                                      
1101170002024022900922178800000000000006597000106717001000000302388764STEG                          0801608016010072005952002EL ARAICHI ANWAER                     2024LP523354000LP REMBOURSEMENT DES FRAIS MEDICAUX          2024022900000000010                                      
1101170002024022900932178800000000000045072000106717001000000302388764STEG                          1747417474201402407066222DARDOURI HABIB                        2024LP523355000LP REMBOURSEMENT DES FRAIS MEDICAUX          2024022900000000010                                      
1101170002024022900942178800000000000018000000106717001000000302388764STEG                          1700117001000000165479472MEJRI NAIMI KHAOULA                   2024LP523356000LP REMBOURSEMENT DES FRAIS MEDICAUX          2024022900000000010                                      
1101170002024022900952178800000000000054482000106717001000000302388764STEG                          1747417474201402414014332HSSINI AYDA                           2024LP523357000LP REMBOURSEMENT DES FRAIS MEDICAUX          2024022900000000010                                      
1101170002024022900962178800000000000058185000106717001000000302388764STEG                          1747417474201402404267966HADJ AMOR SAIDA                       2024LP523358000LP REMBOURSEMENT DES FRAIS MEDICAUX          2024022900000000010                                      
1101170002024022900972178800000000000058901000106717001000000302388764STEG                          0850008500000202017052590BOUJEBHA  JAMEL                       2024LP523360000LP REMBOURSEMENT DES FRAIS MEDICAUX          2024022900000000010                                      
1101170002024022900982178800000000000045199000106717001000000302388764STEG                          1747417474201402415670122BEN HADJ AMOR DHIAELHAK               2024LP523361000LP REMBOURSEMENT DES FRAIS MEDICAUX          2024022900000000010                                      
1101170002024022900992178800000000000041714000106717001000000302388764STEG                          1750317503000000041994506BESSAAD  NACEUR                       2024LP523362000LP REMBOURSEMENT DES FRAIS MEDICAUX          2024022900000000010                                      
1101170002024022901002178800000000000078619000106717001000000302388764STEG                          1250012500000000203589520ABIDI HABIB                           2024LP523363000LP REMBOURSEMENT DES FRAIS MEDICAUX          2024022900000000010                                      
1101170002024022901012178800000000000047106000106717001000000302388764STEG                          0350003500020010111028477EL KHOUDI FAYCAL                      2024LP523364000LP REMBOURSEMENT DES FRAIS MEDICAUX          2024022900000000010                                      
1101170002024022901022178800000000000340000000106717001000000302388764STEG                          1200012000000100139416542SBAOUELGI  MED FAOUZI                 2024LP523365000LP REMBOURSEMENT DES FRAIS MEDICAUX          2024022900000000010                                      
1101170002024022901032178800000000000024597000106717001000000302388764STEG                          2513125131000000107869751HAMZAOUI MED FATHI                    2024LP523366000LP REMBOURSEMENT DES FRAIS MEDICAUX          2024022900000000010                                      
1101170002024022901042178800000000000039510000106717001000000302388764STEG                          1010410104059105589778853SAHBANI ABDELMAJID                    2024LP523367000LP REMBOURSEMENT DES FRAIS MEDICAUX          2024022900000000010                                      
1101170002024022901052178800000000000061312000106717001000000302388764STEG                          0390803908083010100391675AKREMI HASSOUNA                       2024LP523368000LP REMBOURSEMENT DES FRAIS MEDICAUX          2024022900000000010                                      
1101170002024022901062178800000000000025000000106717001000000302388764STEG                          1747417474201402407644633SAGAAMA ABDELHAMID                    2024LP523369000LP REMBOURSEMENT DES FRAIS MEDICAUX          2024022900000000010                                      
1101170002024022901072178800000000000071306000106717001000000302388764STEG                          1747417474201402414466546ABDELJAOUED CHAKER                    2024LP523370000LP REMBOURSEMENT DES FRAIS MEDICAUX          2024022900000000010                                      
1101170002024022901082178800000000000041745000106717001000000302388764STEG                          1210112101000570201433822NASRA  MOHAMED                        2024LP523371000LP REMBOURSEMENT DES FRAIS MEDICAUX          2024022900000000010                                      
1101170002024022901092178800000000000323765000106717001000000302388764STEG                          0405004050135001295256088SKHIRI MED HDHILI                     2024LP523372000LP REMBOURSEMENT DES FRAIS MEDICAUX          2024022900000000010                                      
1101170002024022901102178800000000000065483000106717001000000302388764STEG                          1750317503000000102267008ELMESSAY  MOHD EL HEDi                2024LP523373000LP REMBOURSEMENT DES FRAIS MEDICAUX          2024022900000000010                                      
1101170002024022901112178800000000000053229000106717001000000302388764STEG                          0412604126193404000698573FEKIH  FAOUZI                         2024LP523374000LP REMBOURSEMENT DES FRAIS MEDICAUX          2024022900000000010                                      
1101170002024022901122178800000000000024962000106717001000000302388764STEG                          1750317503000000102267008ELMESSAY  MOHD EL HEDi                2024LP523375000LP REMBOURSEMENT DES FRAIS MEDICAUX          2024022900000000010                                      
1101170002024022901132178800000000000047421000106717001000000302388764STEG                          1480914809809100703055979NAFIKHA ADEL                          2024LP523377000LP REMBOURSEMENT DES FRAIS MEDICAUX          2024022900000000010                                      
1101170002024022901142178800000000000057914000106717001000000302388764STEG                          0550005500000022503172052JERIDI BILEL                          2024LP523378000LP REMBOURSEMENT DES FRAIS MEDICAUX          2024022900000000010                                      
1101170002024022901152178800000000000027810000106717001000000302388764STEG                          0550805508000066550780706BEN HAJ FREJ  SALAH                   2024LP523379000LP REMBOURSEMENT DES FRAIS MEDICAUX          2024022900000000010                                      
1101170002024022901162178800000000000035000000106717001000000302388764STEG                          2503725037000000048654026SIOUD RIHEM                           2024LP523380000LP REMBOURSEMENT DES FRAIS MEDICAUX          2024022900000000010                                      
1101170002024022901172178800000000000108914000106717001000000302388764STEG                          1070810708012102238878838SELMI BRAHIM                          2024LP523381000LP REMBOURSEMENT DES FRAIS MEDICAUX          2024022900000000010                                      
1101170002024022901182178800000000000032091000106717001000000302388764STEG                          1747417474201402404840363JANZOURI MAHMOUD                      2024LP523382000LP REMBOURSEMENT DES FRAIS MEDICAUX          2024022900000000010                                      
1101170002024022901192178800000000000050773000106717001000000302388764STEG                          1747417474201402413728958CHAOUECH FAOUZI                       2024LP523383000LP REMBOURSEMENT DES FRAIS MEDICAUX          2024022900000000010                                      
1101170002024022901202178800000000000185000000106717001000000302388764STEG                          0830308303000282007105371OUNAIES MANEL                         2024LP523384000LP REMBOURSEMENT DES FRAIS MEDICAUX          2024022900000000010                                      
1101170002024022901212178800000000000378998000106717001000000302388764STEG                          0510405104000005564488824EL ARBI JAMEL                         2024LP523385000LP REMBOURSEMENT DES FRAIS MEDICAUX          2024022900000000010                                      
1101170002024022901222178800000000000045006000106717001000000302388764STEG                          1747417474201402414776752LOUHICHI MAHASEN                      2024LP523386000LP REMBOURSEMENT DES FRAIS MEDICAUX          2024022900000000010                                      
1101170002024022901232178800000000000038874000106717001000000302388764STEG                          1747417474201402414776752LOUHICHI MAHASEN                      2024LP523387000LP REMBOURSEMENT DES FRAIS MEDICAUX          2024022900000000010                                      
1101170002024022901242178800000000000074262000106717001000000302388764STEG                          1750317503000000209059934BELKHIRIA LASSAAD                     2024LP523388000LP REMBOURSEMENT DES FRAIS MEDICAUX          2024022900000000010                                      
1101170002024022901252178800000000000041020000106717001000000302388764STEG                          1747417474201402414776752LOUHICHI MAHASEN                      2024LP523390000LP REMBOURSEMENT DES FRAIS MEDICAUX          2024022900000000010                                      
1101170002024022901262178800000000000205000000106717001000000302388764STEG                          0310603106072010100190180DRIDI RIDHA                           2024LP523391000LP REMBOURSEMENT DES FRAIS MEDICAUX          2024022900000000010                                      
1101170002024022901272178800000000000040935000106717001000000302388764STEG                          0504305043000111500397252BOUBAKER BILEL                        2024LP523393000LP REMBOURSEMENT DES FRAIS MEDICAUX          2024022900000000010                                      
1101170002024022901282178800000000000060359000106717001000000302388764STEG                          0103901039077111016715078MOKNI SALAH                           2024LP523394000LP REMBOURSEMENT DES FRAIS MEDICAUX          2024022900000000010                                      
1101170002024022901292178800000000000154763000106717001000000302388764STEG                          1260512605000250117831787CHRAIET RACHED                        2024LP523395000LP REMBOURSEMENT DES FRAIS MEDICAUX          2024022900000000010                                      
1101170002024022901302178800000000000021150000106717001000000302388764STEG                          1750317503000000200686506BEN ROMDHANE AYMEN                    2024LP523396000LP REMBOURSEMENT DES FRAIS MEDICAUX          2024022900000000010                                      
1101170002024022901312178800000000000091202000106717001000000302388764STEG                          1070810708012102238878838SELMI BRAHIM                          2024LP523397000LP REMBOURSEMENT DES FRAIS MEDICAUX          2024022900000000010                                      
1101170002024022901322178800000000000008106000106717001000000302388764STEG                          1750317503000000209059934BELKHIRIA LASSAAD                     2024LP523399000LP REMBOURSEMENT DES FRAIS MEDICAUX          2024022900000000010                                      
1101170002024022901332178800000000000111840000106717001000000302388764STEG                          0810308103000722004162445MANAI YOUSSEF                         2024LP523400000LP REMBOURSEMENT DES FRAIS MEDICAUX          2024022900000000010                                      
1101170002024022901342178800000000000074325000106717001000000302388764STEG                          1490814908908100700923147FARHATI  BECHIR                       2024LP523401000LP REMBOURSEMENT DES FRAIS MEDICAUX          2024022900000000010                                      
1101170002024022901352178800000000000072050000106717001000000302388764STEG                          0321203212122010110984248BEN KHELIFA  Abd el Majid             2024LP523402000LP REMBOURSEMENT DES FRAIS MEDICAUX          2024022900000000010                                      
1101170002024022901362178800000000000035000000106717001000000302388764STEG                          0870508705000412002437531GORSANE  ABDELHAMID                   2024LP523403000LP REMBOURSEMENT DES FRAIS MEDICAUX          2024022900000000010                                      
1101170002024022901372178800000000000021023000106717001000000302388764STEG                          1400314003003100702199118MTIMET SADOK                          2024LP523404000LP REMBOURSEMENT DES FRAIS MEDICAUX          2024022900000000010                                      
1101170002024022901382178800000000000200500000106717001000000302388764STEG                          1747417474201401357200981TEKAYA AFEF                           2024LP523405000LP REMBOURSEMENT DES FRAIS MEDICAUX          2024022900000000010                                      
1101170002024022901392178800000000000079167000106717001000000302388764STEG                          1400314003003100702199118MTIMET SADOK                          2024LP523406000LP REMBOURSEMENT DES FRAIS MEDICAUX          2024022900000000010                                      
1101170002024022901402178800000000000185000000106717001000000302388764STEG                          0360503605014010122122792FRIGUI SLAHEDDINE                     2024LP523407000LP REMBOURSEMENT DES FRAIS MEDICAUX          2024022900000000010                                      
1101170002024022901412178800000000000034088000106717001000000302388764STEG                          1747417474201402405827920AMMAR LASSAAD                         2024LP523408000LP REMBOURSEMENT DES FRAIS MEDICAUX          2024022900000000010                                      
1101170002024022901422178800000000000061567000106717001000000302388764STEG                          0321203212122010110984248BEN KHELIFA  Abd el Majid             2024LP523409000LP REMBOURSEMENT DES FRAIS MEDICAUX          2024022900000000010                                      
1101170002024022901432178800000000000043000000106717001000000302388764STEG                          0560505605000012516800047KOCHATE KHEMAIS                       2024LP523410000LP REMBOURSEMENT DES FRAIS MEDICAUX          2024022900000000010                                      
1101170002024022901442178800000000000083158000106717001000000302388764STEG                          0550305503000034500858641CHOUCHENE BILEL                       2024LP523413000LP REMBOURSEMENT DES FRAIS MEDICAUX          2024022900000000010                                      
1101170002024022901452178800000000000026610000106717001000000302388764STEG                          1260512605000250117831787CHRAIET RACHED                        2024LP523414000LP REMBOURSEMENT DES FRAIS MEDICAUX          2024022900000000010                                      
1101170002024022901462178800000000000193829000106717001000000302388764STEG                          1747417474201401357200981TEKAYA AFEF                           2024LP523416000LP REMBOURSEMENT DES FRAIS MEDICAUX          2024022900000000010                                      
1101170002024022901472178800000000000072368000106717001000000302388764STEG                          1747417474201402413325438OUERGHEMI MOHAMED                     2024LP523418000LP REMBOURSEMENT DES FRAIS MEDICAUX          2024022900000000010                                      
1101170002024022901482178800000000000051267000106717001000000302388764STEG                          0720607206004110557335460TRABELSSI HOUCINE                     2024LP523419000LP REMBOURSEMENT DES FRAIS MEDICAUX          2024022900000000010                                      
1101170002024022901492178800000000000051805000106717001000000302388764STEG                          0400504005006404004052108BEY KHEMAIES                          2024LP523421000LP REMBOURSEMENT DES FRAIS MEDICAUX          2024022900000000010                                      
1101170002024022901502178800000000000071401000106717001000000302388764STEG                          1747417474201402404525016FARHAT FAYCAL                         2024LP523423000LP REMBOURSEMENT DES FRAIS MEDICAUX          2024022900000000010                                      
1101170002024022901512178800000000000072000000106717001000000302388764STEG                          0700707007002310551683391BEN MAMI MED LASSAAD                  2024LP523424000LP REMBOURSEMENT DES FRAIS MEDICAUX          2024022900000000010                                      
1101170002024022901522178800000000000157918000106717001000000302388764STEG                          0510505105000025500048962OUECHKRIA BECHER                      2024LP523426000LP REMBOURSEMENT DES FRAIS MEDICAUX          2024022900000000010                                      
1101170002024022901532178800000000000159707000106717001000000302388764STEG                          0310703107099010100061909OUEDDANI FARES                        2024LP523427000LP REMBOURSEMENT DES FRAIS MEDICAUX          2024022900000000010                                      
1101170002024022901542178800000000000026294000106717001000000302388764STEG                          0870808708000472000769575DERBAL  NACEUR                        2024LP523428000LP REMBOURSEMENT DES FRAIS MEDICAUX          2024022900000000010                                      
1101170002024022901552178800000000000016018000106717001000000302388764STEG                          1420714207450111000142712ZERMANI MOHSEN                        2024LP523429000LP REMBOURSEMENT DES FRAIS MEDICAUX          2024022900000000010                                      
1101170002024022901562178800000000000039683000106717001000000302388764STEG                          0510505105000025535672018MAHJOUB EL HAMRA                      2024LP523430000LP REMBOURSEMENT DES FRAIS MEDICAUX          2024022900000000010                                      
1101170002024022901572178800000000000246939000106717001000000302388764STEG                          1747417474201402408299868BAYOUDH RAOUF                         2024LP523431000LP REMBOURSEMENT DES FRAIS MEDICAUX          2024022900000000010                                      
1101170002024022901582178800000000000040970000106717001000000302388764STEG                          0510505105000025535672018MAHJOUB EL HAMRA                      2024LP523432000LP REMBOURSEMENT DES FRAIS MEDICAUX          2024022900000000010                                      
1101170002024022901592178800000000000129449000106717001000000302388764STEG                          1747417474201402413639815SASSI MOHAMED                         2024LP523433000LP REMBOURSEMENT DES FRAIS MEDICAUX          2024022900000000010                                      
1101170002024022901602178800000000000159197000106717001000000302388764STEG                          2002520025252220090232993EL OUNI NABIHA                        2024LP523434000LP REMBOURSEMENT DES FRAIS MEDICAUX          2024022900000000010                                      
1101170002024022901612178800000000000068054000106717001000000302388764STEG                          0510505105000025535672018MAHJOUB EL HAMRA                      2024LP523435000LP REMBOURSEMENT DES FRAIS MEDICAUX          2024022900000000010                                      
1101170002024022901622178800000000000090000000106717001000000302388764STEG                          1747417474201402407465668BEN BRIK ABDALLAH                     2024LP523436000LP REMBOURSEMENT DES FRAIS MEDICAUX          2024022900000000010                                      
1101170002024022901632178800000000000020000000106717001000000302388764STEG                          0170501705026111034341076BEN YACOUB LASSAAD                    2024LP523437000LP REMBOURSEMENT DES FRAIS MEDICAUX          2024022900000000010                                      
1101170002024022901642178800000000000153650000106717001000000302388764STEG                          1790117901000000318541638GATRAN  TAHAR                         2024LP523438000LP REMBOURSEMENT DES FRAIS MEDICAUX          2024022900000000010                                      
1101170002024022901652178800000000000053009000106717001000000302388764STEG                          0310603106072010100021109CHEBIL LOTFI                          2024LP523440000LP REMBOURSEMENT DES FRAIS MEDICAUX          2024022900000000010                                      
1101170002024022901662178800000000000048487000106717001000000302388764STEG                          1700117001000000002793594OUNI CHAMSEDDINE                      2024LP523441000LP REMBOURSEMENT DES FRAIS MEDICAUX          2024022900000000010                                      
1101170002024022901672178800000000000026699000106717001000000302388764STEG                          0430504305056404000304033BEN OTHMAN ABELKARIM                  2024LP523442000LP REMBOURSEMENT DES FRAIS MEDICAUX          2024022900000000010                                      
1101170002024022901682178800000000000100304000106717001000000302388764STEG                          1700117001000000002793594OUNI CHAMSEDDINE                      2024LP523443000LP REMBOURSEMENT DES FRAIS MEDICAUX          2024022900000000010                                      
1101170002024022901692178800000000000051835000106717001000000302388764STEG                          0703707037006010555926673EL AYACHI MOHAMED SLIM                2024LP523444000LP REMBOURSEMENT DES FRAIS MEDICAUX          2024022900000000010                                      
1101170002024022901702178800000000000021821000106717001000000302388764STEG                          0370503705026010110991792AMORRI LASSAAD                        2024LP523446000LP REMBOURSEMENT DES FRAIS MEDICAUX          2024022900000000010                                      
1101170002024022901712178800000000000005693000106717001000000302388764STEG                          1100111001002084600878816KHALED MOHAMED                        2024LP523447000LP REMBOURSEMENT DES FRAIS MEDICAUX          2024022900000000010                                      
1101170002024022901722178800000000000050324000106717001000000302388764STEG                          0703707037006010555926673EL AYACHI MOHAMED SLIM                2024LP523449000LP REMBOURSEMENT DES FRAIS MEDICAUX          2024022900000000010                                      
1101170002024022901732178800000000000120104000106717001000000302388764STEG                          1747417474201402408455650EL MELIENE KHALIFA                    2024LP523450000LP REMBOURSEMENT DES FRAIS MEDICAUX          2024022900000000010                                      
1101170002024022901742178800000000000071000000106717001000000302388764STEG                          1100111001002084600878816KHALED MOHAMED                        2024LP523451000LP REMBOURSEMENT DES FRAIS MEDICAUX          2024022900000000010                                      
1101170002024022901752178800000000000112500000106717001000000302388764STEG                          1747417474201402407465668BEN BRIK ABDALLAH                     2024LP523452000LP REMBOURSEMENT DES FRAIS MEDICAUX          2024022900000000010                                      
1101170002024022901762178800000000000038002000106717001000000302388764STEG                          1770617706000000299927577CHABAA MUSTAPHA                       2024LP523453000LP REMBOURSEMENT DES FRAIS MEDICAUX          2024022900000000010                                      
1101170002024022901772178800000000000081600000106717001000000302388764STEG                          1747417474201402408103249HAMMADI CHAHID                        2024LP523454000LP REMBOURSEMENT DES FRAIS MEDICAUX          2024022900000000010                                      
1101170002024022901782178800000000000094540000106717001000000302388764STEG                          0810908109000034002940281ALLOUS RAFIK                          2024LP523455000LP REMBOURSEMENT DES FRAIS MEDICAUX          2024022900000000010                                      
1101170002024022901792178800000000000114825000106717001000000302388764STEG                          1747417474201402408196660GANNOUNI SLIM                         2024LP523457000LP REMBOURSEMENT DES FRAIS MEDICAUX          2024022900000000010                                      
1101170002024022901802178800000000000033204000106717001000000302388764STEG                          0700707007002310552612263BEN DHIEB JAMEL                       2024LP523458000LP REMBOURSEMENT DES FRAIS MEDICAUX          2024022900000000010                                      
1101170002024022901812178800000000000186375000106717001000000302388764STEG                          1770617706000000007068572AGUERBI MORAD                         2024LP523459000LP REMBOURSEMENT DES FRAIS MEDICAUX          2024022900000000010                                      
1101170002024022901822178800000000000053823000106717001000000302388764STEG                          0805408054020074006246738SAD  MOHAMED                         2024LP523460000LP REMBOURSEMENT DES FRAIS MEDICAUX          2024022900000000010                                      
1101170002024022901832178800000000000121575000106717001000000302388764STEG                          1747417474201402407465668BEN BRIK ABDALLAH                     2024LP523462000LP REMBOURSEMENT DES FRAIS MEDICAUX          2024022900000000010                                      
1101170002024022901842178800000000000100048000106717001000000302388764STEG                          0320403204091010100327507EL MEDDEB BOURAOUI                    2024LP523463000LP REMBOURSEMENT DES FRAIS MEDICAUX          2024022900000000010                                      
1101170002024022901852178800000000000072000000106717001000000302388764STEG                          0700607006001912167023583JLASSI  HASSOUNA                      2024LP523465000LP REMBOURSEMENT DES FRAIS MEDICAUX          2024022900000000010                                      
1101170002024022901862178800000000000219298000106717001000000302388764STEG                          0312203122118010100043794EL BADRI MOHSEN                       2024LP523466000LP REMBOURSEMENT DES FRAIS MEDICAUX          2024022900000000010                                      
1101170002024022901872178800000000000020723000106717001000000302388764STEG                          1747417474201402406609061LABAOUI ZINE EL ABIDINE               2024LP523467000LP REMBOURSEMENT DES FRAIS MEDICAUX          2024022900000000010                                      
1101170002024022901882178800000000000016950000106717001000000302388764STEG                          1010410104059108112078874JDIR HAFEDH                           2024LP523468000LP REMBOURSEMENT DES FRAIS MEDICAUX          2024022900000000010                                      
1101170002024022901892178800000000000297683000106717001000000302388764STEG                          1747417474201402408605612FERCHICHI HAMZA                       2024LP523469000LP REMBOURSEMENT DES FRAIS MEDICAUX          2024022900000000010                                      
1101170002024022901902178800000000000024622000106717001000000302388764STEG                          1747417474201402406742921BEN HAMZA   BRAHIM                    2024LP523470000LP REMBOURSEMENT DES FRAIS MEDICAUX          2024022900000000010                                      
1101170002024022901912178800000000000060422000106717001000000302388764STEG                          1020310203066113438778823TRABELSI MUSTAPHA                     2024LP523471000LP REMBOURSEMENT DES FRAIS MEDICAUX          2024022900000000010                                      
1101170002024022901922178800000000000066604000106717001000000302388764STEG                          1020310203066113438778823TRABELSI MUSTAPHA                     2024LP523472000LP REMBOURSEMENT DES FRAIS MEDICAUX          2024022900000000010                                      
1101170002024022901932178800000000000014000000106717001000000302388764STEG                          1020310203066113438778823TRABELSI MUSTAPHA                     2024LP523473000LP REMBOURSEMENT DES FRAIS MEDICAUX          2024022900000000010                                      
1101170002024022901942178800000000000038879000106717001000000302388764STEG                          1400014000000100709185246RIAHI  ABDELBAKI                      2024LP523474000LP REMBOURSEMENT DES FRAIS MEDICAUX          2024022900000000010                                      
1101170002024022901952178800000000000130172000106717001000000302388764STEG                          0800008000000602017849130BOUBAKER  MOHAMED MONCEF              2024LP523475000LP REMBOURSEMENT DES FRAIS MEDICAUX          2024022900000000010                                      
1101170002024022901962178800000000000151800000106717001000000302388764STEG                          1200012000000100138297356OMRANE  HASSEN                        2024LP523476000LP REMBOURSEMENT DES FRAIS MEDICAUX          2024022900000000010                                      
1101170002024022901972178800000000000200000000106717001000000302388764STEG                          1747417474201402413367633MRIZEK OUSSAMA                        2024LP523477000LP REMBOURSEMENT DES FRAIS MEDICAUX          2024022900000000010                                      
1101170002024022901982178800000000000014000000106717001000000302388764STEG                          1020310203066113438778823TRABELSI MUSTAPHA                     2024LP523478000LP REMBOURSEMENT DES FRAIS MEDICAUX          2024022900000000010                                      
1101170002024022901992178800000000000119036000106717001000000302388764STEG                          1747417474201402401365435HLIMI ADEL                            2024LP523484000LP REMBOURSEMENT DES FRAIS MEDICAUX          2024022900000000010                                      
1101170002024022902002178800000000000095505000106717001000000302388764STEG                          0360103601064010110749647HRIZI  OUARDI                         2024LP523485000LP REMBOURSEMENT DES FRAIS MEDICAUX          2024022900000000010                                      
1101170002024022902012178800000000000107757000106717001000000302388764STEG                          1770617706000000272052881ZAGDOUD AMOR                          2024LP523486000LP REMBOURSEMENT DES FRAIS MEDICAUX          2024022900000000010                                      
1101170002024022902022178800000000000062266000106717001000000302388764STEG                          0520905209000065582092215MAKHLOUF CHAIMA                       2024LP523487000LP REMBOURSEMENT DES FRAIS MEDICAUX          2024022900000000010                                      
1101170002024022902032178800000000000065893000106717001000000302388764STEG                          1700117001000000064350279OUERTANI MOULDI                       2024LP523488000LP REMBOURSEMENT DES FRAIS MEDICAUX          2024022900000000010                                      
1101170002024022902042178800000000000072000000106717001000000302388764STEG                          0520105201000008536260752SONIA DABECH                          2024LP523489000LP REMBOURSEMENT DES FRAIS MEDICAUX          2024022900000000010                                      
1101170002024022902052178800000000000035000000106717001000000302388764STEG                          1747417474201402403480908BEL GAIED CHOKRI                      2024LP523490000LP REMBOURSEMENT DES FRAIS MEDICAUX          2024022900000000010                                      
1101170002024022902062178800000000000043854000106717001000000302388764STEG                          1770617706000000272052881ZAGDOUD AMOR                          2024LP523491000LP REMBOURSEMENT DES FRAIS MEDICAUX          2024022900000000010                                      
1101170002024022902072178800000000000061236000106717001000000302388764STEG                          1010710107043218241578850DEBBABI MONCEF                        2024LP523492000LP REMBOURSEMENT DES FRAIS MEDICAUX          2024022900000000010                                      
1101170002024022902082178800000000000046800000106717001000000302388764STEG                          1770617706000000272052881ZAGDOUD AMOR                          2024LP523493000LP REMBOURSEMENT DES FRAIS MEDICAUX          2024022900000000010                                      
1101170002024022902092178800000000000080000000106717001000000302388764STEG                          1750317503000000200686506BEN ROMDHANE AYMEN                    2024LP523495000LP REMBOURSEMENT DES FRAIS MEDICAUX          2024022900000000010                                      
1101170002024022902102178800000000000069950000106717001000000302388764STEG                          1747417474201402412186173TABBAL JAMEL                          2024LP523497000LP REMBOURSEMENT DES FRAIS MEDICAUX          2024022900000000010                                      
1101170002024022902112178800000000000035000000106717001000000302388764STEG                          0400104001007404007332487BEN BELGACEM EL ABED                  2024LP523499000LP REMBOURSEMENT DES FRAIS MEDICAUX          2024022900000000010                                      
1101170002024022902122178800000000000070415000106717001000000302388764STEG                          0500005000000001549631203YACOUBI  ALI                          2024LP523500000LP REMBOURSEMENT DES FRAIS MEDICAUX          2024022900000000010                                      
1101170002024022902132178800000000000013486000106717001000000302388764STEG                          0410004100009404003882201BRINIS KARIM                          2024LP523502000LP REMBOURSEMENT DES FRAIS MEDICAUX          2024022900000000010                                      
1101170002024022902142178800000000000071207000106717001000000302388764STEG                          1747417474201402407092897MEJRI KHALED                          2024LP523505000LP REMBOURSEMENT DES FRAIS MEDICAUX          2024022900000000010                                      
1101170002024022902152178800000000000104484000106717001000000302388764STEG                          0500005000000001507286532BEN CHEIKH  ESSIA                     2024LP523506000LP REMBOURSEMENT DES FRAIS MEDICAUX          2024022900000000010                                      
1101170002024022902162178800000000000056201000106717001000000302388764STEG                          0811508115028042000799295BEN KHALIFA EL MAHJOUB                2024LP523507000LP REMBOURSEMENT DES FRAIS MEDICAUX          2024022900000000010                                      
1101170002024022902172178800000000000042362000106717001000000302388764STEG                          1747417474201402407092897MEJRI KHALED                          2024LP523508000LP REMBOURSEMENT DES FRAIS MEDICAUX          2024022900000000010                                      
1101170002024022902182178800000000000072075000106717001000000302388764STEG                          0510305103000031537125255TRABELSI TAOUFIK                      2024LP523509000LP REMBOURSEMENT DES FRAIS MEDICAUX          2024022900000000010                                      
1101170002024022902192178800000000000019438000106717001000000302388764STEG                          1747417474201402411704277SGHAIER CHOHDI                        2024LP523511000LP REMBOURSEMENT DES FRAIS MEDICAUX          2024022900000000010                                      
1101170002024022902202178800000000000065352000106717001000000302388764STEG                          1747417474201404191465224OUESLATI ANIS                         2024LP523515000LP REMBOURSEMENT DES FRAIS MEDICAUX          2024022900000000010                                      
1101170002024022902212178800000000000014700000106717001000000302388764STEG                          0490604906077404000708267LAHOUAR SABRI                         2024LP523516000LP REMBOURSEMENT DES FRAIS MEDICAUX          2024022900000000010                                      
1101170002024022902222178800000000000255257000106717001000000302388764STEG                          0490604906077404000708267LAHOUAR SABRI                         2024LP523518000LP REMBOURSEMENT DES FRAIS MEDICAUX          2024022900000000010                                      
1101170002024022902232178800000000000055719000106717001000000302388764STEG                          0100101001080111090227894FERCHICHI KHALIL                      2024LP523520000LP REMBOURSEMENT DES FRAIS MEDICAUX          2024022900000000010                                      
1101170002024022902242178800000000000058400000106717001000000302388764STEG                          2500125001000000001654975MNAOUAR  ABIBI                        2024LP523521000LP REMBOURSEMENT DES FRAIS MEDICAUX          2024022900000000010                                      
1101170002024022902252178800000000000107625000106717001000000302388764STEG                          2500125001000000001654975MNAOUAR  ABIBI                        2024LP523522000LP REMBOURSEMENT DES FRAIS MEDICAUX          2024022900000000010                                      
1101170002024022902262178800000000000029502000106717001000000302388764STEG                          0510305103000031520908019KHEDDER HAYET                         2024LP523525000LP REMBOURSEMENT DES FRAIS MEDICAUX          2024022900000000010                                      
1101170002024022902272178800000000000090000000106717001000000302388764STEG                          1750317503000000124724545SLIM HAMOUDA                          2024LP523531000LP REMBOURSEMENT DES FRAIS MEDICAUX          2024022900000000010                                      
1101170002024022902282178800000000000114200000106717001000000302388764STEG                          1000410004034173453878889BEN ABDALLAH  MABROUK                 2024LP523532000LP REMBOURSEMENT DES FRAIS MEDICAUX          2024022900000000010                                      
1101170002024022902292178800000000000048450000106717001000000302388764STEG                          1000410004034173453878889BEN ABDALLAH  MABROUK                 2024LP523533000LP REMBOURSEMENT DES FRAIS MEDICAUX          2024022900000000010                                      
1101170002024022902302178800000000000108782000106717001000000302388764STEG                          0360503605014010122122792FRIGUI SLAHEDDINE                     2024LP523536000LP REMBOURSEMENT DES FRAIS MEDICAUX          2024022900000000010                                      
1101170002024022902312178800000000000138862000106717001000000302388764STEG                          1747417474201402404712420TABKA KAMEL                           2024LP523537000LP REMBOURSEMENT DES FRAIS MEDICAUX          2024022900000000010                                      
1101170002024022902322178800000000000035000000106717001000000302388764STEG                          1000610006035181298378844GHITH   MEHRZIA                       2024LP523538000LP REMBOURSEMENT DES FRAIS MEDICAUX          2024022900000000010                                      
1101170002024022902332178800000000000056010000106717001000000302388764STEG                          1747417474201402407500006JEBALI NOUREDDINE                     2024LP523539000LP REMBOURSEMENT DES FRAIS MEDICAUX          2024022900000000010                                      
1101170002024022902342178800000000000054402000106717001000000302388764STEG                          2505825058000000081367689NEJI HICHEM                           2024LP523541000LP REMBOURSEMENT DES FRAIS MEDICAUX          2024022900000000010                                      
1101170002024022902352178800000000000068700000106717001000000302388764STEG                          1750317503000000209059934BELKHIRIA LASSAAD                     2024LP523542000LP REMBOURSEMENT DES FRAIS MEDICAUX          2024022900000000010                                      
1101170002024022902362178800000000000048397000106717001000000302388764STEG                          0550405504000037518664008FRIGUI HABIB                          2024LP523543000LP REMBOURSEMENT DES FRAIS MEDICAUX          2024022900000000010                                      
1101170002024022902372178800000000000125176000106717001000000302388764STEG                          1747417474201402413065672GANTARA HOUSSEM                       2024LP523544000LP REMBOURSEMENT DES FRAIS MEDICAUX          2024022900000000010                                      
1101170002024022902382178800000000000021453000106717001000000302388764STEG                          1747417474201402407500006JEBALI NOUREDDINE                     2024LP523546000LP REMBOURSEMENT DES FRAIS MEDICAUX          2024022900000000010                                      
1101170002024022902392178800000000000066892000106717001000000302388764STEG                          1747417474201402409369875HADJ AMMAR HAMZA                      2024LP523547000LP REMBOURSEMENT DES FRAIS MEDICAUX          2024022900000000010                                      
1101170002024022902402178800000000000250000000106717001000000302388764STEG                          1402414024024100700045275DOUISSA TAREK                         2024LP523550000LP REMBOURSEMENT DES FRAIS MEDICAUX          2024022900000000010                                      
1101170002024022902412178800000000000035000000106717001000000302388764STEG                          1050210502018093359178881BELLAZREK  MOHAMED                    2024LP523552000LP REMBOURSEMENT DES FRAIS MEDICAUX          2024022900000000010                                      
1101170002024022902422178800000000000237603000106717001000000302388764STEG                          1747417474201402407500006JEBALI NOUREDDINE                     2024LP523556000LP REMBOURSEMENT DES FRAIS MEDICAUX          2024022900000000010                                      
1101170002024022902432178800000000000058305000106717001000000302388764STEG                          1490014900900100715510476KHALFET AMOR                          2024LP523557000LP REMBOURSEMENT DES FRAIS MEDICAUX          2024022900000000010                                      
1101170002024022902442178800000000000038535000106717001000000302388764STEG                          0503005030000082501936758AYARI MAHDI                           2024LP523558000LP REMBOURSEMENT DES FRAIS MEDICAUX          2024022900000000010                                      
1101170002024022902452178800000000000049344000106717001000000302388764STEG                          1747417474201402411850359THAMEUR KOUKI                         2024LP523559000LP REMBOURSEMENT DES FRAIS MEDICAUX          2024022900000000010                                      
1101170002024022902462178800000000000157984000106717001000000302388764STEG                          1460514605605100704127130MZOUGHI HEDI                          2024LP523560000LP REMBOURSEMENT DES FRAIS MEDICAUX          2024022900000000010                                      
1101170002024022902472178800000000000073357000106717001000000302388764STEG                          2500625006000000032265816BEN CHEIKH FREDJ NEJIA                2024LP523561000LP REMBOURSEMENT DES FRAIS MEDICAUX          2024022900000000010                                      
1101170002024022902482178800000000000162428000106717001000000302388764STEG                          1490014900900100715510476KHALFET AMOR                          2024LP523562000LP REMBOURSEMENT DES FRAIS MEDICAUX          2024022900000000010                                      
1101170002024022902492178800000000000082875000106717001000000302388764STEG                          0540005400000004518032811ARFAOUI LASSAAD                       2024LP523563000LP REMBOURSEMENT DES FRAIS MEDICAUX          2024022900000000010                                      
1101170002024022902502178800000000000034950000106717001000000302388764STEG                          0440004400031404804357676HAMMAMI HOUCINE                       2024LP523565000LP REMBOURSEMENT DES FRAIS MEDICAUX          2024022900000000010                                      
1101170002024022902512178800000000000023225000106717001000000302388764STEG                          1747417474201402407177772KERKENI ANIS                          2024LP523566000LP REMBOURSEMENT DES FRAIS MEDICAUX          2024022900000000010                                      
1101170002024022902522178800000000000054000000106717001000000302388764STEG                          0740007400002710557130569REBAI SAMI                            2024LP523568000LP REMBOURSEMENT DES FRAIS MEDICAUX          2024022900000000010                                      
1101170002024022902532178800000000000200568000106717001000000302388764STEG                          1050210502018093571378894MABROUK TAHER                         2024LP523569000LP REMBOURSEMENT DES FRAIS MEDICAUX          2024022900000000010                                      
1101170002024022902542178800000000000035000000106717001000000302388764STEG                          1240012400000000219318884KHALFI ABDERRAZAK                     2024LP523571000LP REMBOURSEMENT DES FRAIS MEDICAUX          2024022900000000010                                      
1101170002024022902552178800000000000034311000106717001000000302388764STEG                          1747417474201402406369180KHEMIRA RAFIK                         2024LP523572000LP REMBOURSEMENT DES FRAIS MEDICAUX          2024022900000000010                                      
1101170002024022902562178800000000000150825000106717001000000302388764STEG                          1040010400008045260078860SELLOUHI LEILA                        2024LP523573000LP REMBOURSEMENT DES FRAIS MEDICAUX          2024022900000000010                                      
1101170002024022902572178800000000000142950000106717001000000302388764STEG                          1747417474201402411031097NASRI JILANI                          2024LP523574000LP REMBOURSEMENT DES FRAIS MEDICAUX          2024022900000000010                                      
1101170002024022902582178800000000000059170000106717001000000302388764STEG                          1747417474201402408416850AGUERBAOUI HAYTHEM                    2024LP523575000LP REMBOURSEMENT DES FRAIS MEDICAUX          2024022900000000010                                      
1101170002024022902592178800000000000038420000106717001000000302388764STEG                          1747417474201402414062250CHEBBI AYMEN                          2024LP523576000LP REMBOURSEMENT DES FRAIS MEDICAUX          2024022900000000010                                      
1101170002024022902602178800000000000003000000106717001000000302388764STEG                          1747417474201402412519368MERDASSI MAHRANE                      2024LP523578000LP REMBOURSEMENT DES FRAIS MEDICAUX          2024022900000000010                                      
1101170002024022902612178800000000000025000000106717001000000302388764STEG                          1040010400008051479078854AYARY MILED                           2024LP523579000LP REMBOURSEMENT DES FRAIS MEDICAUX          2024022900000000010                                      
1101170002024022902622178800000000000106311000106717001000000302388764STEG                          0740007400002710581759742ZERMENI BILEL                         2024LP523580000LP REMBOURSEMENT DES FRAIS MEDICAUX          2024022900000000010                                      
1101170002024022902632178800000000000036638000106717001000000302388764STEG                          1747417474201402408416850AGUERBAOUI HAYTHEM                    2024LP523581000LP REMBOURSEMENT DES FRAIS MEDICAUX          2024022900000000010                                      
1101170002024022902642178800000000000029276000106717001000000302388764STEG                          1747417474201402412801541BAHRINI MOHAMED                       2024LP523582000LP REMBOURSEMENT DES FRAIS MEDICAUX          2024022900000000010                                      
1101170002024022902652178800000000000016950000106717001000000302388764STEG                          0320103201037010110755611HAFEDH BARROUKA                       2024LP523584000LP REMBOURSEMENT DES FRAIS MEDICAUX          2024022900000000010                                      
1101170002024022902662178800000000000244254000106717001000000302388764STEG                          1790117901000000291137586SAKRAFI SIRINE                        2024LP523585000LP REMBOURSEMENT DES FRAIS MEDICAUX          2024022900000000010                                      
1101170002024022902672178800000000000235000000106717001000000302388764STEG                          1747417474201402407500006JEBALI NOUREDDINE                     2024LP523586000LP REMBOURSEMENT DES FRAIS MEDICAUX          2024022900000000010                                      
1101170002024022902682178800000000000080415000106717001000000302388764STEG                          0550505505000044500072802BEN OTHMANE FAKHREDDINE               2024LP523589000LP REMBOURSEMENT DES FRAIS MEDICAUX          2024022900000000010                                      
1101170002024022902692178800000000000078048000106717001000000302388764STEG                          1480114801801100702856337MABROUKI MABROUK                      2024LP523592000LP REMBOURSEMENT DES FRAIS MEDICAUX          2024022900000000010                                      
1101170002024022902702178800000000000099000000106717001000000302388764STEG                          1747417474201402410693828SOLTANI RAMI                          2024LP523593000LP REMBOURSEMENT DES FRAIS MEDICAUX          2024022900000000010                                      
1101170002024022902712178800000000000030450000106717001000000302388764STEG                          1747417474201402414548026BELGACEM KILANI                       2024LP523595000LP REMBOURSEMENT DES FRAIS MEDICAUX          2024022900000000010                                      
1101170002024022902722178800000000000084191000106717001000000302388764STEG                          0130501305044111059692636MASMOUDI MORCHED                      2024LP523598000LP REMBOURSEMENT DES FRAIS MEDICAUX          2024022900000000010                                      
1101170002024022902732178800000000000225000000106717001000000302388764STEG                          1460514605605100704127130MZOUGHI HEDI                          2024LP523603000LP REMBOURSEMENT DES FRAIS MEDICAUX          2024022900000000010                                      
1101170002024022902742178800000000000056931000106717001000000302388764STEG                          1747417474201402408172701ANIS MBARKI                           2024LP523605000LP REMBOURSEMENT DES FRAIS MEDICAUX          2024022900000000010                                      
1101170002024022902752178800000000000035000000106717001000000302388764STEG                          1480714807807100714407303AROUR SALMA                           2024LP523608000LP REMBOURSEMENT DES FRAIS MEDICAUX          2024022900000000010                                      
1101170002024022902762178800000000000035172000106717001000000302388764STEG                          1480714807807100714407303AROUR SALMA                           2024LP523609000LP REMBOURSEMENT DES FRAIS MEDICAUX          2024022900000000010                                      
