DEBUT FICHIER MUT 03/01/2023
D10104059109504278843MUTUELLELELECTRICITEGAZ  000000000651412VOAU
B17474201402414171181BRIKI ELMEKKI            000000000064590VOAU
B17474201402414171181BRIKI ELMEKKI            000000000081270VOAU
B17474201402414171181BRIKI ELMEKKI            000000000064590VOAU
B17474201402405959064BEN ABDERRAHMEN SAMIR    000000000023670VOAU
B17474201402411980824LOUATI NOUREDDINE        000000000053426VOAU
B17474201402411980824LOUATI NOUREDDINE        000000000054630VOAU
B17474201402411980824LOUATI NOUREDDINE        000000000053426VOAU
B17474201402405231467EL ECHI AHMED            000000000112870VOAU
B17474201402403875019EPOUSE JAIDI CHEDIA GMIR 000000000027508VOAU
B17474201402405401314LETAIEF YOUSSEF          000000000115432VOAU
FIN FICHIER MUT 03/01/2023
