DEBUT FICHIER MUT 19/01/2023
D10104059109504278843MUTUELLELELECTRICITEGAZ  000000000312561VOAU
B17474201402406048110CHETOUI ABDELKADER       000000000025000VOAU
B17474201402406373351SLAMA SIHEM              000000000048749VOAU
B17474201402404621725JRAD DORSAF              000000000081076VOAU
B17474201402404850257AKROUT HABIB             000000000118416VOAU
B17474201402404498050LAOUINI IMED             000000000039320VOAU
FIN FICHIER MUT 19/01/2023