110104   20240604000111788000000000170387760000000125                                                                                                                                                                                                                                   
110104   2024060402178800000000012178800000000000023900000129704012086006134058494STEG                          1070110701004021780678814JAOUADIBAKARI                         2024LP548958000LP REMBOURSEMENT DES FRAIS MEDICAUX          2024060400000000010                                      
110104   2024060402178800000000022178800000000000118700000129704012086006134058494STEG                          1747417474201402409547967KHECHAREMMOEZ                         2024LP548960000LP REMBOURSEMENT DES FRAIS MEDICAUX          2024060400000000010                                      
110104   2024060402178800000000032178800000000000138000000129704012086006134058494STEG                          1747417474201402409321957TRABELSIIBRAHIM                       2024LP548962000LP REMBOURSEMENT DES FRAIS MEDICAUX          2024060400000000010                                      
110104   2024060402178800000000042178800000000000021100000129704012086006134058494STEG                          0408504085170003729207512ZARAITAKIEDDINE                       2024LP548964000LP REMBOURSEMENT DES FRAIS MEDICAUX          2024060400000000010                                      
110104   2024060402178800000000052178800000000000045000000129704012086006134058494STEG                          0408504085170003729207512ZARAITAKIEDDINE                       2024LP548965000LP REMBOURSEMENT DES FRAIS MEDICAUX          2024060400000000010                                      
110104   2024060402178800000000062178800000000000050000000129704012086006134058494STEG                          1747417474201402412559914OUESLATIMONTASSAR                     2024LP548966000LP REMBOURSEMENT DES FRAIS MEDICAUX          2024060400000000010                                      
110104   2024060402178800000000072178800000000000750000000129704012086006134058494STEG                          1747417474201402404001216CHOUCHENESAMIR                        2024LP548972000LP REMBOURSEMENT DES FRAIS MEDICAUX          2024060400000000010                                      
110104   2024060402178800000000082178800000000000152584000129704012086006134058494STEG                          1490014900900100704888103BEYAMOHAMED                           2024LP548980000LP REMBOURSEMENT DES FRAIS MEDICAUX          2024060400000000010                                      
110104   2024060402178800000000092178800000000000150769000129704012086006134058494STEG                          1747417474201402404778574SMEICHEDLY                            2024LP548981000LP REMBOURSEMENT DES FRAIS MEDICAUX          2024060400000000010                                      
110104   2024060402178800000000102178800000000000176100000129704012086006134058494STEG                          1747417474201402408954812MESBAHINAJIA                          2024LP548982000LP REMBOURSEMENT DES FRAIS MEDICAUX          2024060400000000010                                      
110104   2024060402178800000000112178800000000000022208000129704012086006134058494STEG                          0300503005049010100379302KHELILNEJIB                           2024LP548983000LP REMBOURSEMENT DES FRAIS MEDICAUX          2024060400000000010                                      
110104   2024060402178800000000122178800000000000239453000129704012086006134058494STEG                          1747417474201401354003085ELKORDIBESMA                          2024LP548984000LP REMBOURSEMENT DES FRAIS MEDICAUX          2024060400000000010                                      
110104   2024060402178800000000132178800000000000306064000129704012086006134058494STEG                          1747417474201402414941749LABIDIKAMEL                           2024LP548985000LP REMBOURSEMENT DES FRAIS MEDICAUX          2024060400000000010                                      
110104   2024060402178800000000142178800000000000271021000129704012086006134058494STEG                          1070610706068106447778878NASRACHRAF                            2024LP548988000LP REMBOURSEMENT DES FRAIS MEDICAUX          2024060400000000010                                      
110104   2024060402178800000000152178800000000000102641000129704012086006134058494STEG                          0800908009000682013223664CHAKROUNMONGI                         2024LP548993000LP REMBOURSEMENT DES FRAIS MEDICAUX          2024060400000000010                                      
110104   2024060402178800000000162178800000000000174435000129704012086006134058494STEG                          1747417474201402414941749LABIDIKAMEL                           2024LP548995000LP REMBOURSEMENT DES FRAIS MEDICAUX          2024060400000000010                                      
110104   2024060402178800000000172178800000000000117600000129704012086006134058494STEG                          0370403704084010100354827DJEBALIMOHAMEDALI                     2024LP548997000LP REMBOURSEMENT DES FRAIS MEDICAUX          2024060400000000010                                      
110104   2024060402178800000000182178800000000000132455000129704012086006134058494STEG                          1753517535940663205529447BLIBECHMOHAMED                        2024LP548998000LP REMBOURSEMENT DES FRAIS MEDICAUX          2024060400000000010                                      
110104   2024060402178800000000192178800000000000029500000129704012086006134058494STEG                          1747417474201402412904749LETAIEFGHAZI                          2024LP549011000LP REMBOURSEMENT DES FRAIS MEDICAUX          2024060400000000010                                      
110104   2024060402178800000000202178800000000000074755000129704012086006134058494STEG                          1720617206000000095510549RIAHIALI                              2024LP549012000LP REMBOURSEMENT DES FRAIS MEDICAUX          2024060400000000010                                      
110104   2024060402178800000000212178800000000000068806000129704012086006134058494STEG                          1204812048000000227272719GABSIBECHIR                           2024LP549018000LP REMBOURSEMENT DES FRAIS MEDICAUX          2024060400000000010                                      
110104   2024060402178800000000222178800000000000068203000129704012086006134058494STEG                          1204812048000000227272719GABSIBECHIR                           2024LP549020000LP REMBOURSEMENT DES FRAIS MEDICAUX          2024060400000000010                                      
110104   2024060402178800000000232178800000000000250000000129704012086006134058494STEG                          0350503505058010100335109MASSAOUDFAROUK                        2024LP549027000LP REMBOURSEMENT DES FRAIS MEDICAUX          2024060400000000010                                      
110104   2024060402178800000000242178800000000000202250000129704012086006134058494STEG                          0108001080112111023305252SAYAHMONJI                            2024LP549031000LP REMBOURSEMENT DES FRAIS MEDICAUX          2024060400000000010                                      
110104   2024060402178800000000252178800000000000071744000129704012086006134058494STEG                          1770117701000000311213170BENHASSENALI                          2024LP549035000LP REMBOURSEMENT DES FRAIS MEDICAUX          2024060400000000010                                      
110104   2024060402178800000000262178800000000000253951000129704012086006134058494STEG                          1747417474201402413550769JAIDISALAHEDDINE                      2024LP549054000LP REMBOURSEMENT DES FRAIS MEDICAUX          2024060400000000010                                      
110104   2024060402178800000000272178800000000000081500000129704012086006134058494STEG                          0530905309000062501555313BELGDIMNACEUR                         2024LP549064000LP REMBOURSEMENT DES FRAIS MEDICAUX          2024060400000000010                                      
110104   2024060402178800000000282178800000000000024800000129704012086006134058494STEG                          0540205402000020503939241TRABELSISALLEM                        2024LP549073000LP REMBOURSEMENT DES FRAIS MEDICAUX          2024060400000000010                                      
110104   2024060402178800000000292178800000000000046993000129704012086006134058494STEG                          2504025040000000012621883AOUIDARIADH                           2024LP549081000LP REMBOURSEMENT DES FRAIS MEDICAUX          2024060400000000010                                      
110104   2024060402178800000000302178800000000000096557000129704012086006134058494STEG                          0410904109064003298181368BOUSSADAABDELKRIM                     2024LP549093000LP REMBOURSEMENT DES FRAIS MEDICAUX          2024060400000000010                                      
110104   2024060402178800000000312178800000000000250000000129704012086006134058494STEG                          1747417474201402404696997ACHOURALI                             2024LP549095000LP REMBOURSEMENT DES FRAIS MEDICAUX          2024060400000000010                                      
110104   2024060402178800000000322178800000000000080000000129704012086006134058494STEG                          1747417474201402412969060BOUGATTAFHOUCINE                      2024LP549096000LP REMBOURSEMENT DES FRAIS MEDICAUX          2024060400000000010                                      
110104   2024060402178800000000332178800000000000095838000129704012086006134058494STEG                          1747417474201402412973231ELFAHEMABDALLAH                       2024LP549103000LP REMBOURSEMENT DES FRAIS MEDICAUX          2024060400000000010                                      
110104   2024060402178800000000342178800000000000065333000129704012086006134058494STEG                          0403104031117404004973872LARGUECHEABDELMOULA                   2024LP549108000LP REMBOURSEMENT DES FRAIS MEDICAUX          2024060400000000010                                      
110104   2024060402178800000000352178800000000000254396000129704012086006134058494STEG                          0370003700019010110679542JAZIRINAJIB                           2024LP549109000LP REMBOURSEMENT DES FRAIS MEDICAUX          2024060400000000010                                      
110104   2024060402178800000000362178800000000000205430000129704012086006134058494STEG                          0505305053000121500168318BELANESRIADH                          2024LP549111000LP REMBOURSEMENT DES FRAIS MEDICAUX          2024060400000000010                                      
110104   2024060402178800000000372178800000000000061245000129704012086006134058494STEG                          1290012900000710100650071CHANDOULNACEUR                        2024LP549120000LP REMBOURSEMENT DES FRAIS MEDICAUX          2024060400000000010                                      
110104   2024060402178800000000382178800000000000030000000129704012086006134058494STEG                          0100101001080111040848783OURABIMOHSEN                          2024LP549131000LP REMBOURSEMENT DES FRAIS MEDICAUX          2024060400000000010                                      
110104   2024060402178800000000392178800000000000030000000129704012086006134058494STEG                          0100101001080111040848783OURABIMOHSEN                          2024LP549132000LP REMBOURSEMENT DES FRAIS MEDICAUX          2024060400000000010                                      
110104   2024060402178800000000402178800000000000270958000129704012086006134058494STEG                          1747417474201402407844259BOUSSANDELRIDHA                       2024LP549153000LP REMBOURSEMENT DES FRAIS MEDICAUX          2024060400000000010                                      
110104   2024060402178800000000412178800000000000151855000129704012086006134058494STEG                          1747417474201402407844259BOUSSANDELRIDHA                       2024LP549156000LP REMBOURSEMENT DES FRAIS MEDICAUX          2024060400000000010                                      
110104   2024060402178800000000422178800000000000172500000129704012086006134058494STEG                          1700117001000000166009480MANAIZOHAIR                           2024LP549159000LP REMBOURSEMENT DES FRAIS MEDICAUX          2024060400000000010                                      
110104   2024060402178800000000432178800000000000263431000129704012086006134058494STEG                          1400014000000100741012304AOUAYKHALED                           2024LP549161000LP REMBOURSEMENT DES FRAIS MEDICAUX          2024060400000000010                                      
110104   2024060402178800000000442178800000000000050000000129704012086006134058494STEG                          1747417474201402412845288BENHASSINEBILEL                       2024LP549168000LP REMBOURSEMENT DES FRAIS MEDICAUX          2024060400000000010                                      
110104   2024060402178800000000452178800000000000200000000129704012086006134058494STEG                          0810708107000772023149770ZAYANIALEYA                           2024LP549172000LP REMBOURSEMENT DES FRAIS MEDICAUX          2024060400000000010                                      
110104   2024060402178800000000462178800000000000245340000129704012086006134058494STEG                          1100211002002580401378885LAABIDISALAH                          2024LP549174000LP REMBOURSEMENT DES FRAIS MEDICAUX          2024060400000000010                                      
110104   2024060402178800000000472178800000000000270000000129704012086006134058494STEG                          1753517535940662934591472KCHAREMKHALED                         2024LP549189000LP REMBOURSEMENT DES FRAIS MEDICAUX          2024060400000000010                                      
110104   2024060402178800000000482178800000000000450317000129704012086006134058494STEG                          1747417474201402415545574NCIBMOHAMEDMALEK                      2024LP549193000LP REMBOURSEMENT DES FRAIS MEDICAUX          2024060400000000010                                      
110104   2024060402178800000000492178800000000000119345000129704012086006134058494STEG                          1747417474201402406463270DABBABIZOUHAIER                       2024LP549208000LP REMBOURSEMENT DES FRAIS MEDICAUX          2024060400000000010                                      
110104   2024060402178800000000502178800000000000067451000129704012086006134058494STEG                          1770617706000000296137593BENABBESABDELHAMID                    2024LP549213000LP REMBOURSEMENT DES FRAIS MEDICAUX          2024060400000000010                                      
110104   2024060402178800000000512178800000000000057593000129704012086006134058494STEG                          1747417474201402407786544TAREKZOUAOUI                          2024LP549214000LP REMBOURSEMENT DES FRAIS MEDICAUX          2024060400000000010                                      
110104   2024060402178800000000522178800000000000275000000129704012086006134058494STEG                          1747417474201402412514421BENSLIMENEAHMED                       2024LP549226000LP REMBOURSEMENT DES FRAIS MEDICAUX          2024060400000000010                                      
110104   2024060402178800000000532178800000000000250000000129704012086006134058494STEG                          1747417474201402411150892MOHAMMEDNASREDDINE                    2024LP549237000LP REMBOURSEMENT DES FRAIS MEDICAUX          2024060400000000010                                      
110104   2024060402178800000000542178800000000000050000000129704012086006134058494STEG                          1401114011011100701388602MOULDIDHAOUADI                        2024LP549244000LP REMBOURSEMENT DES FRAIS MEDICAUX          2024060400000000010                                      
110104   2024060402178800000000552178800000000000025938000129704012086006134058494STEG                          0540505405000024526229958LOUNISSISLIM                          2024LP549248000LP REMBOURSEMENT DES FRAIS MEDICAUX          2024060400000000010                                      
110104   2024060402178800000000562178800000000000195397000129704012086006134058494STEG                          1747417474201402404114318ABDELLAZIZABDELHAMID                  2024LP549252000LP REMBOURSEMENT DES FRAIS MEDICAUX          2024060400000000010                                      
110104   2024060402178800000000572178800000000000028758000129704012086006134058494STEG                          0310903109098010100094170ABDELHAMIDMECHERGUI                   2024LP549254000LP REMBOURSEMENT DES FRAIS MEDICAUX          2024060400000000010                                      
110104   2024060402178800000000582178800000000000060300000129704012086006134058494STEG                          0830608306000074003199619LAFFANDILOTFI                         2024LP549261000LP REMBOURSEMENT DES FRAIS MEDICAUX          2024060400000000010                                      
110104   2024060402178800000000592178800000000000113359000129704012086006134058494STEG                          1753517535940171380113874GUEDRIHOUCINE                         2024LP549263000LP REMBOURSEMENT DES FRAIS MEDICAUX          2024060400000000010                                      
110104   2024060402178800000000602178800000000000198379000129704012086006134058494STEG                          0510305103000031537193737BENMANSOURTAHAR                       2024LP549268000LP REMBOURSEMENT DES FRAIS MEDICAUX          2024060400000000010                                      
110104   2024060402178800000000612178800000000000159000000129704012086006134058494STEG                          1747417474201402405050853SOUDANIMONGI                          2024LP549269000LP REMBOURSEMENT DES FRAIS MEDICAUX          2024060400000000010                                      
110104   2024060402178800000000622178800000000000371339000129704012086006134058494STEG                          1747417474201402405661274SOUMRIRIADH                           2024LP549279000LP REMBOURSEMENT DES FRAIS MEDICAUX          2024060400000000010                                      
110104   2024060402178800000000632178800000000000112640000129704012086006134058494STEG                          0350303503042010100348706MZALIMAHMOUD                          2024LP549284000LP REMBOURSEMENT DES FRAIS MEDICAUX          2024060400000000010                                      
110104   2024060402178800000000642178800000000000184032000129704012086006134058494STEG                          0550205502000017546545682GANNOUNANOUAR                         2024LP549290000LP REMBOURSEMENT DES FRAIS MEDICAUX          2024060400000000010                                      
110104   2024060402178800000000652178800000000000047500000129704012086006134058494STEG                          1747417474201402406065570AYEDABDERRAZAK                        2024LP549292000LP REMBOURSEMENT DES FRAIS MEDICAUX          2024060400000000010                                      
110104   2024060402178800000000662178800000000000070490000129704012086006134058494STEG                          0460504605033003873745891BENABIDABDELMOMEN                     2024LP549293000LP REMBOURSEMENT DES FRAIS MEDICAUX          2024060400000000010                                      
110104   2024060402178800000000672178800000000000254284000129704012086006134058494STEG                          0870508705000412009795078MAHJOUBIMOHAMED                       2024LP549297000LP REMBOURSEMENT DES FRAIS MEDICAUX          2024060400000000010                                      
110104   2024060402178800000000682178800000000000067920000129704012086006134058494STEG                          1753517535940662934505433BENMANSOURAMEUR                       2024LP549307000LP REMBOURSEMENT DES FRAIS MEDICAUX          2024060400000000010                                      
110104   2024060402178800000000692178800000000000129060000129704012086006134058494STEG                          1747417474201402411806515REBIIABDESSALEM                       2024LP549309000LP REMBOURSEMENT DES FRAIS MEDICAUX          2024060400000000010                                      
110104   2024060402178800000000702178800000000000087900000129704012086006134058494STEG                          0410904109064404000580561SASSIABDELJABBAR                      2024LP549310000LP REMBOURSEMENT DES FRAIS MEDICAUX          2024060400000000010                                      
110104   2024060402178800000000712178800000000000037557000129704012086006134058494STEG                          0340903409087010100310140TAHRIABDELLATIF                       2024LP549311000LP REMBOURSEMENT DES FRAIS MEDICAUX          2024060400000000010                                      
110104   2024060402178800000000722178800000000000250000000129704012086006134058494STEG                          1409914099099100700267167HAMMAMIHEDI                           2024LP549313000LP REMBOURSEMENT DES FRAIS MEDICAUX          2024060400000000010                                      
110104   2024060402178800000000732178800000000000225000000129704012086006134058494STEG                          1400014000000100716760170AKKARIMOHAMED                         2024LP549318000LP REMBOURSEMENT DES FRAIS MEDICAUX          2024060400000000010                                      
110104   2024060402178800000000742178800000000000070760000129704012086006134058494STEG                          0320003200012010110577650HAJJIIMED                             2024LP549323000LP REMBOURSEMENT DES FRAIS MEDICAUX          2024060400000000010                                      
110104   2024060402178800000000752178800000000000046842000129704012086006134058494STEG                          1270312703000440102400536AROUSWALID                            2024LP549330000LP REMBOURSEMENT DES FRAIS MEDICAUX          2024060400000000010                                      
110104   2024060402178800000000762178800000000000350000000129704012086006134058494STEG                          0807208072022084003813019MECHRIHABIB                           2024LP549331000LP REMBOURSEMENT DES FRAIS MEDICAUX          2024060400000000010                                      
110104   2024060402178800000000772178800000000000033700000129704012086006134058494STEG                          0550605506000060544005356CHARRADAEZZEDDINE                     2024LP549337000LP REMBOURSEMENT DES FRAIS MEDICAUX          2024060400000000010                                      
110104   2024060402178800000000782178800000000000097297000129704012086006134058494STEG                          2501725017000000008259955BENADELSLAH                           2024LP549338000LP REMBOURSEMENT DES FRAIS MEDICAUX          2024060400000000010                                      
110104   2024060402178800000000792178800000000000037871000129704012086006134058494STEG                          0300003000010010122176310EZZEDDINEFETHI                        2024LP549340000LP REMBOURSEMENT DES FRAIS MEDICAUX          2024060400000000010                                      
110104   2024060402178800000000802178800000000000200000000129704012086006134058494STEG                          1003910039152500281478880LANOUARSAMIR                          2024LP549341000LP REMBOURSEMENT DES FRAIS MEDICAUX          2024060400000000010                                      
110104   2024060402178800000000812178800000000000123466000129704012086006134058494STEG                          1747417474201404088652111DEBBABIAHMED                          2024LP549352000LP REMBOURSEMENT DES FRAIS MEDICAUX          2024060400000000010                                      
110104   2024060402178800000000822178800000000000078000000129704012086006134058494STEG                          1747417474201402414541527BELMABROUKKAMEL                       2024LP549353000LP REMBOURSEMENT DES FRAIS MEDICAUX          2024060400000000010                                      
110104   2024060402178800000000832178800000000000093660000129704012086006134058494STEG                          1747417474201402408268343MABROUKADEL                           2024LP549357000LP REMBOURSEMENT DES FRAIS MEDICAUX          2024060400000000010                                      
110104   2024060402178800000000842178800000000000049095000129704012086006134058494STEG                          1700117001000000034815622HMIDARAMI                             2024LP549358000LP REMBOURSEMENT DES FRAIS MEDICAUX          2024060400000000010                                      
110104   2024060402178800000000852178800000000000052605000129704012086006134058494STEG                          1040110401061100340278842GESMIMOHAMED                          2024LP549363000LP REMBOURSEMENT DES FRAIS MEDICAUX          2024060400000000010                                      
110104   2024060402178800000000862178800000000000088039000129704012086006134058494STEG                          2505325053000009249108932MKADMITAOUFIK                         2024LP549366000LP REMBOURSEMENT DES FRAIS MEDICAUX          2024060400000000010                                      
110104   2024060402178800000000872178800000000000250000000129704012086006134058494STEG                          2505325053000009249108932MKADMITAOUFIK                         2024LP549367000LP REMBOURSEMENT DES FRAIS MEDICAUX          2024060400000000010                                      
110104   2024060402178800000000882178800000000000250000000129704012086006134058494STEG                          2505325053000009249108932MKADMITAOUFIK                         2024LP549369000LP REMBOURSEMENT DES FRAIS MEDICAUX          2024060400000000010                                      
110104   2024060402178800000000892178800000000000122885000129704012086006134058494STEG                          0530105301000011529939510GUEDDICHTAOUFIK                       2024LP549372000LP REMBOURSEMENT DES FRAIS MEDICAUX          2024060400000000010                                      
110104   2024060402178800000000902178800000000000080205000129704012086006134058494STEG                          2505325053000009249108932MKADMITAOUFIK                         2024LP549374000LP REMBOURSEMENT DES FRAIS MEDICAUX          2024060400000000010                                      
110104   2024060402178800000000912178800000000000045000000129704012086006134058494STEG                          1040110401061100340278842GESMIMOHAMED                          2024LP549377000LP REMBOURSEMENT DES FRAIS MEDICAUX          2024060400000000010                                      
110104   2024060402178800000000922178800000000000025085000129704012086006134058494STEG                          0560805608000043504352691MZOUGHIYOUSSEF                        2024LP549378000LP REMBOURSEMENT DES FRAIS MEDICAUX          2024060400000000010                                      
110104   2024060402178800000000932178800000000000082063000129704012086006134058494STEG                          1270512705000000223512631JELALIMOHAMEDTAIEB                    2024LP549382000LP REMBOURSEMENT DES FRAIS MEDICAUX          2024060400000000010                                      
110104   2024060402178800000000942178800000000000103500000129704012086006134058494STEG                          1747417474201402406205735SOHBANIWALID                          2024LP549387000LP REMBOURSEMENT DES FRAIS MEDICAUX          2024060400000000010                                      
110104   2024060402178800000000952178800000000000074557000129704012086006134058494STEG                          0510305103000031538308073HAMROUNITAREK                         2024LP549389000LP REMBOURSEMENT DES FRAIS MEDICAUX          2024060400000000010                                      
110104   2024060402178800000000962178800000000000050000000129704012086006134058494STEG                          1240512405000000221708448KHMISSIRAFIK                          2024LP549391000LP REMBOURSEMENT DES FRAIS MEDICAUX          2024060400000000010                                      
110104   2024060402178800000000972178800000000000150000000129704012086006134058494STEG                          0550005500000022502120184AYACHIANOUAR                          2024LP549403000LP REMBOURSEMENT DES FRAIS MEDICAUX          2024060400000000010                                      
110104   2024060402178800000000982178800000000000300000000129704012086006134058494STEG                          0312103121114010100244926DJERIDIHAYET                          2024LP549408000LP REMBOURSEMENT DES FRAIS MEDICAUX          2024060400000000010                                      
110104   2024060402178800000000992178800000000000059900000129704012086006134058494STEG                          1240512405000000221708448KHMISSIRAFIK                          2024LP549409000LP REMBOURSEMENT DES FRAIS MEDICAUX          2024060400000000010                                      
110104   2024060402178800000001002178800000000000110737000129704012086006134058494STEG                          0450404504011404006136049jeridiABDESSALEM                      2024LP549411000LP REMBOURSEMENT DES FRAIS MEDICAUX          2024060400000000010                                      
110104   2024060402178800000001012178800000000000030000000129704012086006134058494STEG                          1747417474201402412357863JERIDIMAKRAM                          2024LP549412000LP REMBOURSEMENT DES FRAIS MEDICAUX          2024060400000000010                                      
110104   2024060402178800000001022178800000000000121279000129704012086006134058494STEG                          0890608906000142003736496ZARZISSISAMIR                         2024LP549414000LP REMBOURSEMENT DES FRAIS MEDICAUX          2024060400000000010                                      
110104   2024060402178800000001032178800000000000250000000129704012086006134058494STEG                          0450204502040404004690844BENSAMIRMABROUK                       2024LP549419000LP REMBOURSEMENT DES FRAIS MEDICAUX          2024060400000000010                                      
110104   2024060402178800000001042178800000000000109281000129704012086006134058494STEG                          1747417474201402414102602GANNOUNMOHAMED                        2024LP549422000LP REMBOURSEMENT DES FRAIS MEDICAUX          2024060400000000010                                      
110104   2024060402178800000001052178800000000000110408000129704012086006134058494STEG                          0750007500000410551270391GALLASBOURAOUI                        2024LP549423000LP REMBOURSEMENT DES FRAIS MEDICAUX          2024060400000000010                                      
110104   2024060402178800000001062178800000000000096329000129704012086006134058494STEG                          0530305303000054528183034KSONTINIHAFEDH                        2024LP549424000LP REMBOURSEMENT DES FRAIS MEDICAUX          2024060400000000010                                      
110104   2024060402178800000001072178800000000000164683000129704012086006134058494STEG                          0313403134137010110092377BAGHDEDIAMAL                          2024LP549428000LP REMBOURSEMENT DES FRAIS MEDICAUX          2024060400000000010                                      
110104   2024060402178800000001082178800000000000076369000129704012086006134058494STEG                          0380603806081010100096247BENACHMAAHMED                         2024LP549430000LP REMBOURSEMENT DES FRAIS MEDICAUX          2024060400000000010                                      
110104   2024060402178800000001092178800000000000300000000129704012086006134058494STEG                          0850108501000212005680022GHOULALI                              2024LP549434000LP REMBOURSEMENT DES FRAIS MEDICAUX          2024060400000000010                                      
110104   2024060402178800000001102178800000000000110407000129704012086006134058494STEG                          0340703407022010110223097SOLTANIMONGI                          2024LP549437000LP REMBOURSEMENT DES FRAIS MEDICAUX          2024060400000000010                                      
110104   2024060402178800000001112178800000000000077963000129704012086006134058494STEG                          1747417474201402408279013BITRIWALID                            2024LP549439000LP REMBOURSEMENT DES FRAIS MEDICAUX          2024060400000000010                                      
110104   2024060402178800000001122178800000000000234034000129704012086006134058494STEG                          0404904049134404000376837AYDITAREK                             2024LP549440000LP REMBOURSEMENT DES FRAIS MEDICAUX          2024060400000000010                                      
110104   2024060402178800000001132178800000000000056795000129704012086006134058494STEG                          0407404074159001070234857SELLAMIMOHAMED                        2024LP549444000LP REMBOURSEMENT DES FRAIS MEDICAUX          2024060400000000010                                      
110104   2024060402178800000001142178800000000000142861000129704012086006134058494STEG                          1747417474201402409153662KAMMOUNWAJDI                          2024LP549448000LP REMBOURSEMENT DES FRAIS MEDICAUX          2024060400000000010                                      
110104   2024060402178800000001152178800000000000126006000129704012086006134058494STEG                          1203112031000000210906189ROUISSHASSEN                          2024LP549450000LP REMBOURSEMENT DES FRAIS MEDICAUX          2024060400000000010                                      
110104   2024060402178800000001162178800000000000170643000129704012086006134058494STEG                          1747417474201402411621827REJAIBAMABROUK                        2024LP549453000LP REMBOURSEMENT DES FRAIS MEDICAUX          2024060400000000010                                      
110104   2024060402178800000001172178800000000000153821000129704012086006134058494STEG                          0312103121114010100360841AMARAHECHMI                           2024LP549463000LP REMBOURSEMENT DES FRAIS MEDICAUX          2024060400000000010                                      
110104   2024060402178800000001182178800000000000119100000129704012086006134058494STEG                          1747417474201402407465668BENBRIKABDALLAH                       2024LP549465000LP REMBOURSEMENT DES FRAIS MEDICAUX          2024060400000000010                                      
110104   2024060402178800000001192178800000000000084715000129704012086006134058494STEG                          1747417474201402188794494SOUGAKHALED                           2024LP549479000LP REMBOURSEMENT DES FRAIS MEDICAUX          2024060400000000010                                      
110104   2024060402178800000001202178800000000000060000000129704012086006134058494STEG                          0340803408097010100199881ATHIMNISAMIR                          2024LP549482000LP REMBOURSEMENT DES FRAIS MEDICAUX          2024060400000000010                                      
110104   2024060402178800000001212178800000000000042000000129704012086006134058494STEG                          0380003800034010110445663HAMEDMOHSEN                           2024LP549486000LP REMBOURSEMENT DES FRAIS MEDICAUX          2024060400000000010                                      
110104   2024060402178800000001222178800000000000063746000129704012086006134058494STEG                          1700017000000000109043268BERACHECHWALID                        2024LP549487000LP REMBOURSEMENT DES FRAIS MEDICAUX          2024060400000000010                                      
110104   2024060402178800000001232178800000000000201500000129704012086006134058494STEG                          1747417474201402405535853BOUHLELHASSEN                         2024LP549489000LP REMBOURSEMENT DES FRAIS MEDICAUX          2024060400000000010                                      
110104   2024060402178800000001242178800000000000134100000129704012086006134058494STEG                          0590005900000023510367229AOUIDAJAMAL                           2024LP549496000LP REMBOURSEMENT DES FRAIS MEDICAUX          2024060400000000010                                      
110104   2024060402178800000001252178800000000000081496000129704012086006134058494STEG                          1747417474201402411881884THAMRILASSAD                          2024LP549497000LP REMBOURSEMENT DES FRAIS MEDICAUX          2024060400000000010                                      
110104   2024060402178800000001262178800000000000050000000129704012086006134058494STEG                          0700207002000210554708666BOUBAKERIAMMAR                        2024LP549498000LP REMBOURSEMENT DES FRAIS MEDICAUX          2024060400000000010                                      
