DEBUT FICHIER MUT 07/06/2024
D10104059109504278843MUTUELLELELECTRICITEGAZ  000000024105665VOAU
B01075106111021425723BEN SAID TAWFIK          000000000351723VOAU
B14906906100700288666HARRABI MONCEF           000000000192144VOAU
B08306000074003199619LAFFANDI LOTFI           000000000077032VOAU
B17001000000191113662NASRAOUI AHMED           000000000036577VOAU
B08078023042003229993BEN SALAH EP MABROUK RYM 000000000210000VOAU
B17474201402404921164ABDENNABI MOHAMED        000000000240453VOAU
B17474201402404741326SBOUI NOUREDDINE         000000000099129VOAU
B08705000412014249124ABDELMALEK AYMEN         000000000135000VOAU
B10128119102232878895MEJRI AMOR               000000000035000VOAU
B08115028042000799295BEN KHALIFA EL MAHJOUB   000000000041940VOAU
B25036000000016072547YAAGOUB EZZEDINE         000000000037683VOAU
B17474201404191710149HAMIDI MOURAD            000000000222232VOAU
B07206004110556832224BELGAID  MEHREZ          000000000055556VOAU
B08051020082001936891MEZZI ABDERRAHMEN        000000000035000VOAU
B08200000502008142463JELMEN  NACEUR           000000000018000VOAU
B14011011100700349150ABDESATAR JOUINI         000000000064272VOAU
B10404100101293878810NAJAR  SALAH             000000000086909VOAU
B03300027010100384490HAOUET ABDERAOUF         000000000035000VOAU
B11000004019501378856HAMIDA ABDESSLEM         000000000087635VOAU
B17474201402409174226RAJICHI HAMDI            000000000084000VOAU
B03119176010100041611NECIBI NOUREDDINE        000000000094856VOAU
B17474201402405535853BOUHLEL HASSEN           000000000105000VOAU
B14908908100701693036MEHRI CHOKRI             000000000075906VOAU
B05501000014507587428SNENE MED MONDHER        000000000052950VOAU
B04706041404001197762BEN RHOUMA HAFEDH        000000000047647VOAU
B10908014100838078867KTARI RAOUF              000000000218194VOAU
B07307005110556250770EGNEB DAGHARI MASSEOUD   000000000107117VOAU
B17474201402404708249SFAR ADEL                000000000156369VOAU
B25085000000116777197KILANI MOHAMED           000000000145898VOAU
B17474201402407904496ABBES FERID              000000000088774VOAU
B17474201402406553092BEN SALAH FAOUZI         000000000050070VOAU
B25042000000001076465MESSAOUDI MOEZ           000000000060632VOAU
B25042000000001076465MESSAOUDI MOEZ           000000000035000VOAU
B17474201402414069719BEL HADJ SALEM FETHI     000000000155186VOAU
B11034002269500878882ABBASSI ANIS             000000000067436VOAU
B17474201402409369875HADJ AMMAR HAMZA         000000000036647VOAU
B05608000043504352691MZOUGHI YOUSSEF          000000000075717VOAU
B17001000000065404281NOURI TAREK              000000000153841VOAU
B12306000830100930644ZAOUI LOTFI              000000000051069VOAU
B17474201402406553092BEN SALAH FAOUZI         000000000036592VOAU
B05503000034500858641CHOUCHENE BILEL          000000000082422VOAU
B08098027094001644182BEN HFAIDH KHALED        000000000121593VOAU
B03027157010100116250KARFOUH BORHENNE         000000000091892VOAU
B17474201402071876902HAJJAJI FETHI            000000000057497VOAU
B12102000300108059796CHELLY ABDELMAJID        000000000030000VOAU
B10000000067642778875NOURI ABDALLAH           000000000046053VOAU
B08107000772009158005LABIDI  YOUNES           000000000026357VOAU
B08003000712004380879ZAMEL RIDHA              000000000076575VOAU
B14015015100702742342DRIRA ABDELLAZIZ         000000000095752VOAU
B14015015100702742342DRIRA ABDELLAZIZ         000000000117424VOAU
B07057011510551008374THAMEUR MAHMOUD          000000000110877VOAU
B14015015100702742342DRIRA ABDELLAZIZ         000000000063905VOAU
B10404100109625678872BSILA  MOHAMED TAHAR     000000000063524VOAU
B05009000028500555834MEKNI SADOK              000000000031758VOAU
B05009000028500555834MEKNI SADOK              000000000004500VOAU
B03301030010100094750BEN SLIMANE  ABDERAOUF   000000000037936VOAU
B12107000510101875180FARFAR HELA              000000000075450VOAU
B25071000000035150193MARS WALID               000000000219034VOAU
B14906906100700288666HARRABI MONCEF           000000000035000VOAU
B17474201404089221404DALLAGI  HABIB           000000000038583VOAU
B17474201404089221404DALLAGI  HABIB           000000000062810VOAU
B25071000000035150193MARS WALID               000000000075985VOAU
B25031000000059138347NAFTI ADEL               000000000027600VOAU
B17474201402415435964GADHOUM JABER            000000000900000VOAU
B25001000000004108687SAADOUNI JILANI          000000000037908VOAU
B25001000000004108687SAADOUNI JILANI          000000000035000VOAU
B17701000000234410607CHAABENE AHMED           000000000035000VOAU
B17474201402415435964GADHOUM JABER            000000000055200VOAU
B10105057102539178863HADIDI  SKANDER          000000000048114VOAU
B25031000000059138347NAFTI ADEL               000000000107887VOAU
B17503000000209059934BELKHIRIA LASSAAD        000000000164325VOAU
B07402005510556048304HAMMAMI BECHIR           000000000112049VOAU
B14043043100700045313MEDDEB  MAHMOUD          000000000114182VOAU
B17474201402414014332HSSINI AYDA              000000000065000VOAU
B03106072010100248671BETTAIEB  ABDELMAJID     000000000900000VOAU
B05900000023515932507DHOUIB ALI               000000000079646VOAU
B08802000322011129560BEN AMOR FATMA           000000000131075VOAU
B04012086404001861801BEN ATTAYA SLAHEDDINE    000000000057122VOAU
B14803803100700914110MSALLEM Abdelmoula       000000000018000VOAU
B04504011404005458989FKIH SAMIR               000000000054000VOAU
B25031000000020793277TOUNSI HAMIDA            000000000060445VOAU
B17801000000009088784HAMMADI WAHID            000000000035000VOAU
B12019000000204542947HAMMAR CHOKRI            000000000039342VOAU
B04705012006104126588DHAOU SAMAR              000000000055818VOAU
B32006788101021605127MOUSSA LASSAAD           000000000120017VOAU
B05508000066501040658HALOUANI  SALEM          000000000022575VOAU
B08901000382000006380DRISS  ABDELLATIF        000000000018000VOAU
B17503000000209059934BELKHIRIA LASSAAD        000000000016533VOAU
B17002000000049644646HADJ MOHAMED HATEM       000000000063200VOAU
B04099184002076200179BEN LAKHDHAR HASSEN      000000000035000VOAU
B03107099010100061909OUEDDANI FARES           000000000036000VOAU
B08016010072005952002EL ARAICHI ANWAER        000000000006597VOAU
B17474201402407066222DARDOURI HABIB           000000000045072VOAU
B17001000000165479472MEJRI NAIMI KHAOULA      000000000018000VOAU
B17474201402414014332HSSINI AYDA              000000000054482VOAU
B17474201402404267966HADJ AMOR SAIDA          000000000058185VOAU
B08500000202017052590BOUJEBHA  JAMEL          000000000058901VOAU
B17474201402415670122BEN HADJ AMOR DHIAELHAK  000000000045199VOAU
B17503000000041994506BESSAAD  NACEUR          000000000041714VOAU
B12500000000203589520ABIDI HABIB              000000000078619VOAU
B03500020010111028477EL KHOUDI FAYCAL         000000000047106VOAU
B12000000100139416542SBAOUELGI  MED FAOUZI    000000000340000VOAU
B25131000000107869751HAMZAOUI MED FATHI       000000000024597VOAU
B10104059105589778853SAHBANI ABDELMAJID       000000000039510VOAU
B03908083010100391675AKREMI HASSOUNA          000000000061312VOAU
B17474201402407644633SAGAAMA ABDELHAMID       000000000025000VOAU
B17474201402414466546ABDELJAOUED CHAKER       000000000071306VOAU
B12101000570201433822NASRA  MOHAMED           000000000041745VOAU
B04050135001295256088SKHIRI MED HDHILI        000000000323765VOAU
B17503000000102267008ELMESSAY  MOHD EL HEDi   000000000065483VOAU
B04126193404000698573FEKIH  FAOUZI            000000000053229VOAU
B17503000000102267008ELMESSAY  MOHD EL HEDi   000000000024962VOAU
B14809809100703055979NAFIKHA ADEL             000000000047421VOAU
B05500000022503172052JERIDI BILEL             000000000057914VOAU
B05508000066550780706BEN HAJ FREJ  SALAH      000000000027810VOAU
B25037000000048654026SIOUD RIHEM              000000000035000VOAU
B10708012102238878838SELMI BRAHIM             000000000108914VOAU
B17474201402404840363JANZOURI MAHMOUD         000000000032091VOAU
B17474201402413728958CHAOUECH FAOUZI          000000000050773VOAU
B08303000282007105371OUNAIES MANEL            000000000185000VOAU
B05104000005564488824EL ARBI JAMEL            000000000378998VOAU
B17474201402414776752LOUHICHI MAHASEN         000000000045006VOAU
B17474201402414776752LOUHICHI MAHASEN         000000000038874VOAU
B17503000000209059934BELKHIRIA LASSAAD        000000000074262VOAU
B17474201402414776752LOUHICHI MAHASEN         000000000041020VOAU
B03106072010100190180DRIDI RIDHA              000000000205000VOAU
B05043000111500397252BOUBAKER BILEL           000000000040935VOAU
B01039077111016715078MOKNI SALAH              000000000060359VOAU
B12605000250117831787CHRAIET RACHED           000000000154763VOAU
B17503000000200686506BEN ROMDHANE AYMEN       000000000021150VOAU
B10708012102238878838SELMI BRAHIM             000000000091202VOAU
B17503000000209059934BELKHIRIA LASSAAD        000000000008106VOAU
B08103000722004162445MANAI YOUSSEF            000000000111840VOAU
B14908908100700923147FARHATI  BECHIR          000000000074325VOAU
B03212122010110984248BEN KHELIFA  Abd el Majid000000000072050VOAU
B08705000412002437531GORSANE  ABDELHAMID      000000000035000VOAU
B14003003100702199118MTIMET SADOK             000000000021023VOAU
B17474201401357200981TEKAYA AFEF              000000000200500VOAU
B14003003100702199118MTIMET SADOK             000000000079167VOAU
B03605014010122122792FRIGUI SLAHEDDINE        000000000185000VOAU
B17474201402405827920AMMAR LASSAAD            000000000034088VOAU
B03212122010110984248BEN KHELIFA  Abd el Majid000000000061567VOAU
B05605000012516800047KOCHATE KHEMAIS          000000000043000VOAU
B05503000034500858641CHOUCHENE BILEL          000000000083158VOAU
B12605000250117831787CHRAIET RACHED           000000000026610VOAU
B17474201401357200981TEKAYA AFEF              000000000193829VOAU
B17474201402413325438OUERGHEMI MOHAMED        000000000072368VOAU
B07206004110557335460TRABELSSI HOUCINE        000000000051267VOAU
B04005006404004052108BEY KHEMAIES             000000000051805VOAU
B17474201402404525016FARHAT FAYCAL            000000000071401VOAU
B07007002310551683391BEN MAMI MED LASSAAD     000000000072000VOAU
B05105000025500048962OUECHKRIA BECHER         000000000157918VOAU
B03107099010100061909OUEDDANI FARES           000000000159707VOAU
B08708000472000769575DERBAL  NACEUR           000000000026294VOAU
B14207450111000142712ZERMANI MOHSEN           000000000016018VOAU
B05105000025535672018MAHJOUB EL HAMRA         000000000039683VOAU
B17474201402408299868BAYOUDH RAOUF            000000000246939VOAU
B05105000025535672018MAHJOUB EL HAMRA         000000000040970VOAU
B17474201402413639815SASSI MOHAMED            000000000129449VOAU
B20025252220090232993EL OUNI NABIHA           000000000159197VOAU
B05105000025535672018MAHJOUB EL HAMRA         000000000068054VOAU
B17474201402407465668BEN BRIK ABDALLAH        000000000090000VOAU
B01705026111034341076BEN YACOUB LASSAAD       000000000020000VOAU
B17901000000318541638GATRAN  TAHAR            000000000153650VOAU
B03106072010100021109CHEBIL LOTFI             000000000053009VOAU
B17001000000002793594OUNI CHAMSEDDINE         000000000048487VOAU
B04305056404000304033BEN OTHMAN ABELKARIM     000000000026699VOAU
B17001000000002793594OUNI CHAMSEDDINE         000000000100304VOAU
B07037006010555926673EL AYACHI MOHAMED SLIM   000000000051835VOAU
B03705026010110991792AMORRI LASSAAD           000000000021821VOAU
B11001002084600878816KHALED MOHAMED           000000000005693VOAU
B07037006010555926673EL AYACHI MOHAMED SLIM   000000000050324VOAU
B17474201402408455650EL MELIENE KHALIFA       000000000120104VOAU
B11001002084600878816KHALED MOHAMED           000000000071000VOAU
B17474201402407465668BEN BRIK ABDALLAH        000000000112500VOAU
B17706000000299927577CHABAA MUSTAPHA          000000000038002VOAU
B17474201402408103249HAMMADI CHAHID           000000000081600VOAU
B08109000034002940281ALLOUS RAFIK             000000000094540VOAU
B17474201402408196660GANNOUNI SLIM            000000000114825VOAU
B07007002310552612263BEN DHIEB JAMEL          000000000033204VOAU
B17706000000007068572AGUERBI MORAD            000000000186375VOAU
B08054020074006246738SAÏD  MOHAMED            000000000053823VOAU
B17474201402407465668BEN BRIK ABDALLAH        000000000121575VOAU
B03204091010100327507EL MEDDEB BOURAOUI       000000000100048VOAU
B07006001912167023583JLASSI  HASSOUNA         000000000072000VOAU
B03122118010100043794EL BADRI MOHSEN          000000000219298VOAU
B17474201402406609061LABAOUI ZINE EL ABIDINE  000000000020723VOAU
B10104059108112078874JDIR HAFEDH              000000000016950VOAU
B17474201402408605612FERCHICHI HAMZA          000000000297683VOAU
B17474201402406742921BEN HAMZA   BRAHIM       000000000024622VOAU
B10203066113438778823TRABELSI MUSTAPHA        000000000060422VOAU
B10203066113438778823TRABELSI MUSTAPHA        000000000066604VOAU
B10203066113438778823TRABELSI MUSTAPHA        000000000014000VOAU
B14000000100709185246RIAHI  ABDELBAKI         000000000038879VOAU
B08000000602017849130BOUBAKER  MOHAMED MONCEF 000000000130172VOAU
B12000000100138297356OMRANE  HASSEN           000000000151800VOAU
B17474201402413367633MRIZEK OUSSAMA           000000000200000VOAU
B10203066113438778823TRABELSI MUSTAPHA        000000000014000VOAU
B17474201402401365435HLIMI ADEL               000000000119036VOAU
B03601064010110749647HRIZI  OUARDI            000000000095505VOAU
B17706000000272052881ZAGDOUD AMOR             000000000107757VOAU
B05209000065582092215MAKHLOUF CHAIMA          000000000062266VOAU
B17001000000064350279OUERTANI MOULDI          000000000065893VOAU
B05201000008536260752SONIA DABECH             000000000072000VOAU
B17474201402403480908BEL GAIED CHOKRI         000000000035000VOAU
B17706000000272052881ZAGDOUD AMOR             000000000043854VOAU
B10107043218241578850DEBBABI MONCEF           000000000061236VOAU
B17706000000272052881ZAGDOUD AMOR             000000000046800VOAU
B17503000000200686506BEN ROMDHANE AYMEN       000000000080000VOAU
B17474201402412186173TABBAL JAMEL             000000000069950VOAU
B04001007404007332487BEN BELGACEM EL ABED     000000000035000VOAU
B05000000001549631203YACOUBI  ALI             000000000070415VOAU
B04100009404003882201BRINIS KARIM             000000000013486VOAU
B17474201402407092897MEJRI KHALED             000000000071207VOAU
B05000000001507286532BEN CHEIKH  ESSIA        000000000104484VOAU
B08115028042000799295BEN KHALIFA EL MAHJOUB   000000000056201VOAU
B17474201402407092897MEJRI KHALED             000000000042362VOAU
B05103000031537125255TRABELSI TAOUFIK         000000000072075VOAU
B17474201402411704277SGHAIER CHOHDI           000000000019438VOAU
B17474201404191465224OUESLATI ANIS            000000000065352VOAU
B04906077404000708267LAHOUAR SABRI            000000000014700VOAU
B04906077404000708267LAHOUAR SABRI            000000000255257VOAU
B01001080111090227894FERCHICHI KHALIL         000000000055719VOAU
B25001000000001654975MNAOUAR  ABIBI           000000000058400VOAU
B25001000000001654975MNAOUAR  ABIBI           000000000107625VOAU
B05103000031520908019KHEDDER HAYET            000000000029502VOAU
B17503000000124724545SLIM HAMOUDA             000000000090000VOAU
B10004034173453878889BEN ABDALLAH  MABROUK    000000000114200VOAU
B10004034173453878889BEN ABDALLAH  MABROUK    000000000048450VOAU
B03605014010122122792FRIGUI SLAHEDDINE        000000000108782VOAU
B17474201402404712420TABKA KAMEL              000000000138862VOAU
B10006035181298378844GHITH   MEHRZIA          000000000035000VOAU
B17474201402407500006JEBALI NOUREDDINE        000000000056010VOAU
B25058000000081367689NEJI HICHEM              000000000054402VOAU
B17503000000209059934BELKHIRIA LASSAAD        000000000068700VOAU
B05504000037518664008FRIGUI HABIB             000000000048397VOAU
B17474201402413065672GANTARA HOUSSEM          000000000125176VOAU
B17474201402407500006JEBALI NOUREDDINE        000000000021453VOAU
B17474201402409369875HADJ AMMAR HAMZA         000000000066892VOAU
B14024024100700045275DOUISSA TAREK            000000000250000VOAU
B10502018093359178881BELLAZREK  MOHAMED       000000000035000VOAU
B17474201402407500006JEBALI NOUREDDINE        000000000237603VOAU
B14900900100715510476KHALFET AMOR             000000000058305VOAU
B05030000082501936758AYARI MAHDI              000000000038535VOAU
B17474201402411850359THAMEUR KOUKI            000000000049344VOAU
B14605605100704127130MZOUGHI HEDI             000000000157984VOAU
B25006000000032265816BEN CHEIKH FREDJ NEJIA   000000000073357VOAU
B14900900100715510476KHALFET AMOR             000000000162428VOAU
B05400000004518032811ARFAOUI LASSAAD          000000000082875VOAU
B04400031404804357676HAMMAMI HOUCINE          000000000034950VOAU
B17474201402407177772KERKENI ANIS             000000000023225VOAU
B07400002710557130569REBAI SAMI               000000000054000VOAU
B10502018093571378894MABROUK TAHER            000000000200568VOAU
B12400000000219318884KHALFI ABDERRAZAK        000000000035000VOAU
B17474201402406369180KHEMIRA RAFIK            000000000034311VOAU
B10400008045260078860SELLOUHI LEILA           000000000150825VOAU
B17474201402411031097NASRI JILANI             000000000142950VOAU
B17474201402408416850AGUERBAOUI HAYTHEM       000000000059170VOAU
B17474201402414062250CHEBBI AYMEN             000000000038420VOAU
B17474201402412519368MERDASSI MAHRANE         000000000003000VOAU
B10400008051479078854AYARY MILED              000000000025000VOAU
B07400002710581759742ZERMENI BILEL            000000000106311VOAU
B17474201402408416850AGUERBAOUI HAYTHEM       000000000036638VOAU
B17474201402412801541BAHRINI MOHAMED          000000000029276VOAU
B03201037010110755611HAFEDH BARROUKA          000000000016950VOAU
B17901000000291137586SAKRAFI SIRINE           000000000244254VOAU
B17474201402407500006JEBALI NOUREDDINE        000000000235000VOAU
B05505000044500072802BEN OTHMANE FAKHREDDINE  000000000080415VOAU
B14801801100702856337MABROUKI MABROUK         000000000078048VOAU
B17474201402410693828SOLTANI RAMI             000000000099000VOAU
B17474201402414548026BELGACEM KILANI          000000000030450VOAU
B01305044111059692636MASMOUDI MORCHED         000000000084191VOAU
B14605605100704127130MZOUGHI HEDI             000000000225000VOAU
B17474201402408172701ANIS MBARKI              000000000056931VOAU
B14807807100714407303AROUR SALMA              000000000035000VOAU
B14807807100714407303AROUR SALMA              000000000035172VOAU
FIN FICHIER MUT 07/06/2024