11011700020240604000111788000000000170387760000000126                                                                                                                                                                                                                                   
1101170002024060400012178800000000000023900000129717001000000302388764STEG                          1070110701004021780678814JAOUADI BAKARI                        2024LP548958000LP REMBOURSEMENT DES FRAIS MEDICAUX          2024060400000000010                                      
1101170002024060400022178800000000000118700000129717001000000302388764STEG                          1747417474201402409547967KHECHAREM MOEZ                        2024LP548960000LP REMBOURSEMENT DES FRAIS MEDICAUX          2024060400000000010                                      
1101170002024060400032178800000000000138000000129717001000000302388764STEG                          1747417474201402409321957TRABELSI IBRAHIM                      2024LP548962000LP REMBOURSEMENT DES FRAIS MEDICAUX          2024060400000000010                                      
1101170002024060400042178800000000000021100000129717001000000302388764STEG                          0408504085170003729207512ZARAI TAKIEDDINE                      2024LP548964000LP REMBOURSEMENT DES FRAIS MEDICAUX          2024060400000000010                                      
1101170002024060400052178800000000000045000000129717001000000302388764STEG                          0408504085170003729207512ZARAI TAKIEDDINE                      2024LP548965000LP REMBOURSEMENT DES FRAIS MEDICAUX          2024060400000000010                                      
1101170002024060400062178800000000000050000000129717001000000302388764STEG                          1747417474201402412559914OUESLATI MONTASSAR                    2024LP548966000LP REMBOURSEMENT DES FRAIS MEDICAUX          2024060400000000010                                      
1101170002024060400072178800000000000750000000129717001000000302388764STEG                          1747417474201402404001216CHOUCHENE SAMIR                       2024LP548972000LP REMBOURSEMENT DES FRAIS MEDICAUX          2024060400000000010                                      
1101170002024060400082178800000000000152584000129717001000000302388764STEG                          1490014900900100704888103BEYA MOHAMED                          2024LP548980000LP REMBOURSEMENT DES FRAIS MEDICAUX          2024060400000000010                                      
1101170002024060400092178800000000000150769000129717001000000302388764STEG                          1747417474201402404778574SMEI CHEDLY                           2024LP548981000LP REMBOURSEMENT DES FRAIS MEDICAUX          2024060400000000010                                      
1101170002024060400102178800000000000176100000129717001000000302388764STEG                          1747417474201402408954812MESBAHI NAJIA                         2024LP548982000LP REMBOURSEMENT DES FRAIS MEDICAUX          2024060400000000010                                      
1101170002024060400112178800000000000022208000129717001000000302388764STEG                          0300503005049010100379302KHELIL NEJIB                          2024LP548983000LP REMBOURSEMENT DES FRAIS MEDICAUX          2024060400000000010                                      
1101170002024060400122178800000000000239453000129717001000000302388764STEG                          1747417474201401354003085EL KORDI BESMA                        2024LP548984000LP REMBOURSEMENT DES FRAIS MEDICAUX          2024060400000000010                                      
1101170002024060400132178800000000000306064000129717001000000302388764STEG                          1747417474201402414941749LABIDI KAMEL                          2024LP548985000LP REMBOURSEMENT DES FRAIS MEDICAUX          2024060400000000010                                      
1101170002024060400142178800000000000271021000129717001000000302388764STEG                          1070610706068106447778878NASR ACHRAF                           2024LP548988000LP REMBOURSEMENT DES FRAIS MEDICAUX          2024060400000000010                                      
1101170002024060400152178800000000000102641000129717001000000302388764STEG                          0800908009000682013223664CHAKROUN  MONGI                       2024LP548993000LP REMBOURSEMENT DES FRAIS MEDICAUX          2024060400000000010                                      
1101170002024060400162178800000000000174435000129717001000000302388764STEG                          1747417474201402414941749LABIDI KAMEL                          2024LP548995000LP REMBOURSEMENT DES FRAIS MEDICAUX          2024060400000000010                                      
1101170002024060400172178800000000000117600000129717001000000302388764STEG                          0370403704084010100354827DJEBALI MOHAMED ALI                   2024LP548997000LP REMBOURSEMENT DES FRAIS MEDICAUX          2024060400000000010                                      
1101170002024060400182178800000000000132455000129717001000000302388764STEG                          1753517535940663205529447BLIBECH MOHAMED                       2024LP548998000LP REMBOURSEMENT DES FRAIS MEDICAUX          2024060400000000010                                      
1101170002024060400192178800000000000029500000129717001000000302388764STEG                          1747417474201402412904749LETAIEF GHAZI                         2024LP549011000LP REMBOURSEMENT DES FRAIS MEDICAUX          2024060400000000010                                      
1101170002024060400202178800000000000074755000129717001000000302388764STEG                          1720617206000000095510549RIAHI  ALI                            2024LP549012000LP REMBOURSEMENT DES FRAIS MEDICAUX          2024060400000000010                                      
1101170002024060400212178800000000000068806000129717001000000302388764STEG                          1204812048000000227272719GABSI  BECHIR                         2024LP549018000LP REMBOURSEMENT DES FRAIS MEDICAUX          2024060400000000010                                      
1101170002024060400222178800000000000068203000129717001000000302388764STEG                          1204812048000000227272719GABSI  BECHIR                         2024LP549020000LP REMBOURSEMENT DES FRAIS MEDICAUX          2024060400000000010                                      
1101170002024060400232178800000000000250000000129717001000000302388764STEG                          0350503505058010100335109MASSAOUD FAROUK                       2024LP549027000LP REMBOURSEMENT DES FRAIS MEDICAUX          2024060400000000010                                      
1101170002024060400242178800000000000202250000129717001000000302388764STEG                          0108001080112111023305252SAYAH MONJI                           2024LP549031000LP REMBOURSEMENT DES FRAIS MEDICAUX          2024060400000000010                                      
1101170002024060400252178800000000000071744000129717001000000302388764STEG                          1770117701000000311213170BEN HASSEN  ALI                       2024LP549035000LP REMBOURSEMENT DES FRAIS MEDICAUX          2024060400000000010                                      
1101170002024060400262178800000000000253951000129717001000000302388764STEG                          1747417474201402413550769JAIDI SALAHEDDINE                     2024LP549054000LP REMBOURSEMENT DES FRAIS MEDICAUX          2024060400000000010                                      
1101170002024060400272178800000000000081500000129717001000000302388764STEG                          0530905309000062501555313BELGDIM NACEUR                        2024LP549064000LP REMBOURSEMENT DES FRAIS MEDICAUX          2024060400000000010                                      
1101170002024060400282178800000000000024800000129717001000000302388764STEG                          0540205402000020503939241TRABELSI SALLEM                       2024LP549073000LP REMBOURSEMENT DES FRAIS MEDICAUX          2024060400000000010                                      
1101170002024060400292178800000000000046993000129717001000000302388764STEG                          2504025040000000012621883AOUIDA RIADH                          2024LP549081000LP REMBOURSEMENT DES FRAIS MEDICAUX          2024060400000000010                                      
1101170002024060400302178800000000000096557000129717001000000302388764STEG                          0410904109064003298181368BOUSSADA ABDELKRIM                    2024LP549093000LP REMBOURSEMENT DES FRAIS MEDICAUX          2024060400000000010                                      
1101170002024060400312178800000000000250000000129717001000000302388764STEG                          1747417474201402404696997ACHOUR ALI                            2024LP549095000LP REMBOURSEMENT DES FRAIS MEDICAUX          2024060400000000010                                      
1101170002024060400322178800000000000080000000129717001000000302388764STEG                          1747417474201402412969060BOUGATTAF HOUCINE                     2024LP549096000LP REMBOURSEMENT DES FRAIS MEDICAUX          2024060400000000010                                      
1101170002024060400332178800000000000095838000129717001000000302388764STEG                          1747417474201402412973231EL FAHEM ABDALLAH                     2024LP549103000LP REMBOURSEMENT DES FRAIS MEDICAUX          2024060400000000010                                      
1101170002024060400342178800000000000065333000129717001000000302388764STEG                          0403104031117404004973872LARGUECHE  ABDELMOULA                 2024LP549108000LP REMBOURSEMENT DES FRAIS MEDICAUX          2024060400000000010                                      
1101170002024060400352178800000000000254396000129717001000000302388764STEG                          0370003700019010110679542JAZIRI NAJIB                          2024LP549109000LP REMBOURSEMENT DES FRAIS MEDICAUX          2024060400000000010                                      
1101170002024060400362178800000000000205430000129717001000000302388764STEG                          0505305053000121500168318BELANES RIADH                         2024LP549111000LP REMBOURSEMENT DES FRAIS MEDICAUX          2024060400000000010                                      
1101170002024060400372178800000000000061245000129717001000000302388764STEG                          1290012900000710100650071CHANDOUL NACEUR                       2024LP549120000LP REMBOURSEMENT DES FRAIS MEDICAUX          2024060400000000010                                      
1101170002024060400382178800000000000030000000129717001000000302388764STEG                          0100101001080111040848783OURABI MOHSEN                         2024LP549131000LP REMBOURSEMENT DES FRAIS MEDICAUX          2024060400000000010                                      
1101170002024060400392178800000000000030000000129717001000000302388764STEG                          0100101001080111040848783OURABI MOHSEN                         2024LP549132000LP REMBOURSEMENT DES FRAIS MEDICAUX          2024060400000000010                                      
1101170002024060400402178800000000000270958000129717001000000302388764STEG                          1747417474201402407844259BOUSSANDEL RIDHA                      2024LP549153000LP REMBOURSEMENT DES FRAIS MEDICAUX          2024060400000000010                                      
1101170002024060400412178800000000000151855000129717001000000302388764STEG                          1747417474201402407844259BOUSSANDEL RIDHA                      2024LP549156000LP REMBOURSEMENT DES FRAIS MEDICAUX          2024060400000000010                                      
1101170002024060400422178800000000000172500000129717001000000302388764STEG                          1700117001000000166009480MANAI ZOHAIR                          2024LP549159000LP REMBOURSEMENT DES FRAIS MEDICAUX          2024060400000000010                                      
1101170002024060400432178800000000000263431000129717001000000302388764STEG                          1400014000000100741012304AOUAY KHALED                          2024LP549161000LP REMBOURSEMENT DES FRAIS MEDICAUX          2024060400000000010                                      
1101170002024060400442178800000000000050000000129717001000000302388764STEG                          1747417474201402412845288BEN HASSINE BILEL                     2024LP549168000LP REMBOURSEMENT DES FRAIS MEDICAUX          2024060400000000010                                      
1101170002024060400452178800000000000200000000129717001000000302388764STEG                          0810708107000772023149770ZAYANI  ALEYA                         2024LP549172000LP REMBOURSEMENT DES FRAIS MEDICAUX          2024060400000000010                                      
1101170002024060400462178800000000000245340000129717001000000302388764STEG                          1100211002002580401378885LAABIDI  SALAH                        2024LP549174000LP REMBOURSEMENT DES FRAIS MEDICAUX          2024060400000000010                                      
1101170002024060400472178800000000000270000000129717001000000302388764STEG                          1753517535940662934591472KCHAREM  KHALED                       2024LP549189000LP REMBOURSEMENT DES FRAIS MEDICAUX          2024060400000000010                                      
1101170002024060400482178800000000000450317000129717001000000302388764STEG                          1747417474201402415545574NCIB MOHAMED MALEK                    2024LP549193000LP REMBOURSEMENT DES FRAIS MEDICAUX          2024060400000000010                                      
1101170002024060400492178800000000000119345000129717001000000302388764STEG                          1747417474201402406463270DABBABI ZOUHAIER                      2024LP549208000LP REMBOURSEMENT DES FRAIS MEDICAUX          2024060400000000010                                      
1101170002024060400502178800000000000067451000129717001000000302388764STEG                          1770617706000000296137593BEN ABBES ABDELHAMID                  2024LP549213000LP REMBOURSEMENT DES FRAIS MEDICAUX          2024060400000000010                                      
1101170002024060400512178800000000000057593000129717001000000302388764STEG                          1747417474201402407786544TAREK ZOUAOUI                         2024LP549214000LP REMBOURSEMENT DES FRAIS MEDICAUX          2024060400000000010                                      
1101170002024060400522178800000000000275000000129717001000000302388764STEG                          1747417474201402412514421BEN SLIMENE AHMED                     2024LP549226000LP REMBOURSEMENT DES FRAIS MEDICAUX          2024060400000000010                                      
1101170002024060400532178800000000000250000000129717001000000302388764STEG                          1747417474201402411150892MOHAMMED NASREDDINE                   2024LP549237000LP REMBOURSEMENT DES FRAIS MEDICAUX          2024060400000000010                                      
1101170002024060400542178800000000000050000000129717001000000302388764STEG                          1401114011011100701388602MOULDI DHAOUADI                       2024LP549244000LP REMBOURSEMENT DES FRAIS MEDICAUX          2024060400000000010                                      
1101170002024060400552178800000000000025938000129717001000000302388764STEG                          0540505405000024526229958LOUNISSI SLIM                         2024LP549248000LP REMBOURSEMENT DES FRAIS MEDICAUX          2024060400000000010                                      
1101170002024060400562178800000000000195397000129717001000000302388764STEG                          1747417474201402404114318ABDELLAZIZ ABDELHAMID                 2024LP549252000LP REMBOURSEMENT DES FRAIS MEDICAUX          2024060400000000010                                      
1101170002024060400572178800000000000028758000129717001000000302388764STEG                          0310903109098010100094170ABDELHAMID MECHERGUI                  2024LP549254000LP REMBOURSEMENT DES FRAIS MEDICAUX          2024060400000000010                                      
1101170002024060400582178800000000000060300000129717001000000302388764STEG                          0830608306000074003199619LAFFANDI LOTFI                        2024LP549261000LP REMBOURSEMENT DES FRAIS MEDICAUX          2024060400000000010                                      
1101170002024060400592178800000000000113359000129717001000000302388764STEG                          1753517535940171380113874GUEDRI HOUCINE                        2024LP549263000LP REMBOURSEMENT DES FRAIS MEDICAUX          2024060400000000010                                      
1101170002024060400602178800000000000198379000129717001000000302388764STEG                          0510305103000031537193737BEN MANSOUR TAHAR                     2024LP549268000LP REMBOURSEMENT DES FRAIS MEDICAUX          2024060400000000010                                      
1101170002024060400612178800000000000159000000129717001000000302388764STEG                          1747417474201402405050853SOUDANI MONGI                         2024LP549269000LP REMBOURSEMENT DES FRAIS MEDICAUX          2024060400000000010                                      
1101170002024060400622178800000000000371339000129717001000000302388764STEG                          1747417474201402405661274SOUMRI RIADH                          2024LP549279000LP REMBOURSEMENT DES FRAIS MEDICAUX          2024060400000000010                                      
1101170002024060400632178800000000000112640000129717001000000302388764STEG                          0350303503042010100348706MZALI MAHMOUD                         2024LP549284000LP REMBOURSEMENT DES FRAIS MEDICAUX          2024060400000000010                                      
1101170002024060400642178800000000000184032000129717001000000302388764STEG                          0550205502000017546545682GANNOUN ANOUAR                        2024LP549290000LP REMBOURSEMENT DES FRAIS MEDICAUX          2024060400000000010                                      
1101170002024060400652178800000000000047500000129717001000000302388764STEG                          1747417474201402406065570AYED ABDERRAZAK                       2024LP549292000LP REMBOURSEMENT DES FRAIS MEDICAUX          2024060400000000010                                      
1101170002024060400662178800000000000070490000129717001000000302388764STEG                          0460504605033003873745891BEN ABID ABDELMOMEN                   2024LP549293000LP REMBOURSEMENT DES FRAIS MEDICAUX          2024060400000000010                                      
1101170002024060400672178800000000000254284000129717001000000302388764STEG                          0870508705000412009795078MAHJOUBI MOHAMED                      2024LP549297000LP REMBOURSEMENT DES FRAIS MEDICAUX          2024060400000000010                                      
1101170002024060400682178800000000000067920000129717001000000302388764STEG                          1753517535940662934505433BEN MANSOUR  AMEUR                    2024LP549307000LP REMBOURSEMENT DES FRAIS MEDICAUX          2024060400000000010                                      
1101170002024060400692178800000000000129060000129717001000000302388764STEG                          1747417474201402411806515REBII ABDESSALEM                      2024LP549309000LP REMBOURSEMENT DES FRAIS MEDICAUX          2024060400000000010                                      
1101170002024060400702178800000000000087900000129717001000000302388764STEG                          0410904109064404000580561SASSI ABDELJABBAR                     2024LP549310000LP REMBOURSEMENT DES FRAIS MEDICAUX          2024060400000000010                                      
1101170002024060400712178800000000000037557000129717001000000302388764STEG                          0340903409087010100310140TAHRI  ABDELLATIF                     2024LP549311000LP REMBOURSEMENT DES FRAIS MEDICAUX          2024060400000000010                                      
1101170002024060400722178800000000000250000000129717001000000302388764STEG                          1409914099099100700267167HAMMAMI HEDI                          2024LP549313000LP REMBOURSEMENT DES FRAIS MEDICAUX          2024060400000000010                                      
1101170002024060400732178800000000000225000000129717001000000302388764STEG                          1400014000000100716760170AKKARI  MOHAMED                       2024LP549318000LP REMBOURSEMENT DES FRAIS MEDICAUX          2024060400000000010                                      
1101170002024060400742178800000000000070760000129717001000000302388764STEG                          0320003200012010110577650HAJJI  IMED                           2024LP549323000LP REMBOURSEMENT DES FRAIS MEDICAUX          2024060400000000010                                      
1101170002024060400752178800000000000046842000129717001000000302388764STEG                          1270312703000440102400536AROUS WALID                           2024LP549330000LP REMBOURSEMENT DES FRAIS MEDICAUX          2024060400000000010                                      
1101170002024060400762178800000000000350000000129717001000000302388764STEG                          0807208072022084003813019MECHRI HABIB                          2024LP549331000LP REMBOURSEMENT DES FRAIS MEDICAUX          2024060400000000010                                      
1101170002024060400772178800000000000033700000129717001000000302388764STEG                          0550605506000060544005356CHARRADA EZZEDDINE                    2024LP549337000LP REMBOURSEMENT DES FRAIS MEDICAUX          2024060400000000010                                      
1101170002024060400782178800000000000097297000129717001000000302388764STEG                          2501725017000000008259955BEN ADEL SLAH                         2024LP549338000LP REMBOURSEMENT DES FRAIS MEDICAUX          2024060400000000010                                      
1101170002024060400792178800000000000037871000129717001000000302388764STEG                          0300003000010010122176310EZZEDDINE FETHI                       2024LP549340000LP REMBOURSEMENT DES FRAIS MEDICAUX          2024060400000000010                                      
1101170002024060400802178800000000000200000000129717001000000302388764STEG                          1003910039152500281478880LANOUAR SAMIR                         2024LP549341000LP REMBOURSEMENT DES FRAIS MEDICAUX          2024060400000000010                                      
1101170002024060400812178800000000000123466000129717001000000302388764STEG                          1747417474201404088652111DEBBABI AHMED                         2024LP549352000LP REMBOURSEMENT DES FRAIS MEDICAUX          2024060400000000010                                      
1101170002024060400822178800000000000078000000129717001000000302388764STEG                          1747417474201402414541527BELMABROUK KAMEL                      2024LP549353000LP REMBOURSEMENT DES FRAIS MEDICAUX          2024060400000000010                                      
1101170002024060400832178800000000000093660000129717001000000302388764STEG                          1747417474201402408268343MABROUK ADEL                          2024LP549357000LP REMBOURSEMENT DES FRAIS MEDICAUX          2024060400000000010                                      
1101170002024060400842178800000000000049095000129717001000000302388764STEG                          1700117001000000034815622HMIDA RAMI                            2024LP549358000LP REMBOURSEMENT DES FRAIS MEDICAUX          2024060400000000010                                      
1101170002024060400852178800000000000052605000129717001000000302388764STEG                          1040110401061100340278842GESMI MOHAMED                         2024LP549363000LP REMBOURSEMENT DES FRAIS MEDICAUX          2024060400000000010                                      
1101170002024060400862178800000000000088039000129717001000000302388764STEG                          2505325053000009249108932MKADMI TAOUFIK                        2024LP549366000LP REMBOURSEMENT DES FRAIS MEDICAUX          2024060400000000010                                      
1101170002024060400872178800000000000250000000129717001000000302388764STEG                          2505325053000009249108932MKADMI TAOUFIK                        2024LP549367000LP REMBOURSEMENT DES FRAIS MEDICAUX          2024060400000000010                                      
1101170002024060400882178800000000000250000000129717001000000302388764STEG                          2505325053000009249108932MKADMI TAOUFIK                        2024LP549369000LP REMBOURSEMENT DES FRAIS MEDICAUX          2024060400000000010                                      
1101170002024060400892178800000000000122885000129717001000000302388764STEG                          0530105301000011529939510GUEDDICH  TAOUFIK                     2024LP549372000LP REMBOURSEMENT DES FRAIS MEDICAUX          2024060400000000010                                      
1101170002024060400902178800000000000080205000129717001000000302388764STEG                          2505325053000009249108932MKADMI TAOUFIK                        2024LP549374000LP REMBOURSEMENT DES FRAIS MEDICAUX          2024060400000000010                                      
1101170002024060400912178800000000000045000000129717001000000302388764STEG                          1040110401061100340278842GESMI MOHAMED                         2024LP549377000LP REMBOURSEMENT DES FRAIS MEDICAUX          2024060400000000010                                      
1101170002024060400922178800000000000025085000129717001000000302388764STEG                          0560805608000043504352691MZOUGHI YOUSSEF                       2024LP549378000LP REMBOURSEMENT DES FRAIS MEDICAUX          2024060400000000010                                      
1101170002024060400932178800000000000082063000129717001000000302388764STEG                          1270512705000000223512631JELALI MOHAMED TAIEB                  2024LP549382000LP REMBOURSEMENT DES FRAIS MEDICAUX          2024060400000000010                                      
1101170002024060400942178800000000000103500000129717001000000302388764STEG                          1747417474201402406205735SOHBANI WALID                         2024LP549387000LP REMBOURSEMENT DES FRAIS MEDICAUX          2024060400000000010                                      
1101170002024060400952178800000000000074557000129717001000000302388764STEG                          0510305103000031538308073HAMROUNI TAREK                        2024LP549389000LP REMBOURSEMENT DES FRAIS MEDICAUX          2024060400000000010                                      
1101170002024060400962178800000000000050000000129717001000000302388764STEG                          1240512405000000221708448KHMISSI RAFIK                         2024LP549391000LP REMBOURSEMENT DES FRAIS MEDICAUX          2024060400000000010                                      
1101170002024060400972178800000000000150000000129717001000000302388764STEG                          0550005500000022502120184AYACHI  ANOUAR                        2024LP549403000LP REMBOURSEMENT DES FRAIS MEDICAUX          2024060400000000010                                      
1101170002024060400982178800000000000300000000129717001000000302388764STEG                          0312103121114010100244926DJERIDI HAYET                         2024LP549408000LP REMBOURSEMENT DES FRAIS MEDICAUX          2024060400000000010                                      
1101170002024060400992178800000000000059900000129717001000000302388764STEG                          1240512405000000221708448KHMISSI RAFIK                         2024LP549409000LP REMBOURSEMENT DES FRAIS MEDICAUX          2024060400000000010                                      
1101170002024060401002178800000000000110737000129717001000000302388764STEG                          0450404504011404006136049jeridi ABDESSALEM                     2024LP549411000LP REMBOURSEMENT DES FRAIS MEDICAUX          2024060400000000010                                      
1101170002024060401012178800000000000030000000129717001000000302388764STEG                          1747417474201402412357863JERIDI MAKRAM                         2024LP549412000LP REMBOURSEMENT DES FRAIS MEDICAUX          2024060400000000010                                      
1101170002024060401022178800000000000121279000129717001000000302388764STEG                          0890608906000142003736496ZARZISSI  SAMIR                       2024LP549414000LP REMBOURSEMENT DES FRAIS MEDICAUX          2024060400000000010                                      
1101170002024060401032178800000000000250000000129717001000000302388764STEG                          0450204502040404004690844BEN SAMIR MABROUK                     2024LP549419000LP REMBOURSEMENT DES FRAIS MEDICAUX          2024060400000000010                                      
1101170002024060401042178800000000000109281000129717001000000302388764STEG                          1747417474201402414102602GANNOUN MOHAMED                       2024LP549422000LP REMBOURSEMENT DES FRAIS MEDICAUX          2024060400000000010                                      
1101170002024060401052178800000000000110408000129717001000000302388764STEG                          0750007500000410551270391GALLAS  BOURAOUI                      2024LP549423000LP REMBOURSEMENT DES FRAIS MEDICAUX          2024060400000000010                                      
1101170002024060401062178800000000000096329000129717001000000302388764STEG                          0530305303000054528183034KSONTINI HAFEDH                       2024LP549424000LP REMBOURSEMENT DES FRAIS MEDICAUX          2024060400000000010                                      
1101170002024060401072178800000000000164683000129717001000000302388764STEG                          0313403134137010110092377BAGHDEDI AMAL                         2024LP549428000LP REMBOURSEMENT DES FRAIS MEDICAUX          2024060400000000010                                      
1101170002024060401082178800000000000076369000129717001000000302388764STEG                          0380603806081010100096247BEN ACHMA AHMED                       2024LP549430000LP REMBOURSEMENT DES FRAIS MEDICAUX          2024060400000000010                                      
1101170002024060401092178800000000000300000000129717001000000302388764STEG                          0850108501000212005680022GHOUL ALI                             2024LP549434000LP REMBOURSEMENT DES FRAIS MEDICAUX          2024060400000000010                                      
1101170002024060401102178800000000000110407000129717001000000302388764STEG                          0340703407022010110223097SOLTANI  MONGI                        2024LP549437000LP REMBOURSEMENT DES FRAIS MEDICAUX          2024060400000000010                                      
1101170002024060401112178800000000000077963000129717001000000302388764STEG                          1747417474201402408279013BITRI WALID                           2024LP549439000LP REMBOURSEMENT DES FRAIS MEDICAUX          2024060400000000010                                      
1101170002024060401122178800000000000234034000129717001000000302388764STEG                          0404904049134404000376837AYDI TAREK                            2024LP549440000LP REMBOURSEMENT DES FRAIS MEDICAUX          2024060400000000010                                      
1101170002024060401132178800000000000056795000129717001000000302388764STEG                          0407404074159001070234857SELLAMI MOHAMED                       2024LP549444000LP REMBOURSEMENT DES FRAIS MEDICAUX          2024060400000000010                                      
1101170002024060401142178800000000000142861000129717001000000302388764STEG                          1747417474201402409153662KAMMOUN WAJDI                         2024LP549448000LP REMBOURSEMENT DES FRAIS MEDICAUX          2024060400000000010                                      
1101170002024060401152178800000000000126006000129717001000000302388764STEG                          1203112031000000210906189ROUISS HASSEN                         2024LP549450000LP REMBOURSEMENT DES FRAIS MEDICAUX          2024060400000000010                                      
1101170002024060401162178800000000000170643000129717001000000302388764STEG                          1747417474201402411621827REJAIBA MABROUK                       2024LP549453000LP REMBOURSEMENT DES FRAIS MEDICAUX          2024060400000000010                                      
1101170002024060401172178800000000000153821000129717001000000302388764STEG                          0312103121114010100360841AMARA  HECHMI                         2024LP549463000LP REMBOURSEMENT DES FRAIS MEDICAUX          2024060400000000010                                      
1101170002024060401182178800000000000119100000129717001000000302388764STEG                          1747417474201402407465668BEN BRIK ABDALLAH                     2024LP549465000LP REMBOURSEMENT DES FRAIS MEDICAUX          2024060400000000010                                      
1101170002024060401192178800000000000084715000129717001000000302388764STEG                          1747417474201402188794494SOUGA KHALED                          2024LP549479000LP REMBOURSEMENT DES FRAIS MEDICAUX          2024060400000000010                                      
1101170002024060401202178800000000000060000000129717001000000302388764STEG                          0340803408097010100199881ATHIMNI SAMIR                         2024LP549482000LP REMBOURSEMENT DES FRAIS MEDICAUX          2024060400000000010                                      
1101170002024060401212178800000000000042000000129717001000000302388764STEG                          0380003800034010110445663HAMED MOHSEN                          2024LP549486000LP REMBOURSEMENT DES FRAIS MEDICAUX          2024060400000000010                                      
1101170002024060401222178800000000000063746000129717001000000302388764STEG                          1700017000000000109043268BERACHECH WALID                       2024LP549487000LP REMBOURSEMENT DES FRAIS MEDICAUX          2024060400000000010                                      
1101170002024060401232178800000000000201500000129717001000000302388764STEG                          1747417474201402405535853BOUHLEL HASSEN                        2024LP549489000LP REMBOURSEMENT DES FRAIS MEDICAUX          2024060400000000010                                      
1101170002024060401242178800000000000134100000129717001000000302388764STEG                          0590005900000023510367229AOUIDA JAMAL                          2024LP549496000LP REMBOURSEMENT DES FRAIS MEDICAUX          2024060400000000010                                      
1101170002024060401252178800000000000081496000129717001000000302388764STEG                          1747417474201402411881884THAMRI LASSAD                         2024LP549497000LP REMBOURSEMENT DES FRAIS MEDICAUX          2024060400000000010                                      
1101170002024060401262178800000000000050000000129717001000000302388764STEG                          0700207002000210554708666BOUBAKERI  AMMAR                      2024LP549498000LP REMBOURSEMENT DES FRAIS MEDICAUX          2024060400000000010                                      
