110104   20240611000111788000000000000000000368037860000000353                                                                                                                                                                                                                                   
110104   2024061100012178800000000000000000000158173000131104012086006134058494STEG                          1040610406084105831578805TAWFIKNSIRI                           2024LP527728000LP REMBOURSEMENT DES FRAIS MEDICAUX          2024061100000000010                                      
110104   1101170002024061100022178800000000000086031000131104012086006134058494STEG                          1720617206000000287185168BENMAAOUIMOUNA                        2024LP535238000LP REMBOURSEMENT DES FRAIS MEDICAUX          2024061100000000010                                      
110104   1101170002024061100032178800000000000039900000131104012086006134058494STEG                          1753517535940663018035916CHAABANEMOHAMED                       2024LP535385000LP REMBOURSEMENT DES FRAIS MEDICAUX          2024061100000000010                                      
110104   1101170002024061100042178800000000000160071000131104012086006134058494STEG                          1102611026002164700878867ELMEHRICHEDLY                         2024LP535635000LP REMBOURSEMENT DES FRAIS MEDICAUX          2024061100000000010                                      
110104   1101170002024061100052178800000000000117383000131104012086006134058494STEG                          1720617206000000287185168BENMAAOUIMOUNA                        2024LP536216000LP REMBOURSEMENT DES FRAIS MEDICAUX          2024061100000000010                                      
110104   1101170002024061100062178800000000000044295000131104012086006134058494STEG                          1720617206000000287185168BENMAAOUIMOUNA                        2024LP536225000LP REMBOURSEMENT DES FRAIS MEDICAUX          2024061100000000010                                      
110104   1101170002024061100072178800000000000099872000131104012086006134058494STEG                          0311603116105010110263567ELHABIBMOURAD                         2024LP538893000LP REMBOURSEMENT DES FRAIS MEDICAUX          2024061100000000010                                      
110104   1101170002024061100082178800000000000079280000131104012086006134058494STEG                          1700117001000000017700360DAGHFOUSAHLEM                         2024LP539779000LP REMBOURSEMENT DES FRAIS MEDICAUX          2024061100000000010                                      
110104   1101170002024061100092178800000000000078510000131104012086006134058494STEG                          0380003800034010100297814GUETTARIAMOR                          2024LP541484000LP REMBOURSEMENT DES FRAIS MEDICAUX          2024061100000000010                                      
110104   1101170002024061100102178800000000000092500000131104012086006134058494STEG                          0703507035002010551519574ABDELMOULAHADEL                       2024LP544155000LP REMBOURSEMENT DES FRAIS MEDICAUX          2024061100000000010                                      
110104   1101170002024061100112178800000000000253525000131104012086006134058494STEG                          1747417474201402406496250HAMDOUNLASSAAD                        2024LP545305000LP REMBOURSEMENT DES FRAIS MEDICAUX          2024061100000000010                                      
110104   1101170002024061100122178800000000000036223000131104012086006134058494STEG                          1747417474201402411284558OMEZZINEMOKHTAR                       2024LP545469000LP REMBOURSEMENT DES FRAIS MEDICAUX          2024061100000000010                                      
110104   1101170002024061100132178800000000000106218000131104012086006134058494STEG                          0380103801040010100221712FRAJBRAHIM                            2024LP545762000LP REMBOURSEMENT DES FRAIS MEDICAUX          2024061100000000010                                      
110104   1101170002024061100142178800000000000250000000131104012086006134058494STEG                          1770617706000000295813613BENMOHAMEDFADHEL                      2024LP546349000LP REMBOURSEMENT DES FRAIS MEDICAUX          2024061100000000010                                      
110104   1101170002024061100152178800000000001080000000131104012086006134058494STEG                          1747417474201402413741277ZAIERSAMI                             2024LP547046000LP REMBOURSEMENT DES FRAIS MEDICAUX          2024061100000000010                                      
110104   1101170002024061100162178800000000000207000000131104012086006134058494STEG                          0810408104000742002428718KBAIEREZZEDDINE                       2024LP548675000LP REMBOURSEMENT DES FRAIS MEDICAUX          2024061100000000010                                      
110104   1101170002024061100172178800000000000058829000131104012086006134058494STEG                          1747417474201402406205735SOHBANIWALID                          2024LP549484000LP REMBOURSEMENT DES FRAIS MEDICAUX          2024061100000000010                                      
110104   1101170002024061100182178800000000000250000000131104012086006134058494STEG                          1400014000000100726212820SLIMANEAMOR                           2024LP549925000LP REMBOURSEMENT DES FRAIS MEDICAUX          2024061100000000010                                      
110104   1101170002024061100192178800000000000064500000131104012086006134058494STEG                          1747417474201402407689156SEIHIMAKREM                           2024LP550198000LP REMBOURSEMENT DES FRAIS MEDICAUX          2024061100000000010                                      
110104   1101170002024061100202178800000000000045000000131104012086006134058494STEG                          2502825028000000044632326BENABDALLAHMASSOUD                    2024LP550766000LP REMBOURSEMENT DES FRAIS MEDICAUX          2024061100000000010                                      
110104   1101170002024061100212178800000000000045000000131104012086006134058494STEG                          0540105401000016503504668TRABELSIABDELKARIM                    2024LP550767000LP REMBOURSEMENT DES FRAIS MEDICAUX          2024061100000000010                                      
110104   1101170002024061100222178800000000000440000000131104012086006134058494STEG                          0805108051020082000472773MEZLINIABDELKADER                     2024LP550896000LP REMBOURSEMENT DES FRAIS MEDICAUX          2024061100000000010                                      
110104   1101170002024061100232178800000000000078624000131104012086006134058494STEG                          2800528005038457607000122KLIBIFATHI                            2024LP550905000LP REMBOURSEMENT DES FRAIS MEDICAUX          2024061100000000010                                      
110104   1101170002024061100242178800000000000138277000131104012086006134058494STEG                          1747417474201402411621827REJAIBAMABROUK                        2024LP551091000LP REMBOURSEMENT DES FRAIS MEDICAUX          2024061100000000010                                      
110104   1101170002024061100252178800000000000382230000131104012086006134058494STEG                          1747417474201402403532706HAMMAMIFATHI                          2024LP551093000LP REMBOURSEMENT DES FRAIS MEDICAUX          2024061100000000010                                      
110104   1101170002024061100262178800000000000175596000131104012086006134058494STEG                          2503125031000000014232973KHOUAJARAOUF                          2024LP551163000LP REMBOURSEMENT DES FRAIS MEDICAUX          2024061100000000010                                      
110104   1101170002024061100272178800000000000153700000131104012086006134058494STEG                          1747417474201402407324533CHOUAIBIMOHAMEDTAIEB                  2024LP551249000LP REMBOURSEMENT DES FRAIS MEDICAUX          2024061100000000010                                      
110104   1101170002024061100282178800000000000012750000131104012086006134058494STEG                          1720617206000000233513225RABHIRADHIA                           2024LP551250000LP REMBOURSEMENT DES FRAIS MEDICAUX          2024061100000000010                                      
110104   1101170002024061100292178800000000000102300000131104012086006134058494STEG                          1700117001000000045037676SNOUSSIMAROUANE                       2024LP551304000LP REMBOURSEMENT DES FRAIS MEDICAUX          2024061100000000010                                      
110104   1101170002024061100302178800000000000258894000131104012086006134058494STEG                          1747417474201402411045065CHAREFEDDINEBELGACEM                  2024LP551308000LP REMBOURSEMENT DES FRAIS MEDICAUX          2024061100000000010                                      
110104   1101170002024061100312178800000000000089503000131104012086006134058494STEG                          1747417474201402413906177BOUGHANMIWISSEM                       2024LP551316000LP REMBOURSEMENT DES FRAIS MEDICAUX          2024061100000000010                                      
110104   1101170002024061100322178800000000000228342000131104012086006134058494STEG                          1747417474201402406551443OUASSARKARIM                          2024LP551331000LP REMBOURSEMENT DES FRAIS MEDICAUX          2024061100000000010                                      
110104   1101170002024061100332178800000000000059027000131104012086006134058494STEG                          1747417474201402146503076AJARISABEUR                           2024LP551344000LP REMBOURSEMENT DES FRAIS MEDICAUX          2024061100000000010                                      
110104   1101170002024061100342178800000000000052250000131104012086006134058494STEG                          1747417474201404191623625HAMMEDCHAWKI                          2024LP551348000LP REMBOURSEMENT DES FRAIS MEDICAUX          2024061100000000010                                      
110104   1101170002024061100352178800000000000060202000131104012086006134058494STEG                          1747417474201402407346843BELHADJALAYASABEUR                    2024LP551372000LP REMBOURSEMENT DES FRAIS MEDICAUX          2024061100000000010                                      
110104   1101170002024061100362178800000000000221983000131104012086006134058494STEG                          0390203902013010100383223HADJHASSENRAJA                        2024LP551403000LP REMBOURSEMENT DES FRAIS MEDICAUX          2024061100000000010                                      
110104   1101170002024061100372178800000000000087377000131104012086006134058494STEG                          1747417474201402405928509BORGINABIL                            2024LP551412000LP REMBOURSEMENT DES FRAIS MEDICAUX          2024061100000000010                                      
110104   1101170002024061100382178800000000000150000000131104012086006134058494STEG                          1004710047160000190678870BENAOUIDAKHALED                       2024LP551415000LP REMBOURSEMENT DES FRAIS MEDICAUX          2024061100000000010                                      
110104   1101170002024061100392178800000000000045000000131104012086006134058494STEG                          1700117001000000073336165DOUIRIMAHMOUD                         2024LP551443000LP REMBOURSEMENT DES FRAIS MEDICAUX          2024061100000000010                                      
110104   1101170002024061100402178800000000000350000000131104012086006134058494STEG                          1700117001000000073336165DOUIRIMAHMOUD                         2024LP551444000LP REMBOURSEMENT DES FRAIS MEDICAUX          2024061100000000010                                      
110104   1101170002024061100412178800000000000147283000131104012086006134058494STEG                          1230012300000690100132223YOUNESMONDHER                         2024LP551454000LP REMBOURSEMENT DES FRAIS MEDICAUX          2024061100000000010                                      
110104   1101170002024061100422178800000000000050000000131104012086006134058494STEG                          1747417474201402413378303ALIZIDI                               2024LP551468000LP REMBOURSEMENT DES FRAIS MEDICAUX          2024061100000000010                                      
110104   1101170002024061100432178800000000000156210000131104012086006134058494STEG                          1747417474201402408711245FEJJAMAROUEN                          2024LP551471000LP REMBOURSEMENT DES FRAIS MEDICAUX          2024061100000000010                                      
110104   1101170002024061100442178800000000000015683000131104012086006134058494STEG                          1747417474201402408212180KTHIRIRAFIK                           2024LP551476000LP REMBOURSEMENT DES FRAIS MEDICAUX          2024061100000000010                                      
110104   1101170002024061100452178800000000000060000000131104012086006134058494STEG                          1747417474201402408863147MAAOUIHOSNI                           2024LP551484000LP REMBOURSEMENT DES FRAIS MEDICAUX          2024061100000000010                                      
110104   1101170002024061100462178800000000000072726000131104012086006134058494STEG                          0540005400000004518417028KHEMIRIMAJED                          2024LP551501000LP REMBOURSEMENT DES FRAIS MEDICAUX          2024061100000000010                                      
110104   1101170002024061100472178800000000000060000000131104012086006134058494STEG                          1747417474201402404865001HASSENMEDLOTFI                        2024LP551504000LP REMBOURSEMENT DES FRAIS MEDICAUX          2024061100000000010                                      
110104   1101170002024061100482178800000000000059304000131104012086006134058494STEG                          0104101041085111006344997AYACHIRAOUF                           2024LP551505000LP REMBOURSEMENT DES FRAIS MEDICAUX          2024061100000000010                                      
110104   1101170002024061100492178800000000000084100000131104012086006134058494STEG                          1747417474201402404865001HASSENMEDLOTFI                        2024LP551510000LP REMBOURSEMENT DES FRAIS MEDICAUX          2024061100000000010                                      
110104   1101170002024061100502178800000000000077100000131104012086006134058494STEG                          1747417474201402404865001HASSENMEDLOTFI                        2024LP551512000LP REMBOURSEMENT DES FRAIS MEDICAUX          2024061100000000010                                      
110104   1101170002024061100512178800000000000300000000131104012086006134058494STEG                          0540005400000004518674175JERBIMOHAMEDHABIB                     2024LP551516000LP REMBOURSEMENT DES FRAIS MEDICAUX          2024061100000000010                                      
110104   1101170002024061100522178800000000000082272000131104012086006134058494STEG                          1747417474201402409372203ABIDIOUSSEMA                          2024LP551519000LP REMBOURSEMENT DES FRAIS MEDICAUX          2024061100000000010                                      
110104   1101170002024061100532178800000000000093688000131104012086006134058494STEG                          2511925119000000018051007GALLALAMAROUENE                       2024LP551526000LP REMBOURSEMENT DES FRAIS MEDICAUX          2024061100000000010                                      
110104   1101170002024061100542178800000000000118834000131104012086006134058494STEG                          2505925059000000022955990BESKRIGLEY                            2024LP551537000LP REMBOURSEMENT DES FRAIS MEDICAUX          2024061100000000010                                      
110104   1101170002024061100552178800000000000076998000131104012086006134058494STEG                          1747417474201402405116716LOGHMARIWALID                         2024LP551543000LP REMBOURSEMENT DES FRAIS MEDICAUX          2024061100000000010                                      
110104   1101170002024061100562178800000000000020000000131104012086006134058494STEG                          1747417474201402410649014BENJABALLAHOUSSAMA                    2024LP551549000LP REMBOURSEMENT DES FRAIS MEDICAUX          2024061100000000010                                      
110104   1101170002024061100572178800000000000188680000131104012086006134058494STEG                          1747417474201402405208284OUESLATIRIDHA                         2024LP551603000LP REMBOURSEMENT DES FRAIS MEDICAUX          2024061100000000010                                      
110104   1101170002024061100582178800000000000114000000131104012086006134058494STEG                          1012810128119103672478884SEDKIRADHWEN                          2024LP551616000LP REMBOURSEMENT DES FRAIS MEDICAUX          2024061100000000010                                      
110104   1101170002024061100592178800000000000064894000131104012086006134058494STEG                          1747417474201402412114393JOUILIKHALIFA                         2024LP551629000LP REMBOURSEMENT DES FRAIS MEDICAUX          2024061100000000010                                      
110104   1101170002024061100602178800000000000221995000131104012086006134058494STEG                          2503925039000000090037822FERDAOUSHAMZA                         2024LP551653000LP REMBOURSEMENT DES FRAIS MEDICAUX          2024061100000000010                                      
110104   1101170002024061100612178800000000000100000000131104012086006134058494STEG                          0430904309068404003324512BENMAHMOUDSGAEIR                      2024LP551656000LP REMBOURSEMENT DES FRAIS MEDICAUX          2024061100000000010                                      
110104   1101170002024061100622178800000000000220630000131104012086006134058494STEG                          2503925039000000090037822FERDAOUSHAMZA                         2024LP551660000LP REMBOURSEMENT DES FRAIS MEDICAUX          2024061100000000010                                      
110104   1101170002024061100632178800000000000077261000131104012086006134058494STEG                          1747417474201402403884234KAROUSSALEM                           2024LP551664000LP REMBOURSEMENT DES FRAIS MEDICAUX          2024061100000000010                                      
110104   1101170002024061100642178800000000000054536000131104012086006134058494STEG                          1747417474201402412183845AOUKABKAIS                            2024LP551685000LP REMBOURSEMENT DES FRAIS MEDICAUX          2024061100000000010                                      
110104   1101170002024061100652178800000000000044245000131104012086006134058494STEG                          1747417474201402407985394DHIFALLAHNACEUR                       2024LP551728000LP REMBOURSEMENT DES FRAIS MEDICAUX          2024061100000000010                                      
110104   1101170002024061100662178800000000000084257000131104012086006134058494STEG                          1747417474201402413404784OMARBOUSSORRA                         2024LP551733000LP REMBOURSEMENT DES FRAIS MEDICAUX          2024061100000000010                                      
110104   1101170002024061100672178800000000000099202000131104012086006134058494STEG                          1747417474201402407432688YAHIAKHEMAIES                         2024LP551738000LP REMBOURSEMENT DES FRAIS MEDICAUX          2024061100000000010                                      
110104   1101170002024061100682178800000000000044621000131104012086006134058494STEG                          1747417474201402413413805MESSOUDIMOUNIR                        2024LP551739000LP REMBOURSEMENT DES FRAIS MEDICAUX          2024061100000000010                                      
110104   1101170002024061100692178800000000000083705000131104012086006134058494STEG                          2508325083000007583111436ABDELHEDIKAMEL                        2024LP551742000LP REMBOURSEMENT DES FRAIS MEDICAUX          2024061100000000010                                      
110104   1101170002024061100702178800000000000045000000131104012086006134058494STEG                          0390003900036010111103961ZORGUIMOHAMED                         2024LP551769000LP REMBOURSEMENT DES FRAIS MEDICAUX          2024061100000000010                                      
110104   1101170002024061100712178800000000000054000000131104012086006134058494STEG                          0408104081166404002258604OUNITAOUFIK                           2024LP551778000LP REMBOURSEMENT DES FRAIS MEDICAUX          2024061100000000010                                      
110104   1101170002024061100722178800000000000119285000131104012086006134058494STEG                          1747417474201402408299868BAYOUDHRAOUF                          2024LP551788000LP REMBOURSEMENT DES FRAIS MEDICAUX          2024061100000000010                                      
110104   1101170002024061100732178800000000000058082000131104012086006134058494STEG                          0370203702006010122313118SEGNIFETHI                            2024LP551798000LP REMBOURSEMENT DES FRAIS MEDICAUX          2024061100000000010                                      
110104   1101170002024061100742178800000000000073831000131104012086006134058494STEG                          1747417474201402403914789DAOUDMORCHED                          2024LP551803000LP REMBOURSEMENT DES FRAIS MEDICAUX          2024061100000000010                                      
110104   1101170002024061100752178800000000000299063000131104012086006134058494STEG                          0510305103000031520908019KHEDDERHAYET                          2024LP551811000LP REMBOURSEMENT DES FRAIS MEDICAUX          2024061100000000010                                      
110104   1101170002024061100762178800000000000155500000131104012086006134058494STEG                          1200812008000130103544271MADDARSLAH                            2024LP551813000LP REMBOURSEMENT DES FRAIS MEDICAUX          2024061100000000010                                      
110104   1101170002024061100772178800000000000076341000131104012086006134058494STEG                          1410214102102100707333138ARFAOUIAMMAR                          2024LP551816000LP REMBOURSEMENT DES FRAIS MEDICAUX          2024061100000000010                                      
110104   1101170002024061100782178800000000000212748000131104012086006134058494STEG                          0380103801040010100184949CHERIFBELGACEM                        2024LP551821000LP REMBOURSEMENT DES FRAIS MEDICAUX          2024061100000000010                                      
110104   1101170002024061100792178800000000000060000000131104012086006134058494STEG                          1700117001000000343746751MEKSIAHMED                            2024LP551823000LP REMBOURSEMENT DES FRAIS MEDICAUX          2024061100000000010                                      
110104   1101170002024061100802178800000000000060000000131104012086006134058494STEG                          0370203702006010100295864TROUDIABDELHAMID                      2024LP551826000LP REMBOURSEMENT DES FRAIS MEDICAUX          2024061100000000010                                      
110104   1101170002024061100812178800000000000186972000131104012086006134058494STEG                          0812208122029022000551678MRAYEHABDELKADER                      2024LP551828000LP REMBOURSEMENT DES FRAIS MEDICAUX          2024061100000000010                                      
110104   1101170002024061100822178800000000000188924000131104012086006134058494STEG                          2502325023000000012099818AMDOUNIMOHAMED                        2024LP551830000LP REMBOURSEMENT DES FRAIS MEDICAUX          2024061100000000010                                      
110104   1101170002024061100832178800000000000151694000131104012086006134058494STEG                          1747417474201402405865944MRADMOHAMEDMOURAD                     2024LP551836000LP REMBOURSEMENT DES FRAIS MEDICAUX          2024061100000000010                                      
110104   1101170002024061100842178800000000000050000000131104012086006134058494STEG                          1747417474201402412969060BOUGATTAFHOUCINE                      2024LP551838000LP REMBOURSEMENT DES FRAIS MEDICAUX          2024061100000000010                                      
110104   1101170002024061100852178800000000000120500000131104012086006134058494STEG                          1010310103056102204078826METOUIABDELAZIZ                       2024LP551842000LP REMBOURSEMENT DES FRAIS MEDICAUX          2024061100000000010                                      
110104   1101170002024061100862178800000000000027788000131104012086006134058494STEG                          1747417474201402412099649BENAMMARAMINE                         2024LP551843000LP REMBOURSEMENT DES FRAIS MEDICAUX          2024061100000000010                                      
110104   1101170002024061100872178800000000000088574000131104012086006134058494STEG                          0510705107000048581862643BECHAOUECHRIM                         2024LP551847000LP REMBOURSEMENT DES FRAIS MEDICAUX          2024061100000000010                                      
110104   1101170002024061100882178800000000000320383000131104012086006134058494STEG                          0560805608000043500411387LKIMAMOHAMEDALI                       2024LP551851000LP REMBOURSEMENT DES FRAIS MEDICAUX          2024061100000000010                                      
110104   1101170002024061100892178800000000000150000000131104012086006134058494STEG                          1400514005005100706556556BENGHALISAMI                          2024LP551853000LP REMBOURSEMENT DES FRAIS MEDICAUX          2024061100000000010                                      
110104   1101170002024061100902178800000000000063045000131104012086006134058494STEG                          1747417474201402406566284BENFEKIHSLIM                          2024LP551855000LP REMBOURSEMENT DES FRAIS MEDICAUX          2024061100000000010                                      
110104   1101170002024061100912178800000000000152077000131104012086006134058494STEG                          1747417474201402406566284BENFEKIHSLIM                          2024LP551858000LP REMBOURSEMENT DES FRAIS MEDICAUX          2024061100000000010                                      
110104   1101170002024061100922178800000000000285440000131104012086006134058494STEG                          0550005500000022500195219MANSOURALI                            2024LP551861000LP REMBOURSEMENT DES FRAIS MEDICAUX          2024061100000000010                                      
110104   1101170002024061100932178800000000000054778000131104012086006134058494STEG                          1747417474201402412710846BOUALLEGUEOUSSEMA                     2024LP551862000LP REMBOURSEMENT DES FRAIS MEDICAUX          2024061100000000010                                      
110104   1101170002024061100942178800000000000050000000131104012086006134058494STEG                          1747417474201402413641464JOMAAKAMEL                            2024LP551863000LP REMBOURSEMENT DES FRAIS MEDICAUX          2024061100000000010                                      
110104   1101170002024061100952178800000000000058159000131104012086006134058494STEG                          1747417474201402414037418TOUATISAID                            2024LP551866000LP REMBOURSEMENT DES FRAIS MEDICAUX          2024061100000000010                                      
110104   1101170002024061100962178800000000000101120000131104012086006134058494STEG                          1747417474201402406212331NOUIRAMOHAMED                         2024LP551868000LP REMBOURSEMENT DES FRAIS MEDICAUX          2024061100000000010                                      
110104   1101170002024061100972178800000000000041940000131104012086006134058494STEG                          2505825058000000115135135SEGNIIMED                             2024LP551870000LP REMBOURSEMENT DES FRAIS MEDICAUX          2024061100000000010                                      
110104   1101170002024061100982178800000000000037641000131104012086006134058494STEG                          1747417474201402408272514AMAMOUHOSNI                           2024LP551873000LP REMBOURSEMENT DES FRAIS MEDICAUX          2024061100000000010                                      
110104   1101170002024061100992178800000000000168100000131104012086006134058494STEG                          1747417474201402413189444SEBRIZOUHAIR                          2024LP551874000LP REMBOURSEMENT DES FRAIS MEDICAUX          2024061100000000010                                      
110104   1101170002024061101002178800000000000081671000131104012086006134058494STEG                          1050410504017088068578845SAHRAOUIALI                           2024LP551878000LP REMBOURSEMENT DES FRAIS MEDICAUX          2024061100000000010                                      
110104   1101170002024061101012178800000000000051119000131104012086006134058494STEG                          1747417474201402401370479HAJSASSIMAJDI                         2024LP551885000LP REMBOURSEMENT DES FRAIS MEDICAUX          2024061100000000010                                      
110104   1101170002024061101022178800000000000066842000131104012086006134058494STEG                          0811108111028012001268423KARRAYRAEF                            2024LP551890000LP REMBOURSEMENT DES FRAIS MEDICAUX          2024061100000000010                                      
110104   1101170002024061101032178800000000000050790000131104012086006134058494STEG                          0170001700022111057031547BRINISISMAIL                          2024LP551891000LP REMBOURSEMENT DES FRAIS MEDICAUX          2024061100000000010                                      
110104   1101170002024061101042178800000000000057665000131104012086006134058494STEG                          1747417474201402408197436NEIFARMOHAMED                         2024LP551893000LP REMBOURSEMENT DES FRAIS MEDICAUX          2024061100000000010                                      
110104   1101170002024061101052178800000000000060084000131104012086006134058494STEG                          0313103131135010100120333ZINIMAHER                             2024LP551895000LP REMBOURSEMENT DES FRAIS MEDICAUX          2024061100000000010                                      
110104   1101170002024061101062178800000000000045228000131104012086006134058494STEG                          3202632026788101073075143MRIZAKHAMZA                           2024LP551901000LP REMBOURSEMENT DES FRAIS MEDICAUX          2024061100000000010                                      
110104   1101170002024061101072178800000000000053947000131104012086006134058494STEG                          0106501065016111009966049BENRKHISSASAMIRA                      2024LP551905000LP REMBOURSEMENT DES FRAIS MEDICAUX          2024061100000000010                                      
110104   1101170002024061101082178800000000000062420000131104012086006134058494STEG                          1747417474201402414095230CHERIFSALAH                           2024LP551911000LP REMBOURSEMENT DES FRAIS MEDICAUX          2024061100000000010                                      
110104   1101170002024061101092178800000000000037500000131104012086006134058494STEG                          1280212802000730103399580GOUADRIAMEDTURKI                      2024LP551912000LP REMBOURSEMENT DES FRAIS MEDICAUX          2024061100000000010                                      
110104   1101170002024061101102178800000000000063553000131104012086006134058494STEG                          1747417474201402412886610FERJANISLIM                           2024LP551913000LP REMBOURSEMENT DES FRAIS MEDICAUX          2024061100000000010                                      
110104   1101170002024061101112178800000000000060157000131104012086006134058494STEG                          1747417474201402414095230CHERIFSALAH                           2024LP551918000LP REMBOURSEMENT DES FRAIS MEDICAUX          2024061100000000010                                      
110104   1101170002024061101122178800000000000270043000131104012086006134058494STEG                          1410614106106100705865633JARRAYWALID                           2024LP551919000LP REMBOURSEMENT DES FRAIS MEDICAUX          2024061100000000010                                      
110104   1101170002024061101132178800000000000025497000131104012086006134058494STEG                          1747417474201402404712420TABKAKAMEL                            2024LP551922000LP REMBOURSEMENT DES FRAIS MEDICAUX          2024061100000000010                                      
110104   1101170002024061101142178800000000000250000000131104012086006134058494STEG                          1700117001000000078932774TOUIHRIMOHAMEDYASSINE                 2024LP551926000LP REMBOURSEMENT DES FRAIS MEDICAUX          2024061100000000010                                      
110104   1101170002024061101152178800000000000004022000131104012086006134058494STEG                          1747417474201402411459352GAMMOUDIAMINE                         2024LP551928000LP REMBOURSEMENT DES FRAIS MEDICAUX          2024061100000000010                                      
110104   1101170002024061101162178800000000000362050000131104012086006134058494STEG                          0820908209000362001972089GOUIAAMOHAMED                         2024LP551929000LP REMBOURSEMENT DES FRAIS MEDICAUX          2024061100000000010                                      
110104   1101170002024061101172178800000000000179402000131104012086006134058494STEG                          1401114011011100700238279IMEDBEJAOUI                           2024LP551930000LP REMBOURSEMENT DES FRAIS MEDICAUX          2024061100000000010                                      
110104   1101170002024061101182178800000000000045161000131104012086006134058494STEG                          1050410504017099346778836BAYOUDHICHRAK                         2024LP551931000LP REMBOURSEMENT DES FRAIS MEDICAUX          2024061100000000010                                      
110104   1101170002024061101192178800000000000071779000131104012086006134058494STEG                          1747417474201402407215505BENABDALLAHIHSEN                      2024LP551934000LP REMBOURSEMENT DES FRAIS MEDICAUX          2024061100000000010                                      
110104   1101170002024061101202178800000000000053821000131104012086006134058494STEG                          1747417474201402411757045MONCEFADOUNI                          2024LP551940000LP REMBOURSEMENT DES FRAIS MEDICAUX          2024061100000000010                                      
110104   1101170002024061101212178800000000000115187000131104012086006134058494STEG                          1020110201015080722078845MIMOUNAADEL                           2024LP551942000LP REMBOURSEMENT DES FRAIS MEDICAUX          2024061100000000010                                      
110104   1101170002024061101222178800000000000028933000131104012086006134058494STEG                          1747417474201402409965358SASSISINEN                            2024LP551951000LP REMBOURSEMENT DES FRAIS MEDICAUX          2024061100000000010                                      
110104   1101170002024061101232178800000000000082004000131104012086006134058494STEG                          1770617706000000235715032HMOUDALAMJED                          2024LP551952000LP REMBOURSEMENT DES FRAIS MEDICAUX          2024061100000000010                                      
110104   1101170002024061101242178800000000000040026000131104012086006134058494STEG                          1747417474201402408628892LAKHDHERAYMEN                         2024LP551955000LP REMBOURSEMENT DES FRAIS MEDICAUX          2024061100000000010                                      
110104   1101170002024061101252178800000000000266000000131104012086006134058494STEG                          0813808138030092000476166SOUGUIRCHAYMA                         2024LP551957000LP REMBOURSEMENT DES FRAIS MEDICAUX          2024061100000000010                                      
110104   1101170002024061101262178800000000000071322000131104012086006134058494STEG                          2503625036000000121566352FARHATAHMED                           2024LP551958000LP REMBOURSEMENT DES FRAIS MEDICAUX          2024061100000000010                                      
110104   1101170002024061101272178800000000000084100000131104012086006134058494STEG                          1400014000000100734961444SABBAGHMOHAMEDALI                     2024LP551959000LP REMBOURSEMENT DES FRAIS MEDICAUX          2024061100000000010                                      
110104   1101170002024061101282178800000000000061603000131104012086006134058494STEG                          1747417474201402405569706MOSRATIRIDHA                          2024LP551960000LP REMBOURSEMENT DES FRAIS MEDICAUX          2024061100000000010                                      
110104   1101170002024061101292178800000000000088188000131104012086006134058494STEG                          2503625036000000121566352FARHATAHMED                           2024LP551961000LP REMBOURSEMENT DES FRAIS MEDICAUX          2024061100000000010                                      
110104   1101170002024061101302178800000000000053267000131104012086006134058494STEG                          0520905209000065581831673BAYARSLIM                             2024LP551966000LP REMBOURSEMENT DES FRAIS MEDICAUX          2024061100000000010                                      
110104   1101170002024061101312178800000000000093195000131104012086006134058494STEG                          0809808098027094001644182BENHFAIDHKHALED                       2024LP551971000LP REMBOURSEMENT DES FRAIS MEDICAUX          2024061100000000010                                      
110104   1101170002024061101322178800000000000311144000131104012086006134058494STEG                          0809808098027094001644182BENHFAIDHKHALED                       2024LP551972000LP REMBOURSEMENT DES FRAIS MEDICAUX          2024061100000000010                                      
110104   1101170002024061101332178800000000000030000000131104012086006134058494STEG                          1270512705000380105403957ABDELMELEKISSAM                       2024LP551978000LP REMBOURSEMENT DES FRAIS MEDICAUX          2024061100000000010                                      
110104   1101170002024061101342178800000000000130253000131104012086006134058494STEG                          0590305903000050500963093MAKHLOUFMOHAMEDNABIL                  2024LP551980000LP REMBOURSEMENT DES FRAIS MEDICAUX          2024061100000000010                                      
110104   1101170002024061101352178800000000000275500000131104012086006134058494STEG                          1747417474201401328958849SAADIEPZEMNIINES                      2024LP551985000LP REMBOURSEMENT DES FRAIS MEDICAUX          2024061100000000010                                      
110104   1101170002024061101362178800000000000088131000131104012086006134058494STEG                          1747417474201402408198212SALHIHASSEN                           2024LP551986000LP REMBOURSEMENT DES FRAIS MEDICAUX          2024061100000000010                                      
110104   1101170002024061101372178800000000000250000000131104012086006134058494STEG                          1480214802802100702433613DAHMANEZAKIA                          2024LP551987000LP REMBOURSEMENT DES FRAIS MEDICAUX          2024061100000000010                                      
110104   1101170002024061101382178800000000000069000000131104012086006134058494STEG                          0500005000000001507525249BENMABROUKHEDI                        2024LP551988000LP REMBOURSEMENT DES FRAIS MEDICAUX          2024061100000000010                                      
110104   1101170002024061101392178800000000000075000000131104012086006134058494STEG                          1490414904904100704119871JAMMOUSSIAMIRA                        2024LP551989000LP REMBOURSEMENT DES FRAIS MEDICAUX          2024061100000000010                                      
110104   1101170002024061101402178800000000000075000000131104012086006134058494STEG                          1490414904904100704119871JAMMOUSSIAMIRA                        2024LP551990000LP REMBOURSEMENT DES FRAIS MEDICAUX          2024061100000000010                                      
110104   1101170002024061101412178800000000000058316000131104012086006134058494STEG                          0700007000000010559948221SAKOUHISALAH                          2024LP552001000LP REMBOURSEMENT DES FRAIS MEDICAUX          2024061100000000010                                      
110104   1101170002024061101422178800000000000085500000131104012086006134058494STEG                          1450214502502100700696422BCHIRLOTFI                            2024LP552011000LP REMBOURSEMENT DES FRAIS MEDICAUX          2024061100000000010                                      
110104   1101170002024061101432178800000000000050000000131104012086006134058494STEG                          1747417474201402410447933BRINISFATMA                           2024LP552012000LP REMBOURSEMENT DES FRAIS MEDICAUX          2024061100000000010                                      
110104   1101170002024061101442178800000000000064611000131104012086006134058494STEG                          1747417474201402405120984TRABELSIBELGACEM                      2024LP552013000LP REMBOURSEMENT DES FRAIS MEDICAUX          2024061100000000010                                      
110104   1101170002024061101452178800000000000142190000131104012086006134058494STEG                          1747417474201402408182692MIZOURIMOEZ                           2024LP552017000LP REMBOURSEMENT DES FRAIS MEDICAUX          2024061100000000010                                      
110104   1101170002024061101462178800000000000059725000131104012086006134058494STEG                          0510305103000031526802806BASTIRAFIKA                           2024LP552021000LP REMBOURSEMENT DES FRAIS MEDICAUX          2024061100000000010                                      
110104   1101170002024061101472178800000000000033567000131104012086006134058494STEG                          1747417474201402415598439SGHAIERABDALLAH                       2024LP552022000LP REMBOURSEMENT DES FRAIS MEDICAUX          2024061100000000010                                      
110104   1101170002024061101482178800000000000072211000131104012086006134058494STEG                          0870508705000412009224912MELKIIMED                             2024LP552025000LP REMBOURSEMENT DES FRAIS MEDICAUX          2024061100000000010                                      
110104   1101170002024061101492178800000000000045107000131104012086006134058494STEG                          0370503705026010110476625HAJJEJMOHAMED                         2024LP552032000LP REMBOURSEMENT DES FRAIS MEDICAUX          2024061100000000010                                      
110104   1101170002024061101502178800000000000042434000131104012086006134058494STEG                          0313103131135010100120333ZINIMAHER                             2024LP552036000LP REMBOURSEMENT DES FRAIS MEDICAUX          2024061100000000010                                      
110104   1101170002024061101512178800000000000051771000131104012086006134058494STEG                          1205012050000000234414448MEFTEHEPBAKLOUTIMOLKA                 2024LP552038000LP REMBOURSEMENT DES FRAIS MEDICAUX          2024061100000000010                                      
110104   1101170002024061101522178800000000000176622000131104012086006134058494STEG                          0810608106000762003241196BELKHIRIAABDELHEDI                    2024LP552042000LP REMBOURSEMENT DES FRAIS MEDICAUX          2024061100000000010                                      
110104   1101170002024061101532178800000000000109300000131104012086006134058494STEG                          0430604306070001811699680GUESMIADEL                            2024LP552045000LP REMBOURSEMENT DES FRAIS MEDICAUX          2024061100000000010                                      
110104   1101170002024061101542178800000000000127830000131104012086006134058494STEG                          1747417474201402406699174SLAMAIMED                             2024LP552049000LP REMBOURSEMENT DES FRAIS MEDICAUX          2024061100000000010                                      
110104   1101170002024061101552178800000000000070889000131104012086006134058494STEG                          0412604126193404000698573FEKIHFAOUZI                           2024LP552051000LP REMBOURSEMENT DES FRAIS MEDICAUX          2024061100000000010                                      
110104   1101170002024061101562178800000000000250957000131104012086006134058494STEG                          2503125031000000030756341CHEBLIMOKHTAR                         2024LP552052000LP REMBOURSEMENT DES FRAIS MEDICAUX          2024061100000000010                                      
110104   1101170002024061101572178800000000000053027000131104012086006134058494STEG                          1747417474201401328913356OMARCHAKER                            2024LP552056000LP REMBOURSEMENT DES FRAIS MEDICAUX          2024061100000000010                                      
110104   1101170002024061101582178800000000000238978000131104012086006134058494STEG                          2500625006000000032265816BENCHEIKHFREDJNEJIA                   2024LP552059000LP REMBOURSEMENT DES FRAIS MEDICAUX          2024061100000000010                                      
110104   1101170002024061101592178800000000000065637000131104012086006134058494STEG                          1747417474201401328913356OMARCHAKER                            2024LP552061000LP REMBOURSEMENT DES FRAIS MEDICAUX          2024061100000000010                                      
110104   1101170002024061101602178800000000000151885000131104012086006134058494STEG                          0510605106000068501381981BENGHAZEILBASMA                       2024LP552070000LP REMBOURSEMENT DES FRAIS MEDICAUX          2024061100000000010                                      
110104   1101170002024061101612178800000000000165623000131104012086006134058494STEG                          1747417474201402409529731KHEMISSIMAHDI                         2024LP552075000LP REMBOURSEMENT DES FRAIS MEDICAUX          2024061100000000010                                      
110104   1101170002024061101622178800000000000052164000131104012086006134058494STEG                          1747417474201402414196886RIAHIMONGI                            2024LP552078000LP REMBOURSEMENT DES FRAIS MEDICAUX          2024061100000000010                                      
110104   1101170002024061101632178800000000000033821000131104012086006134058494STEG                          1750317503000000265029904MABROUKMOHAMED                        2024LP552086000LP REMBOURSEMENT DES FRAIS MEDICAUX          2024061100000000010                                      
110104   1101170002024061101642178800000000000028000000131104012086006134058494STEG                          1021210212122100665878862BEHRIKHMAIES                          2024LP552087000LP REMBOURSEMENT DES FRAIS MEDICAUX          2024061100000000010                                      
110104   1101170002024061101652178800000000000070000000131104012086006134058494STEG                          0102001020057111009614884ALOUANESAMIR                          2024LP552088000LP REMBOURSEMENT DES FRAIS MEDICAUX          2024061100000000010                                      
110104   1101170002024061101662178800000000000164369000131104012086006134058494STEG                          0500005000000001528898132BENAHMEDMOHAMEDHEDI                   2024LP552091000LP REMBOURSEMENT DES FRAIS MEDICAUX          2024061100000000010                                      
110104   1101170002024061101672178800000000000050000000131104012086006134058494STEG                          1411314113113100700602524BOUGUECHAMOHAMEDNEJIB                 2024LP552092000LP REMBOURSEMENT DES FRAIS MEDICAUX          2024061100000000010                                      
110104   1101170002024061101682178800000000000022500000131104012086006134058494STEG                          0890008900000542000997854KOUKIHEDI                             2024LP552094000LP REMBOURSEMENT DES FRAIS MEDICAUX          2024061100000000010                                      
110104   1101170002024061101692178800000000000047261000131104012086006134058494STEG                          1747417474201402405569706MOSRATIRIDHA                          2024LP552097000LP REMBOURSEMENT DES FRAIS MEDICAUX          2024061100000000010                                      
110104   1101170002024061101702178800000000000200000000131104012086006134058494STEG                          0470304703048404000348797BENSALAHABDELAZIZ                     2024LP552101000LP REMBOURSEMENT DES FRAIS MEDICAUX          2024061100000000010                                      
110104   1101170002024061101712178800000000000066276000131104012086006134058494STEG                          1747417474201401243843483AHMEDKAMMOUN                          2024LP552104000LP REMBOURSEMENT DES FRAIS MEDICAUX          2024061100000000010                                      
110104   1101170002024061101722178800000000000050000000131104012086006134058494STEG                          0406704067152002847693592BAHRISAMIRA                           2024LP552105000LP REMBOURSEMENT DES FRAIS MEDICAUX          2024061100000000010                                      
110104   1101170002024061101732178800000000000028000000131104012086006134058494STEG                          0520005200000006500644890OUERGHIKHALED                         2024LP552108000LP REMBOURSEMENT DES FRAIS MEDICAUX          2024061100000000010                                      
110104   1101170002024061101742178800000000000050000000131104012086006134058494STEG                          0550905509000059520597215MGAZZENMOURAD                         2024LP552116000LP REMBOURSEMENT DES FRAIS MEDICAUX          2024061100000000010                                      
110104   1101170002024061101752178800000000000063986000131104012086006134058494STEG                          0530005300000018502544674BOUZOUITASEMIA                        2024LP552119000LP REMBOURSEMENT DES FRAIS MEDICAUX          2024061100000000010                                      
110104   1101170002024061101762178800000000000067120000131104012086006134058494STEG                          0820908209000362001972089GOUIAAMOHAMED                         2024LP552120000LP REMBOURSEMENT DES FRAIS MEDICAUX          2024061100000000010                                      
110104   1101170002024061101772178800000000000030000000131104012086006134058494STEG                          0330003300027010100325029GDARAAHMED                            2024LP552123000LP REMBOURSEMENT DES FRAIS MEDICAUX          2024061100000000010                                      
110104   1101170002024061101782178800000000000097500000131104012086006134058494STEG                          0350103501016010100308580KAMOUNCHEDIA                          2024LP552124000LP REMBOURSEMENT DES FRAIS MEDICAUX          2024061100000000010                                      
110104   1101170002024061101792178800000000000234000000131104012086006134058494STEG                          0850108501000212003626532BELHADJMOHAMED                        2024LP552125000LP REMBOURSEMENT DES FRAIS MEDICAUX          2024061100000000010                                      
110104   1101170002024061101802178800000000000094516000131104012086006134058494STEG                          0870508705000412014249124ABDELMALEKAYMEN                       2024LP552127000LP REMBOURSEMENT DES FRAIS MEDICAUX          2024061100000000010                                      
110104   1101170002024061101812178800000000000066185000131104012086006134058494STEG                          1747417474201402404759562CHOUKAHMED                            2024LP552128000LP REMBOURSEMENT DES FRAIS MEDICAUX          2024061100000000010                                      
110104   1101170002024061101822178800000000000092891000131104012086006134058494STEG                          1102111021002255700878811AOUINTIMONCEF                         2024LP552129000LP REMBOURSEMENT DES FRAIS MEDICAUX          2024061100000000010                                      
110104   1101170002024061101832178800000000000015390000131104012086006134058494STEG                          1747417474201402406938376GUENNOUNKAMEL                         2024LP552131000LP REMBOURSEMENT DES FRAIS MEDICAUX          2024061100000000010                                      
110104   1101170002024061101842178800000000000073713000131104012086006134058494STEG                          0708607086014410551651877BENMABROUKALI                         2024LP552134000LP REMBOURSEMENT DES FRAIS MEDICAUX          2024061100000000010                                      
110104   1101170002024061101852178800000000000152700000131104012086006134058494STEG                          1070510705007041753978845GASMIYOUSSEF                          2024LP552137000LP REMBOURSEMENT DES FRAIS MEDICAUX          2024061100000000010                                      
110104   1101170002024061101862178800000000000132546000131104012086006134058494STEG                          0170501705026111049739438ZRIGUILASSAAD                         2024LP552138000LP REMBOURSEMENT DES FRAIS MEDICAUX          2024061100000000010                                      
110104   1101170002024061101872178800000000000239500000131104012086006134058494STEG                          0870508705000412006725222FEKIHBRAHIM                           2024LP552140000LP REMBOURSEMENT DES FRAIS MEDICAUX          2024061100000000010                                      
110104   1101170002024061101882178800000000000060182000131104012086006134058494STEG                          1747417474201402404921164ABDENNABIMOHAMED                      2024LP552141000LP REMBOURSEMENT DES FRAIS MEDICAUX          2024061100000000010                                      
110104   1101170002024061101892178800000000000021100000131104012086006134058494STEG                          0410804108065404003394817BENLAHBIBMOHAMEDLAHBIB                2024LP552143000LP REMBOURSEMENT DES FRAIS MEDICAUX          2024061100000000010                                      
110104   1101170002024061101902178800000000000028094000131104012086006134058494STEG                          0408404084169002597443714DHOUIBIBAKAR                          2024LP552144000LP REMBOURSEMENT DES FRAIS MEDICAUX          2024061100000000010                                      
110104   1101170002024061101912178800000000000057781000131104012086006134058494STEG                          0811808118028062001112954ABBESHAMED                            2024LP552148000LP REMBOURSEMENT DES FRAIS MEDICAUX          2024061100000000010                                      
110104   1101170002024061101922178800000000000069913000131104012086006134058494STEG                          1747417474201402412509474BAHRISAMIR                            2024LP552149000LP REMBOURSEMENT DES FRAIS MEDICAUX          2024061100000000010                                      
110104   1101170002024061101932178800000000000054000000131104012086006134058494STEG                          0550105501000014515224044SFARRIDHA                             2024LP552150000LP REMBOURSEMENT DES FRAIS MEDICAUX          2024061100000000010                                      
110104   1101170002024061101942178800000000000030000000131104012086006134058494STEG                          0850108501000212006739068SFARKHAMEIS                           2024LP552153000LP REMBOURSEMENT DES FRAIS MEDICAUX          2024061100000000010                                      
110104   1101170002024061101952178800000000000375300000131104012086006134058494STEG                          2801428014034056101000150BENALIMAHASSENEPMAHMOUDI              2024LP552159000LP REMBOURSEMENT DES FRAIS MEDICAUX          2024061100000000010                                      
110104   1101170002024061101962178800000000000064413000131104012086006134058494STEG                          1747417474201402406650480OUESLATIHATEM                         2024LP552161000LP REMBOURSEMENT DES FRAIS MEDICAUX          2024061100000000010                                      
110104   1101170002024061101972178800000000000186419000131104012086006134058494STEG                          1747417474201402406650480OUESLATIHATEM                         2024LP552162000LP REMBOURSEMENT DES FRAIS MEDICAUX          2024061100000000010                                      
110104   1101170002024061101982178800000000000089551000131104012086006134058494STEG                          0703307033001010550083338NAOUARHATEM                           2024LP552164000LP REMBOURSEMENT DES FRAIS MEDICAUX          2024061100000000010                                      
110104   1101170002024061101992178800000000000148459000131104012086006134058494STEG                          1406114061061100700027210BRIKIMOHAMEDSALAH                     2024LP552166000LP REMBOURSEMENT DES FRAIS MEDICAUX          2024061100000000010                                      
110104   1101170002024061102002178800000000000097085000131104012086006134058494STEG                          0300003000010010110934786MIMOUNABrahim                         2024LP552167000LP REMBOURSEMENT DES FRAIS MEDICAUX          2024061100000000010                                      
110104   1101170002024061102012178800000000000088302000131104012086006134058494STEG                          0501705017000089500307796LANGARMOURAD                          2024LP552168000LP REMBOURSEMENT DES FRAIS MEDICAUX          2024061100000000010                                      
110104   1101170002024061102022178800000000000057500000131104012086006134058494STEG                          1490814908908100706582806MAAZAOUIJALLEL                        2024LP552169000LP REMBOURSEMENT DES FRAIS MEDICAUX          2024061100000000010                                      
110104   1101170002024061102032178800000000000033708000131104012086006134058494STEG                          0370903709086010100313956BELAZIWALID                           2024LP552174000LP REMBOURSEMENT DES FRAIS MEDICAUX          2024061100000000010                                      
110104   1101170002024061102042178800000000000150000000131104012086006134058494STEG                          1100011000004911300878822SBOUINOUREDDINE                       2024LP552177000LP REMBOURSEMENT DES FRAIS MEDICAUX          2024061100000000010                                      
110104   1101170002024061102052178800000000000025121000131104012086006134058494STEG                          1403914039039100701192815GUESMIHICHEM                          2024LP552178000LP REMBOURSEMENT DES FRAIS MEDICAUX          2024061100000000010                                      
110104   1101170002024061102062178800000000000037500000131104012086006134058494STEG                          0120101201040111019080609HAMROUNIMEKKI                         2024LP552183000LP REMBOURSEMENT DES FRAIS MEDICAUX          2024061100000000010                                      
110104   1101170002024061102072178800000000000050000000131104012086006134058494STEG                          0120101201040111019080609HAMROUNIMEKKI                         2024LP552186000LP REMBOURSEMENT DES FRAIS MEDICAUX          2024061100000000010                                      
110104   1101170002024061102082178800000000000046578000131104012086006134058494STEG                          1100811008002839400878892AYARIMOHSEN                           2024LP552187000LP REMBOURSEMENT DES FRAIS MEDICAUX          2024061100000000010                                      
110104   1101170002024061102092178800000000000125817000131104012086006134058494STEG                          0800308003000612056694439EZZERELLIMOHAMED                      2024LP552188000LP REMBOURSEMENT DES FRAIS MEDICAUX          2024061100000000010                                      
110104   1101170002024061102102178800000000000063679000131104012086006134058494STEG                          1100811008002706500878871GHARBILOTFI                           2024LP552189000LP REMBOURSEMENT DES FRAIS MEDICAUX          2024061100000000010                                      
110104   1101170002024061102112178800000000000063267000131104012086006134058494STEG                          1100811008002706500878871GHARBILOTFI                           2024LP552191000LP REMBOURSEMENT DES FRAIS MEDICAUX          2024061100000000010                                      
110104   1101170002024061102122178800000000000075706000131104012086006134058494STEG                          1747417474201402406024248RAOUAFICHAKER                         2024LP552192000LP REMBOURSEMENT DES FRAIS MEDICAUX          2024061100000000010                                      
110104   1101170002024061102132178800000000000138000000131104012086006134058494STEG                          0510405104000005564082394HAMDIJAMEL                            2024LP552193000LP REMBOURSEMENT DES FRAIS MEDICAUX          2024061100000000010                                      
110104   1101170002024061102142178800000000000108900000131104012086006134058494STEG                          1747417474201402406024248RAOUAFICHAKER                         2024LP552196000LP REMBOURSEMENT DES FRAIS MEDICAUX          2024061100000000010                                      
110104   1101170002024061102152178800000000000041097000131104012086006134058494STEG                          1747417474201402405895626TOUNSIMEHREZ                          2024LP552197000LP REMBOURSEMENT DES FRAIS MEDICAUX          2024061100000000010                                      
110104   1101170002024061102162178800000000000125816000131104012086006134058494STEG                          1747417474201402410688881RAOUAFIMEHDI                          2024LP552198000LP REMBOURSEMENT DES FRAIS MEDICAUX          2024061100000000010                                      
110104   1101170002024061102172178800000000000078000000131104012086006134058494STEG                          1747417474201401357200981TEKAYAAFEF                            2024LP552199000LP REMBOURSEMENT DES FRAIS MEDICAUX          2024061100000000010                                      
110104   1101170002024061102182178800000000000075668000131104012086006134058494STEG                          0303503035165010100021497DEROUICHEAbderrazak                   2024LP552200000LP REMBOURSEMENT DES FRAIS MEDICAUX          2024061100000000010                                      
110104   1101170002024061102192178800000000000109116000131104012086006134058494STEG                          1747417474201402403899075ATOUANIKAMEL                          2024LP552201000LP REMBOURSEMENT DES FRAIS MEDICAUX          2024061100000000010                                      
110104   1101170002024061102202178800000000000178467000131104012086006134058494STEG                          1700117001000000333204791BENZINEBMOHAMED                       2024LP552202000LP REMBOURSEMENT DES FRAIS MEDICAUX          2024061100000000010                                      
110104   1101170002024061102212178800000000000030000000131104012086006134058494STEG                          1747417474201402405895626TOUNSIMEHREZ                          2024LP552205000LP REMBOURSEMENT DES FRAIS MEDICAUX          2024061100000000010                                      
110104   1101170002024061102222178800000000000067300000131104012086006134058494STEG                          0410404104038404000501188BENABDALLAHFAYCAL                     2024LP552206000LP REMBOURSEMENT DES FRAIS MEDICAUX          2024061100000000010                                      
110104   1101170002024061102232178800000000000098100000131104012086006134058494STEG                          0710507105002910556080617KAROUIMOHAMED                         2024LP552207000LP REMBOURSEMENT DES FRAIS MEDICAUX          2024061100000000010                                      
110104   1101170002024061102242178800000000000058204000131104012086006134058494STEG                          0412004120188002236972266RAOUEFISOUHEIL                        2024LP552208000LP REMBOURSEMENT DES FRAIS MEDICAUX          2024061100000000010                                      
110104   1101170002024061102252178800000000000040700000131104012086006134058494STEG                          0807408074023014001961007MOUHLIRIADH                           2024LP552210000LP REMBOURSEMENT DES FRAIS MEDICAUX          2024061100000000010                                      
110104   1101170002024061102262178800000000000127656000131104012086006134058494STEG                          0120101201040113040368355HAJJIMEHREZ                           2024LP552211000LP REMBOURSEMENT DES FRAIS MEDICAUX          2024061100000000010                                      
110104   1101170002024061102272178800000000000050000000131104012086006134058494STEG                          1753517535940663304042841BENALIMOHAMED                         2024LP552214000LP REMBOURSEMENT DES FRAIS MEDICAUX          2024061100000000010                                      
110104   1101170002024061102282178800000000000327500000131104012086006134058494STEG                          1747417474201402404591267AMMARIHECHMI                          2024LP552217000LP REMBOURSEMENT DES FRAIS MEDICAUX          2024061100000000010                                      
110104   1101170002024061102292178800000000000042759000131104012086006134058494STEG                          1747417474201402410144226SAMETHICHEM                           2024LP552221000LP REMBOURSEMENT DES FRAIS MEDICAUX          2024061100000000010                                      
110104   1101170002024061102302178800000000000050862000131104012086006134058494STEG                          1747417474201402407446656TRABELSINABIL                         2024LP552222000LP REMBOURSEMENT DES FRAIS MEDICAUX          2024061100000000010                                      
110104   1101170002024061102312178800000000000016920000131104012086006134058494STEG                          1747417474201402407446656TRABELSINABIL                         2024LP552223000LP REMBOURSEMENT DES FRAIS MEDICAUX          2024061100000000010                                      
110104   1101170002024061102322178800000000000082700000131104012086006134058494STEG                          1747417474201402403579848CHEBBINACEF                           2024LP552226000LP REMBOURSEMENT DES FRAIS MEDICAUX          2024061100000000010                                      
110104   1101170002024061102332178800000000000028040000131104012086006134058494STEG                          0502705027000078500211302ABIDWALID                             2024LP552227000LP REMBOURSEMENT DES FRAIS MEDICAUX          2024061100000000010                                      
110104   1101170002024061102342178800000000000018127000131104012086006134058494STEG                          1400014000175111010293159ABDENNOURDHOUHA                       2024LP552228000LP REMBOURSEMENT DES FRAIS MEDICAUX          2024061100000000010                                      
110104   1101170002024061102352178800000000000090390000131104012086006134058494STEG                          0300003000010010121793839ALOUIEZZINE                           2024LP552229000LP REMBOURSEMENT DES FRAIS MEDICAUX          2024061100000000010                                      
110104   1101170002024061102362178800000000000142149000131104012086006134058494STEG                          0814308143031054001089641LACHTERABEDSSLEM                      2024LP552232000LP REMBOURSEMENT DES FRAIS MEDICAUX          2024061100000000010                                      
110104   1101170002024061102372178800000000000073823000131104012086006134058494STEG                          0502705027000078500867701SAYARISOFIENE                         2024LP552233000LP REMBOURSEMENT DES FRAIS MEDICAUX          2024061100000000010                                      
110104   1101170002024061102382178800000000000352900000131104012086006134058494STEG                          0806508065022012002422183LAZREGJALEL                           2024LP552237000LP REMBOURSEMENT DES FRAIS MEDICAUX          2024061100000000010                                      
110104   1101170002024061102392178800000000000040000000131104012086006134058494STEG                          1747417474201402403579848CHEBBINACEF                           2024LP552239000LP REMBOURSEMENT DES FRAIS MEDICAUX          2024061100000000010                                      
110104   1101170002024061102402178800000000000136196000131104012086006134058494STEG                          0480204802020000607441350HMIDAMOHSEN                           2024LP552243000LP REMBOURSEMENT DES FRAIS MEDICAUX          2024061100000000010                                      
110104   1101170002024061102412178800000000000493499000131104012086006134058494STEG                          1747417474201402404358661TALBIMONGI                            2024LP552247000LP REMBOURSEMENT DES FRAIS MEDICAUX          2024061100000000010                                      
110104   1101170002024061102422178800000000000004500000131104012086006134058494STEG                          0402204022108004731747441NAOUARMAHMOUD                         2024LP552249000LP REMBOURSEMENT DES FRAIS MEDICAUX          2024061100000000010                                      
110104   1101170002024061102432178800000000000073864000131104012086006134058494STEG                          1010410104059104295078822OUESLATIMoncef                        2024LP552250000LP REMBOURSEMENT DES FRAIS MEDICAUX          2024061100000000010                                      
110104   1101170002024061102442178800000000000074598000131104012086006134058494STEG                          0503705037000105500641196HAKIMIMOUSTAPHA                       2024LP552252000LP REMBOURSEMENT DES FRAIS MEDICAUX          2024061100000000010                                      
110104   1101170002024061102452178800000000000079026000131104012086006134058494STEG                          1400014000000100739543142OUERFELLIMEHDI                        2024LP552254000LP REMBOURSEMENT DES FRAIS MEDICAUX          2024061100000000010                                      
110104   1101170002024061102462178800000000000302500000131104012086006134058494STEG                          0190301903046111031367137MEMMICHEMOUNIRA                       2024LP552258000LP REMBOURSEMENT DES FRAIS MEDICAUX          2024061100000000010                                      
110104   1101170002024061102472178800000000000047700000131104012086006134058494STEG                          0800508005010082002940792FATTOUMMOHAMED                        2024LP552259000LP REMBOURSEMENT DES FRAIS MEDICAUX          2024061100000000010                                      
110104   1101170002024061102482178800000000000085190000131104012086006134058494STEG                          1747417474201402410795193JDAIDAGUALIA                          2024LP552260000LP REMBOURSEMENT DES FRAIS MEDICAUX          2024061100000000010                                      
110104   1101170002024061102492178800000000000077100000131104012086006134058494STEG                          0800508005010082002940792FATTOUMMOHAMED                        2024LP552261000LP REMBOURSEMENT DES FRAIS MEDICAUX          2024061100000000010                                      
110104   1101170002024061102502178800000000000050000000131104012086006134058494STEG                          0180001800031111058602847ROMDHANICHAKER                        2024LP552268000LP REMBOURSEMENT DES FRAIS MEDICAUX          2024061100000000010                                      
110104   1101170002024061102512178800000000000237400000131104012086006134058494STEG                          1747417474201402411986547BENCHIKHATAIEB                        2024LP552269000LP REMBOURSEMENT DES FRAIS MEDICAUX          2024061100000000010                                      
110104   1101170002024061102522178800000000000069404000131104012086006134058494STEG                          0180001800031111058602847ROMDHANICHAKER                        2024LP552270000LP REMBOURSEMENT DES FRAIS MEDICAUX          2024061100000000010                                      
110104   1101170002024061102532178800000000000032723000131104012086006134058494STEG                          1700117001000000305846232HAMMALIABDELLAZIZ                     2024LP552271000LP REMBOURSEMENT DES FRAIS MEDICAUX          2024061100000000010                                      
110104   1101170002024061102542178800000000000054948000131104012086006134058494STEG                          1000810008052106159278865BENSMIDAMahmoud                       2024LP552272000LP REMBOURSEMENT DES FRAIS MEDICAUX          2024061100000000010                                      
110104   1101170002024061102552178800000000000170000000131104012086006134058494STEG                          0560505605000012554565348MESTIRILOTFI                          2024LP552273000LP REMBOURSEMENT DES FRAIS MEDICAUX          2024061100000000010                                      
110104   1101170002024061102562178800000000000089785000131104012086006134058494STEG                          1030410304033166576278804chrifMOHAMED                          2024LP552277000LP REMBOURSEMENT DES FRAIS MEDICAUX          2024061100000000010                                      
110104   1101170002024061102572178800000000000050000000131104012086006134058494STEG                          1747417474201402410081661BAHRIKAMEL                            2024LP552278000LP REMBOURSEMENT DES FRAIS MEDICAUX          2024061100000000010                                      
110104   1101170002024061102582178800000000000098100000131104012086006134058494STEG                          0860608606000112001100297AMIRAHDHILI                           2024LP552279000LP REMBOURSEMENT DES FRAIS MEDICAUX          2024061100000000010                                      
110104   1101170002024061102592178800000000000034284000131104012086006134058494STEG                          1747417474201402408283281BOUALLEGUIMOHAMEDACHREF               2024LP552280000LP REMBOURSEMENT DES FRAIS MEDICAUX          2024061100000000010                                      
110104   1101170002024061102602178800000000000250000000131104012086006134058494STEG                          1747417474201402407357513ZNAIDIANIS                            2024LP552284000LP REMBOURSEMENT DES FRAIS MEDICAUX          2024061100000000010                                      
110104   1101170002024061102612178800000000000150305000131104012086006134058494STEG                          1747417474201402408076089EZEDDINEMECHERGUI                     2024LP552285000LP REMBOURSEMENT DES FRAIS MEDICAUX          2024061100000000010                                      
110104   1101170002024061102622178800000000000248653000131104012086006134058494STEG                          0560505605000012306709687NEGRAMOHAMEDSAYED                     2024LP552290000LP REMBOURSEMENT DES FRAIS MEDICAUX          2024061100000000010                                      
110104   1101170002024061102632178800000000000023409000131104012086006134058494STEG                          1747417474201402412423823BENHAMEDANIS                          2024LP552292000LP REMBOURSEMENT DES FRAIS MEDICAUX          2024061100000000010                                      
110104   1101170002024061102642178800000000000020840000131104012086006134058494STEG                          0330303303061010100315531BELHADJALAYAMEDALI                    2024LP552293000LP REMBOURSEMENT DES FRAIS MEDICAUX          2024061100000000010                                      
110104   1101170002024061102652178800000000000103139000131104012086006134058494STEG                          0830408304000352002950764SAHNOUNMONCEF                         2024LP552298000LP REMBOURSEMENT DES FRAIS MEDICAUX          2024061100000000010                                      
110104   1101170002024061102662178800000000000068355000131104012086006134058494STEG                          1747417474201402404008782BOUAFIFLASSAAD                        2024LP552299000LP REMBOURSEMENT DES FRAIS MEDICAUX          2024061100000000010                                      
110104   1101170002024061102672178800000000000057740000131104012086006134058494STEG                          1747417474201404191781250BARGAOUIZIED                          2024LP552302000LP REMBOURSEMENT DES FRAIS MEDICAUX          2024061100000000010                                      
110104   1101170002024061102682178800000000000082700000131104012086006134058494STEG                          1753517535940662944180407AGREBILOUATI                          2024LP552306000LP REMBOURSEMENT DES FRAIS MEDICAUX          2024061100000000010                                      
110104   1101170002024061102692178800000000000021186000131104012086006134058494STEG                          0330303303061010100315531BELHADJALAYAMEDALI                    2024LP552307000LP REMBOURSEMENT DES FRAIS MEDICAUX          2024061100000000010                                      
110104   1101170002024061102702178800000000000195494000131104012086006134058494STEG                          1747417474201404251597949ZRAFIADEL                             2024LP552308000LP REMBOURSEMENT DES FRAIS MEDICAUX          2024061100000000010                                      
110104   1101170002024061102712178800000000000040000000131104012086006134058494STEG                          0705407054011210551321252ELFETOUIALI                           2024LP552310000LP REMBOURSEMENT DES FRAIS MEDICAUX          2024061100000000010                                      
110104   1101170002024061102722178800000000000060443000131104012086006134058494STEG                          0804208042013052004702778BOUGHDIRIKHALED                       2024LP552312000LP REMBOURSEMENT DES FRAIS MEDICAUX          2024061100000000010                                      
110104   1101170002024061102732178800000000000085887000131104012086006134058494STEG                          0411004110097404000130920BHADJAMORMOHAMED                      2024LP552313000LP REMBOURSEMENT DES FRAIS MEDICAUX          2024061100000000010                                      
110104   1101170002024061102742178800000000000051049000131104012086006134058494STEG                          2504925049000000056033052ELKAMELHAYET                          2024LP552317000LP REMBOURSEMENT DES FRAIS MEDICAUX          2024061100000000010                                      
110104   1101170002024061102752178800000000000056814000131104012086006134058494STEG                          0490404904017404004917568DHYEBMOHAMEDMEHREZ                    2024LP552318000LP REMBOURSEMENT DES FRAIS MEDICAUX          2024061100000000010                                      
110104   1101170002024061102762178800000000000150266000131104012086006134058494STEG                          1747417474201402407119960ARDHAOUIKAMEL                         2024LP552319000LP REMBOURSEMENT DES FRAIS MEDICAUX          2024061100000000010                                      
110104   1101170002024061102772178800000000000109140000131104012086006134058494STEG                          1747417474201402411694577AYACHIBILEL                           2024LP552321000LP REMBOURSEMENT DES FRAIS MEDICAUX          2024061100000000010                                      
110104   1101170002024061102782178800000000000033118000131104012086006134058494STEG                          1747417474201402406771827LAAFIFFAOUZI                          2024LP552322000LP REMBOURSEMENT DES FRAIS MEDICAUX          2024061100000000010                                      
110104   1101170002024061102792178800000000000237700000131104012086006134058494STEG                          0540205402000020505629757ZAKRAOUIMEDELHEDI                     2024LP552324000LP REMBOURSEMENT DES FRAIS MEDICAUX          2024061100000000010                                      
110104   1101170002024061102802178800000000000065980000131104012086006134058494STEG                          1747417474201402146302771AOUFCHARFI                            2024LP552325000LP REMBOURSEMENT DES FRAIS MEDICAUX          2024061100000000010                                      
110104   1101170002024061102812178800000000000046245000131104012086006134058494STEG                          1747417474201401359354284BENNOURMHAMED                         2024LP552327000LP REMBOURSEMENT DES FRAIS MEDICAUX          2024061100000000010                                      
110104   1101170002024061102822178800000000000076279000131104012086006134058494STEG                          1747417474201401359354284BENNOURMHAMED                         2024LP552329000LP REMBOURSEMENT DES FRAIS MEDICAUX          2024061100000000010                                      
110104   1101170002024061102832178800000000000088300000131104012086006134058494STEG                          0870108701000422000444409SALHIMOHAMEDAYACHI                    2024LP552330000LP REMBOURSEMENT DES FRAIS MEDICAUX          2024061100000000010                                      
110104   1101170002024061102842178800000000000065512000131104012086006134058494STEG                          1747417474201402408050578BENFADHELWAJDI                        2024LP552331000LP REMBOURSEMENT DES FRAIS MEDICAUX          2024061100000000010                                      
110104   1101170002024061102852178800000000000129000000131104012086006134058494STEG                          1030410304033166576278804chrifMOHAMED                          2024LP552332000LP REMBOURSEMENT DES FRAIS MEDICAUX          2024061100000000010                                      
110104   1101170002024061102862178800000000000070000000131104012086006134058494STEG                          0360503605014010122137051JELLITIABDALLAH                       2024LP552333000LP REMBOURSEMENT DES FRAIS MEDICAUX          2024061100000000010                                      
110104   1101170002024061102872178800000000000110259000131104012086006134058494STEG                          1040510405016092472778819HAJJIMONIA                            2024LP552335000LP REMBOURSEMENT DES FRAIS MEDICAUX          2024061100000000010                                      
110104   1101170002024061102882178800000000000053821000131104012086006134058494STEG                          1747417474201404251599501GHECHIRHOSNI                          2024LP552336000LP REMBOURSEMENT DES FRAIS MEDICAUX          2024061100000000010                                      
110104   1101170002024061102892178800000000000074343000131104012086006134058494STEG                          1010410104059100820178855GHROUMBEZZAOUIANOURA                  2024LP552337000LP REMBOURSEMENT DES FRAIS MEDICAUX          2024061100000000010                                      
110104   1101170002024061102902178800000000000076082000131104012086006134058494STEG                          1747417474201402409512368KHEMIRIAYMEN                          2024LP552339000LP REMBOURSEMENT DES FRAIS MEDICAUX          2024061100000000010                                      
110104   1101170002024061102912178800000000000050000000131104012086006134058494STEG                          1060710607087106908678853ZIDSAMIA                              2024LP552341000LP REMBOURSEMENT DES FRAIS MEDICAUX          2024061100000000010                                      
110104   1101170002024061102922178800000000000196814000131104012086006134058494STEG                          0106101061014111014566748HAOUARIYOUSSEF                        2024LP552344000LP REMBOURSEMENT DES FRAIS MEDICAUX          2024061100000000010                                      
110104   1101170002024061102932178800000000000022500000131104012086006134058494STEG                          1170011700002568400878888ELHAYANIALI                           2024LP552346000LP REMBOURSEMENT DES FRAIS MEDICAUX          2024061100000000010                                      
110104   1101170002024061102942178800000000000044781000131104012086006134058494STEG                          1700117001000000018684425ABBESSLAH                             2024LP552348000LP REMBOURSEMENT DES FRAIS MEDICAUX          2024061100000000010                                      
110104   1101170002024061102952178800000000000076468000131104012086006134058494STEG                          0105601056096111010964464BOUDGUIGAMUSTAPHA                     2024LP552350000LP REMBOURSEMENT DES FRAIS MEDICAUX          2024061100000000010                                      
110104   1101170002024061102962178800000000000200000000131104012086006134058494STEG                          0503305033000049501031765INOUBLIHLIMA                          2024LP552351000LP REMBOURSEMENT DES FRAIS MEDICAUX          2024061100000000010                                      
110104   1101170002024061102972178800000000000106605000131104012086006134058494STEG                          1490014900900100712118774BDIRIDALANDA                          2024LP552354000LP REMBOURSEMENT DES FRAIS MEDICAUX          2024061100000000010                                      
110104   1101170002024061102982178800000000000180841000131104012086006134058494STEG                          1747417474201402406311368BOUBAKERFOUED                         2024LP552359000LP REMBOURSEMENT DES FRAIS MEDICAUX          2024061100000000010                                      
110104   1101170002024061102992178800000000000054372000131104012086006134058494STEG                          1010410104059106788078829BENBOUZIDMEHREZ                       2024LP552366000LP REMBOURSEMENT DES FRAIS MEDICAUX          2024061100000000010                                      
110104   1101170002024061103002178800000000000107374000131104012086006134058494STEG                          1170811708002132700878850BENMILEDABDELMAJID                    2024LP552368000LP REMBOURSEMENT DES FRAIS MEDICAUX          2024061100000000010                                      
110104   1101170002024061103012178800000000000165237000131104012086006134058494STEG                          1753517535940663280332161MAAROUFIMOHAMED                       2024LP552369000LP REMBOURSEMENT DES FRAIS MEDICAUX          2024061100000000010                                      
110104   1101170002024061103022178800000000000053999000131104012086006134058494STEG                          1747417474201402414824573MHADHBIRIADH                          2024LP552370000LP REMBOURSEMENT DES FRAIS MEDICAUX          2024061100000000010                                      
110104   1101170002024061103032178800000000000106392000131104012086006134058494STEG                          1747417474201402407978895KORBIWALID                            2024LP552372000LP REMBOURSEMENT DES FRAIS MEDICAUX          2024061100000000010                                      
110104   1101170002024061103042178800000000000217290000131104012086006134058494STEG                          2500125001000000012819287BENROMDHANEMOHAMED                    2024LP552375000LP REMBOURSEMENT DES FRAIS MEDICAUX          2024061100000000010                                      
110104   1101170002024061103052178800000000000154321000131104012086006134058494STEG                          1770617706000000315750411CHAABANEZAKARIA                       2024LP552381000LP REMBOURSEMENT DES FRAIS MEDICAUX          2024061100000000010                                      
110104   1101170002024061103062178800000000000063386000131104012086006134058494STEG                          1747417474201402413209038KAMELSELLAMI                          2024LP552385000LP REMBOURSEMENT DES FRAIS MEDICAUX          2024061100000000010                                      
110104   1101170002024061103072178800000000000250659000131104012086006134058494STEG                          0340703407022010110223097SOLTANIMONGI                          2024LP552390000LP REMBOURSEMENT DES FRAIS MEDICAUX          2024061100000000010                                      
110104   1101170002024061103082178800000000000114900000131104012086006134058494STEG                          1070110701004022591378818SOUISSIZOUHAIER                       2024LP552392000LP REMBOURSEMENT DES FRAIS MEDICAUX          2024061100000000010                                      
110104   1101170002024061103092178800000000000120205000131104012086006134058494STEG                          0300003000010010120236504GHAZOUANIBELGACEM                     2024LP552393000LP REMBOURSEMENT DES FRAIS MEDICAUX          2024061100000000010                                      
110104   1101170002024061103102178800000000000120000000131104012086006134058494STEG                          1747417474201402403926138TRABELSIMOHAMED                       2024LP552394000LP REMBOURSEMENT DES FRAIS MEDICAUX          2024061100000000010                                      
110104   1101170002024061103112178800000000000066326000131104012086006134058494STEG                          0720207202003210556833128BALIAbdelwaheb                        2024LP552395000LP REMBOURSEMENT DES FRAIS MEDICAUX          2024061100000000010                                      
110104   1101170002024061103122178800000000000059644000131104012086006134058494STEG                          0500905009000028500454372BOUSSAIDCHEDLY                        2024LP552400000LP REMBOURSEMENT DES FRAIS MEDICAUX          2024061100000000010                                      
110104   1101170002024061103132178800000000000056352000131104012086006134058494STEG                          0500905009000028500454372BOUSSAIDCHEDLY                        2024LP552402000LP REMBOURSEMENT DES FRAIS MEDICAUX          2024061100000000010                                      
110104   1101170002024061103142178800000000000095547000131104012086006134058494STEG                          0500905009000028500454372BOUSSAIDCHEDLY                        2024LP552404000LP REMBOURSEMENT DES FRAIS MEDICAUX          2024061100000000010                                      
110104   1101170002024061103152178800000000000053196000131104012086006134058494STEG                          0500905009000028500454372BOUSSAIDCHEDLY                        2024LP552405000LP REMBOURSEMENT DES FRAIS MEDICAUX          2024061100000000010                                      
110104   1101170002024061103162178800000000000043500000131104012086006134058494STEG                          0701807018008610550667282KALLELAbdelwaheb                      2024LP552406000LP REMBOURSEMENT DES FRAIS MEDICAUX          2024061100000000010                                      
110104   1101170002024061103172178800000000000077100000131104012086006134058494STEG                          3201632016788101089266154ELAIRHASSEN                           2024LP552407000LP REMBOURSEMENT DES FRAIS MEDICAUX          2024061100000000010                                      
110104   1101170002024061103182178800000000000086000000131104012086006134058494STEG                          0302403024152010100064352GOUADRIAMOHAMED                       2024LP552408000LP REMBOURSEMENT DES FRAIS MEDICAUX          2024061100000000010                                      
110104   1101170002024061103192178800000000000050000000131104012086006134058494STEG                          0302403024152010100064352GOUADRIAMOHAMED                       2024LP552409000LP REMBOURSEMENT DES FRAIS MEDICAUX          2024061100000000010                                      
110104   1101170002024061103202178800000000000100837000131104012086006134058494STEG                          0411604116000404011143933HAJJAMREJEB                           2024LP552410000LP REMBOURSEMENT DES FRAIS MEDICAUX          2024061100000000010                                      
110104   1101170002024061103212178800000000000053365000131104012086006134058494STEG                          0470504705012001843604803AZZOUZIEPZATTALRANDA                  2024LP552412000LP REMBOURSEMENT DES FRAIS MEDICAUX          2024061100000000010                                      
110104   1101170002024061103222178800000000000056519000131104012086006134058494STEG                          1000410004034180350178861BENBEZZAMEDFATHI                      2024LP552415000LP REMBOURSEMENT DES FRAIS MEDICAUX          2024061100000000010                                      
110104   1101170002024061103232178800000000000250000000131104012086006134058494STEG                          0880208802000322001666725JELLOULIMOUNIR                        2024LP552416000LP REMBOURSEMENT DES FRAIS MEDICAUX          2024061100000000010                                      
110104   1101170002024061103242178800000000000044409000131104012086006134058494STEG                          1490314903903100700706536BENBRAHIMHASSEN                       2024LP552418000LP REMBOURSEMENT DES FRAIS MEDICAUX          2024061100000000010                                      
110104   1101170002024061103252178800000000000050000000131104012086006134058494STEG                          0321603216124010100031504HAMAOUILETAIEF                        2024LP552422000LP REMBOURSEMENT DES FRAIS MEDICAUX          2024061100000000010                                      
110104   1101170002024061103262178800000000000051204000131104012086006134058494STEG                          0503705037000105500481825BENYEDDERWISSEM                       2024LP552427000LP REMBOURSEMENT DES FRAIS MEDICAUX          2024061100000000010                                      
110104   1101170002024061103272178800000000000052236000131104012086006134058494STEG                          1700217002000000025445474BenaissaLOTFI                         2024LP552428000LP REMBOURSEMENT DES FRAIS MEDICAUX          2024061100000000010                                      
110104   1101170002024061103282178800000000000056066000131104012086006134058494STEG                          1747417474201402408834241SAAFIAMINE                            2024LP552432000LP REMBOURSEMENT DES FRAIS MEDICAUX          2024061100000000010                                      
110104   1101170002024061103292178800000000000050000000131104012086006134058494STEG                          2503725037000000011925655BENBELGACEMELAIDI                     2024LP552438000LP REMBOURSEMENT DES FRAIS MEDICAUX          2024061100000000010                                      
110104   1101170002024061103302178800000000000050000000131104012086006134058494STEG                          1747417474201402411174851GUESMIEPKSIKSIAIDA                    2024LP552442000LP REMBOURSEMENT DES FRAIS MEDICAUX          2024061100000000010                                      
110104   1101170002024061103312178800000000000216857000131104012086006134058494STEG                          1747417474201402404207535ELGHOULRAMZI                          2024LP552443000LP REMBOURSEMENT DES FRAIS MEDICAUX          2024061100000000010                                      
110104   1101170002024061103322178800000000000084605000131104012086006134058494STEG                          0390603906080010100138842JAHDOURMOUNIR                         2024LP552449000LP REMBOURSEMENT DES FRAIS MEDICAUX          2024061100000000010                                      
110104   1101170002024061103332178800000000000122579000131104012086006134058494STEG                          1403414034034100702424123BENAMORKARIM                          2024LP552453000LP REMBOURSEMENT DES FRAIS MEDICAUX          2024061100000000010                                      
110104   1101170002024061103342178800000000000058867000131104012086006134058494STEG                          1050510505053100752078847FARHATMOHAMED                         2024LP552454000LP REMBOURSEMENT DES FRAIS MEDICAUX          2024061100000000010                                      
110104   1101170002024061103352178800000000000069386000131104012086006134058494STEG                          1747417474201402407704870JAAFARRADHOUANE                       2024LP552456000LP REMBOURSEMENT DES FRAIS MEDICAUX          2024061100000000010                                      
110104   1101170002024061103362178800000000000094756000131104012086006134058494STEG                          1403414034034100702424123BENAMORKARIM                          2024LP552459000LP REMBOURSEMENT DES FRAIS MEDICAUX          2024061100000000010                                      
110104   1101170002024061103372178800000000000065035000131104012086006134058494STEG                          0403404034120002470334085BAKRAOUIBILEL                         2024LP552464000LP REMBOURSEMENT DES FRAIS MEDICAUX          2024061100000000010                                      
110104   1101170002024061103382178800000000000063891000131104012086006134058494STEG                          0850108501000212002538774SIOUDNAJIB                            2024LP552472000LP REMBOURSEMENT DES FRAIS MEDICAUX          2024061100000000010                                      
110104   1101170002024061103392178800000000000089714000131104012086006134058494STEG                          1747417474201402407290874SALHIMOURAD                           2024LP552473000LP REMBOURSEMENT DES FRAIS MEDICAUX          2024061100000000010                                      
110104   1101170002024061103402178800000000000090000000131104012086006134058494STEG                          0850108501000212002538774SIOUDNAJIB                            2024LP552476000LP REMBOURSEMENT DES FRAIS MEDICAUX          2024061100000000010                                      
110104   1101170002024061103412178800000000000078000000131104012086006134058494STEG                          0850108501000212002538774SIOUDNAJIB                            2024LP552478000LP REMBOURSEMENT DES FRAIS MEDICAUX          2024061100000000010                                      
110104   1101170002024061103422178800000000000047523000131104012086006134058494STEG                          1747417474201402404113542MOSLEHMONGI                           2024LP552481000LP REMBOURSEMENT DES FRAIS MEDICAUX          2024061100000000010                                      
